{
  "_format": "hh3-artifact-1",
  "contractName": "AssetFactory",
  "sourceName": "contracts/AssetFactory.sol",
  "abi": [
    {
      "inputs": [
        {
          "internalType": "address",
          "name": "_registry",
          "type": "address"
        },
        {
          "internalType": "address",
          "name": "_tokenDeployer",
          "type": "address"
        },
        {
          "internalType": "address",
          "name": "_govDeployer",
          "type": "address"
        }
      ],
      "stateMutability": "nonpayable",
      "type": "constructor"
    },
    {
      "inputs": [
        {
          "internalType": "address",
          "name": "owner",
          "type": "address"
        }
      ],
      "name": "OwnableInvalidOwner",
      "type": "error"
    },
    {
      "inputs": [
        {
          "internalType": "address",
          "name": "account",
          "type": "address"
        }
      ],
      "name": "OwnableUnauthorizedAccount",
      "type": "error"
    },
    {
      "anonymous": false,
      "inputs": [
        {
          "indexed": true,
          "internalType": "address",
          "name": "tokenAddress",
          "type": "address"
        },
        {
          "indexed": true,
          "internalType": "address",
          "name": "treasuryAddress",
          "type": "address"
        },
        {
          "indexed": true,
          "internalType": "address",
          "name": "governanceAddress",
          "type": "address"
        },
        {
          "indexed": false,
          "internalType": "string",
          "name": "name",
          "type": "string"
        }
      ],
      "name": "AssetPodDeployed",
      "type": "event"
    },
    {
      "anonymous": false,
      "inputs": [
        {
          "indexed": true,
          "internalType": "address",
          "name": "previousOwner",
          "type": "address"
        },
        {
          "indexed": true,
          "internalType": "address",
          "name": "newOwner",
          "type": "address"
        }
      ],
      "name": "OwnershipTransferred",
      "type": "event"
    },
    {
      "inputs": [
        {
          "internalType": "bytes",
          "name": "tokenCreationCode",
          "type": "bytes"
        },
        {
          "internalType": "bytes",
          "name": "tokenArgs",
          "type": "bytes"
        },
        {
          "internalType": "bytes",
          "name": "govCreationCode",
          "type": "bytes"
        },
        {
          "internalType": "bytes",
          "name": "govArgs",
          "type": "bytes"
        },
        {
          "internalType": "string",
          "name": "name",
          "type": "string"
        },
        {
          "internalType": "address",
          "name": "treasury",
          "type": "address"
        },
        {
          "internalType": "address",
          "name": "",
          "type": "address"
        }
      ],
      "name": "deployAssetWithBytecode",
      "outputs": [
        {
          "internalType": "address",
          "name": "",
          "type": "address"
        },
        {
          "internalType": "address",
          "name": "",
          "type": "address"
        },
        {
          "internalType": "address",
          "name": "",
          "type": "address"
        }
      ],
      "stateMutability": "nonpayable",
      "type": "function"
    },
    {
      "inputs": [],
      "name": "govDeployer",
      "outputs": [
        {
          "internalType": "address",
          "name": "",
          "type": "address"
        }
      ],
      "stateMutability": "view",
      "type": "function"
    },
    {
      "inputs": [],
      "name": "owner",
      "outputs": [
        {
          "internalType": "address",
          "name": "",
          "type": "address"
        }
      ],
      "stateMutability": "view",
      "type": "function"
    },
    {
      "inputs": [],
      "name": "registry",
      "outputs": [
        {
          "internalType": "address",
          "name": "",
          "type": "address"
        }
      ],
      "stateMutability": "view",
      "type": "function"
    },
    {
      "inputs": [],
      "name": "renounceOwnership",
      "outputs": [],
      "stateMutability": "nonpayable",
      "type": "function"
    },
    {
      "inputs": [
        {
          "internalType": "address",
          "name": "_tokenDeployer",
          "type": "address"
        },
        {
          "internalType": "address",
          "name": "_govDeployer",
          "type": "address"
        }
      ],
      "name": "setDeployers",
      "outputs": [],
      "stateMutability": "nonpayable",
      "type": "function"
    },
    {
      "inputs": [],
      "name": "tokenDeployer",
      "outputs": [
        {
          "internalType": "address",
          "name": "",
          "type": "address"
        }
      ],
      "stateMutability": "view",
      "type": "function"
    },
    {
      "inputs": [
        {
          "internalType": "address",
          "name": "govAddress",
          "type": "address"
        },
        {
          "internalType": "address",
          "name": "newOwner",
          "type": "address"
        }
      ],
      "name": "transferGovernanceOwnership",
      "outputs": [],
      "stateMutability": "nonpayable",
      "type": "function"
    },
    {
      "inputs": [
        {
          "internalType": "address",
          "name": "newOwner",
          "type": "address"
        }
      ],
      "name": "transferOwnership",
      "outputs": [],
      "stateMutability": "nonpayable",
      "type": "function"
    }
  ],
  "bytecode": "0x60a060405234801561000f575f5ffd5b5060405161097138038061097183398101604081905261002e916100fd565b338061005357604051631e4fbdf760e01b81525f600482015260240160405180910390fd5b61005c81610093565b506001600160a01b03928316608052600180549284166001600160a01b03199384161790556002805491909316911617905561013d565b5f80546001600160a01b038381166001600160a01b0319831681178455604051919092169283917f8be0079c531659141344cd1fd0a4f28419497f9722a3daafe3b4186f6b6457e09190a35050565b80516001600160a01b03811681146100f8575f5ffd5b919050565b5f5f5f6060848603121561010f575f5ffd5b610118846100e2565b9250610126602085016100e2565b9150610134604085016100e2565b90509250925092565b60805161081d6101545f395f60f6015261081d5ff3fe608060405234801561000f575f5ffd5b5060043610610081575f3560e01c80632891923d146100855780632a2dae0a146100c7578063715018a6146100e75780637b103999146100f15780638da5cb5b14610118578063996d361f14610120578063ba4528c414610133578063d78c3e4014610146578063f2fde38b14610159575b5f5ffd5b6100986100933660046105dd565b61016c565b604080516001600160a01b03948516815292841660208401529216918101919091526060015b60405180910390f35b6001546100da906001600160a01b031681565b6040516100be91906106db565b6100ef610393565b005b6100da7f000000000000000000000000000000000000000000000000000000000000000081565b6100da6103a6565b6100ef61012e3660046106ef565b6103b4565b6002546100da906001600160a01b031681565b6100ef6101543660046106ef565b610419565b6100ef610167366004610726565b61044f565b5f5f5f610177610495565b60015460405163078080e160e01b81525f916001600160a01b03169063078080e1906101a9908e908e90600401610776565b6020604051808303815f875af11580156101c5573d5f5f3e3d5ffd5b505050506040513d601f19601f820116820180604052508101906101e991906107a3565b60025460405163288e387f60e01b81529192505f916001600160a01b039091169063288e387f90610220908d908d90600401610776565b6020604051808303815f875af115801561023c573d5f5f3e3d5ffd5b505050506040513d601f19601f8201168201806040525081019061026091906107a3565b9050816001600160a01b0316632f2ff15d836001600160a01b031663f36c8f5c6040518163ffffffff1660e01b8152600401602060405180830381865afa1580156102ad573d5f5f3e3d5ffd5b505050506040513d601f19601f820116820180604052508101906102d191906107be565b6040516001600160e01b031960e084901b16815260048101919091526001600160a01b03841660248201526044015f604051808303815f87803b158015610316575f5ffd5b505af1158015610328573d5f5f3e3d5ffd5b50505050806001600160a01b0316876001600160a01b0316836001600160a01b03167fa17051679f6c0b78f314c06b0ec4802ea6ee7c65438a317f08772919aa1534a38b60405161037991906107d5565b60405180910390a4909b959a509850939650505050505050565b61039b610495565b6103a45f6104c7565b565b5f546001600160a01b031690565b6103bc610495565b60405163f2fde38b60e01b81526001600160a01b0383169063f2fde38b906103e89084906004016106db565b5f604051808303815f87803b1580156103ff575f5ffd5b505af1158015610411573d5f5f3e3d5ffd5b505050505050565b610421610495565b600180546001600160a01b039384166001600160a01b03199182161790915560028054929093169116179055565b610457610495565b6001600160a01b038116610489575f604051631e4fbdf760e01b815260040161048091906106db565b60405180910390fd5b610492816104c7565b50565b3361049e6103a6565b6001600160a01b0316146103a4573360405163118cdaa760e01b815260040161048091906106db565b5f80546001600160a01b038381166001600160a01b0319831681178455604051919092169283917f8be0079c531659141344cd1fd0a4f28419497f9722a3daafe3b4186f6b6457e09190a35050565b634e487b7160e01b5f52604160045260245ffd5b5f82601f830112610539575f5ffd5b8135602083015f806001600160401b0384111561055857610558610516565b50604051601f19601f85018116603f011681018181106001600160401b038211171561058657610586610516565b60405283815290508082840187101561059d575f5ffd5b838360208301375f602085830101528094505050505092915050565b6001600160a01b0381168114610492575f5ffd5b80356105d8816105b9565b919050565b5f5f5f5f5f5f5f60e0888a0312156105f3575f5ffd5b87356001600160401b03811115610608575f5ffd5b6106148a828b0161052a565b97505060208801356001600160401b0381111561062f575f5ffd5b61063b8a828b0161052a565b96505060408801356001600160401b03811115610656575f5ffd5b6106628a828b0161052a565b95505060608801356001600160401b0381111561067d575f5ffd5b6106898a828b0161052a565b94505060808801356001600160401b038111156106a4575f5ffd5b6106b08a828b0161052a565b9350506106bf60a089016105cd565b91506106cd60c089016105cd565b905092959891949750929550565b6001600160a01b0391909116815260200190565b5f5f60408385031215610700575f5ffd5b823561070b816105b9565b9150602083013561071b816105b9565b809150509250929050565b5f60208284031215610736575f5ffd5b8135610741816105b9565b9392505050565b5f81518084528060208401602086015e5f602082860101526020601f19601f83011685010191505092915050565b604081525f6107886040830185610748565b828103602084015261079a8185610748565b95945050505050565b5f602082840312156107b3575f5ffd5b8151610741816105b9565b5f602082840312156107ce575f5ffd5b5051919050565b602081525f610741602083018461074856fea2646970667358221220ad24c96b7eb2191a80c00e4857d80df157507930105f03a8aa452ea30882a7db64736f6c634300081c0033",
  "linkReferences": {},
  "deployedLinkReferences": {},
  "immutableReferences": {
    "233": [
      {
        "length": 32,
        "start": 246
      }
    ]
  },
  "inputSourceName": "project/contracts/AssetFactory.sol",
  "buildInfoId": "solc-0_8_28-42c9ad9fdba5dba4711093723e6ec02d667bcaa8"
}