{
  "_format": "hh3-artifact-1",
  "contractName": "AssetFactory",
  "sourceName": "contracts/AssetFactory.sol",
  "abi": [
    {
      "inputs": [
        {
          "internalType": "address",
          "name": "_registry",
          "type": "address"
        }
      ],
      "stateMutability": "nonpayable",
      "type": "constructor"
    },
    {
      "inputs": [
        {
          "internalType": "address",
          "name": "owner",
          "type": "address"
        }
      ],
      "name": "OwnableInvalidOwner",
      "type": "error"
    },
    {
      "inputs": [
        {
          "internalType": "address",
          "name": "account",
          "type": "address"
        }
      ],
      "name": "OwnableUnauthorizedAccount",
      "type": "error"
    },
    {
      "anonymous": false,
      "inputs": [
        {
          "indexed": true,
          "internalType": "address",
          "name": "tokenAddress",
          "type": "address"
        },
        {
          "indexed": false,
          "internalType": "string",
          "name": "title",
          "type": "string"
        }
      ],
      "name": "AssetTokenDeployed",
      "type": "event"
    },
    {
      "anonymous": false,
      "inputs": [
        {
          "indexed": true,
          "internalType": "address",
          "name": "previousOwner",
          "type": "address"
        },
        {
          "indexed": true,
          "internalType": "address",
          "name": "newOwner",
          "type": "address"
        }
      ],
      "name": "OwnershipTransferred",
      "type": "event"
    },
    {
      "inputs": [
        {
          "internalType": "string",
          "name": "name",
          "type": "string"
        },
        {
          "internalType": "string",
          "name": "symbol",
          "type": "string"
        },
        {
          "internalType": "uint256",
          "name": "supply",
          "type": "uint256"
        },
        {
          "internalType": "string",
          "name": "metadataHash",
          "type": "string"
        },
        {
          "internalType": "address",
          "name": "treasury",
          "type": "address"
        }
      ],
      "name": "deployAsset",
      "outputs": [
        {
          "internalType": "address",
          "name": "",
          "type": "address"
        }
      ],
      "stateMutability": "nonpayable",
      "type": "function"
    },
    {
      "inputs": [],
      "name": "owner",
      "outputs": [
        {
          "internalType": "address",
          "name": "",
          "type": "address"
        }
      ],
      "stateMutability": "view",
      "type": "function"
    },
    {
      "inputs": [],
      "name": "registry",
      "outputs": [
        {
          "internalType": "address",
          "name": "",
          "type": "address"
        }
      ],
      "stateMutability": "view",
      "type": "function"
    },
    {
      "inputs": [],
      "name": "renounceOwnership",
      "outputs": [],
      "stateMutability": "nonpayable",
      "type": "function"
    },
    {
      "inputs": [
        {
          "internalType": "address",
          "name": "newOwner",
          "type": "address"
        }
      ],
      "name": "transferOwnership",
      "outputs": [],
      "stateMutability": "nonpayable",
      "type": "function"
    }
  ],
  "bytecode": "0x60a060405234801561000f575f5ffd5b506040516134633803806134638339818101604052810190610031919061020b565b335f73ffffffffffffffffffffffffffffffffffffffff168173ffffffffffffffffffffffffffffffffffffffff16036100a2575f6040517f1e4fbdf70000000000000000000000000000000000000000000000000000000081526004016100999190610245565b60405180910390fd5b6100b1816100ec60201b60201c565b508073ffffffffffffffffffffffffffffffffffffffff1660808173ffffffffffffffffffffffffffffffffffffffff16815250505061025e565b5f5f5f9054906101000a900473ffffffffffffffffffffffffffffffffffffffff169050815f5f6101000a81548173ffffffffffffffffffffffffffffffffffffffff021916908373ffffffffffffffffffffffffffffffffffffffff1602179055508173ffffffffffffffffffffffffffffffffffffffff168173ffffffffffffffffffffffffffffffffffffffff167f8be0079c531659141344cd1fd0a4f28419497f9722a3daafe3b4186f6b6457e060405160405180910390a35050565b5f5ffd5b5f73ffffffffffffffffffffffffffffffffffffffff82169050919050565b5f6101da826101b1565b9050919050565b6101ea816101d0565b81146101f4575f5ffd5b50565b5f81519050610205816101e1565b92915050565b5f602082840312156102205761021f6101ad565b5b5f61022d848285016101f7565b91505092915050565b61023f816101d0565b82525050565b5f6020820190506102585f830184610236565b92915050565b6080516131e661027d5f395f8181610100015261015901526131e65ff3fe608060405234801561000f575f5ffd5b5060043610610055575f3560e01c8063715018a6146100595780637b103999146100635780638da5cb5b1461008157806393befd961461009f578063f2fde38b146100cf575b5f5ffd5b6100616100eb565b005b61006b6100fe565b604051610078919061042a565b60405180910390f35b610089610122565b604051610096919061042a565b60405180910390f35b6100b960048036038101906100b491906105ed565b610149565b6040516100c6919061042a565b60405180910390f35b6100e960048036038101906100e491906106b8565b61020b565b005b6100f361028f565b6100fc5f610316565b565b7f000000000000000000000000000000000000000000000000000000000000000081565b5f5f5f9054906101000a900473ffffffffffffffffffffffffffffffffffffffff16905090565b5f61015261028f565b5f868686867f000000000000000000000000000000000000000000000000000000000000000087604051610185906103de565b61019496959493929190610752565b604051809103905ff0801580156101ad573d5f5f3e3d5ffd5b5090508073ffffffffffffffffffffffffffffffffffffffff167f7223433b15d6ce9531e18fa2c7609b4c849d05e3234520a3237fb205023cf4b3886040516101f691906107c6565b60405180910390a28091505095945050505050565b61021361028f565b5f73ffffffffffffffffffffffffffffffffffffffff168173ffffffffffffffffffffffffffffffffffffffff1603610283575f6040517f1e4fbdf700000000000000000000000000000000000000000000000000000000815260040161027a919061042a565b60405180910390fd5b61028c81610316565b50565b6102976103d7565b73ffffffffffffffffffffffffffffffffffffffff166102b5610122565b73ffffffffffffffffffffffffffffffffffffffff1614610314576102d86103d7565b6040517f118cdaa700000000000000000000000000000000000000000000000000000000815260040161030b919061042a565b60405180910390fd5b565b5f5f5f9054906101000a900473ffffffffffffffffffffffffffffffffffffffff169050815f5f6101000a81548173ffffffffffffffffffffffffffffffffffffffff021916908373ffffffffffffffffffffffffffffffffffffffff1602179055508173ffffffffffffffffffffffffffffffffffffffff168173ffffffffffffffffffffffffffffffffffffffff167f8be0079c531659141344cd1fd0a4f28419497f9722a3daafe3b4186f6b6457e060405160405180910390a35050565b5f33905090565b6129ca806107e783390190565b5f73ffffffffffffffffffffffffffffffffffffffff82169050919050565b5f610414826103eb565b9050919050565b6104248161040a565b82525050565b5f60208201905061043d5f83018461041b565b92915050565b5f604051905090565b5f5ffd5b5f5ffd5b5f5ffd5b5f5ffd5b5f601f19601f8301169050919050565b7f4e487b71000000000000000000000000000000000000000000000000000000005f52604160045260245ffd5b6104a28261045c565b810181811067ffffffffffffffff821117156104c1576104c061046c565b5b80604052505050565b5f6104d3610443565b90506104df8282610499565b919050565b5f67ffffffffffffffff8211156104fe576104fd61046c565b5b6105078261045c565b9050602081019050919050565b828183375f83830152505050565b5f61053461052f846104e4565b6104ca565b9050828152602081018484840111156105505761054f610458565b5b61055b848285610514565b509392505050565b5f82601f83011261057757610576610454565b5b8135610587848260208601610522565b91505092915050565b5f819050919050565b6105a281610590565b81146105ac575f5ffd5b50565b5f813590506105bd81610599565b92915050565b6105cc8161040a565b81146105d6575f5ffd5b50565b5f813590506105e7816105c3565b92915050565b5f5f5f5f5f60a086880312156106065761060561044c565b5b5f86013567ffffffffffffffff81111561062357610622610450565b5b61062f88828901610563565b955050602086013567ffffffffffffffff8111156106505761064f610450565b5b61065c88828901610563565b945050604061066d888289016105af565b935050606086013567ffffffffffffffff81111561068e5761068d610450565b5b61069a88828901610563565b92505060806106ab888289016105d9565b9150509295509295909350565b5f602082840312156106cd576106cc61044c565b5b5f6106da848285016105d9565b91505092915050565b5f81519050919050565b5f82825260208201905092915050565b8281835e5f83830152505050565b5f610715826106e3565b61071f81856106ed565b935061072f8185602086016106fd565b6107388161045c565b840191505092915050565b61074c81610590565b82525050565b5f60c0820190508181035f83015261076a818961070b565b9050818103602083015261077e818861070b565b905061078d6040830187610743565b818103606083015261079f818661070b565b90506107ae608083018561041b565b6107bb60a083018461041b565b979650505050505050565b5f6020820190508181035f8301526107de818461070b565b90509291505056fe60a060405234801561000f575f5ffd5b506040516129ca3803806129ca83398181016040528101906100319190610937565b858581600390816100429190610c1b565b5080600490816100529190610c1b565b5050508173ffffffffffffffffffffffffffffffffffffffff1660808173ffffffffffffffffffffffffffffffffffffffff168152505082600690816100989190610c1b565b506100ab5f5f1b336100f860201b60201c565b506100dc7f218b5e66cced24f2a17771679618c7a56b8ed44bd3381ca61dd4e1b57743f5b8826100f860201b60201c565b506100ed81856101ee60201b60201c565b505050505050610f0f565b5f610109838361027360201b60201c565b6101e457600160055f8581526020019081526020015f205f015f8473ffffffffffffffffffffffffffffffffffffffff1673ffffffffffffffffffffffffffffffffffffffff1681526020019081526020015f205f6101000a81548160ff0219169083151502179055506101816102d760201b60201c565b73ffffffffffffffffffffffffffffffffffffffff168273ffffffffffffffffffffffffffffffffffffffff16847f2f8788117e7eff1d82e926ec794901d17c78024a50270940304540a733656f0d60405160405180910390a4600190506101e8565b5f90505b92915050565b5f73ffffffffffffffffffffffffffffffffffffffff168273ffffffffffffffffffffffffffffffffffffffff160361025e575f6040517fec442f050000000000000000000000000000000000000000000000000000000081526004016102559190610cf9565b60405180910390fd5b61026f5f83836102de60201b60201c565b5050565b5f60055f8481526020019081526020015f205f015f8373ffffffffffffffffffffffffffffffffffffffff1673ffffffffffffffffffffffffffffffffffffffff1681526020019081526020015f205f9054906101000a900460ff16905092915050565b5f33905090565b5f73ffffffffffffffffffffffffffffffffffffffff168373ffffffffffffffffffffffffffffffffffffffff161415801561034757506103457f218b5e66cced24f2a17771679618c7a56b8ed44bd3381ca61dd4e1b57743f5b88461027360201b60201c565b155b156104065760805173ffffffffffffffffffffffffffffffffffffffff16639d2cc6f1846040518263ffffffff1660e01b81526004016103879190610cf9565b602060405180830381865afa1580156103a2573d5f5f3e3d5ffd5b505050506040513d601f19601f820116820180604052508101906103c69190610d47565b610405576040517f08c379a00000000000000000000000000000000000000000000000000000000081526004016103fc90610dcc565b60405180910390fd5b5b5f73ffffffffffffffffffffffffffffffffffffffff168273ffffffffffffffffffffffffffffffffffffffff161415801561046f575061046d7f218b5e66cced24f2a17771679618c7a56b8ed44bd3381ca61dd4e1b57743f5b88361027360201b60201c565b155b1561052e5760805173ffffffffffffffffffffffffffffffffffffffff16639d2cc6f1836040518263ffffffff1660e01b81526004016104af9190610cf9565b602060405180830381865afa1580156104ca573d5f5f3e3d5ffd5b505050506040513d601f19601f820116820180604052508101906104ee9190610d47565b61052d576040517f08c379a000000000000000000000000000000000000000000000000000000000815260040161052490610e34565b60405180910390fd5b5b61053f83838361054460201b60201c565b505050565b5f73ffffffffffffffffffffffffffffffffffffffff168373ffffffffffffffffffffffffffffffffffffffff1603610594578060025f8282546105889190610e7f565b92505081905550610662565b5f5f5f8573ffffffffffffffffffffffffffffffffffffffff1673ffffffffffffffffffffffffffffffffffffffff1681526020019081526020015f205490508181101561061d578381836040517fe450d38c00000000000000000000000000000000000000000000000000000000815260040161061493929190610ec1565b60405180910390fd5b8181035f5f8673ffffffffffffffffffffffffffffffffffffffff1673ffffffffffffffffffffffffffffffffffffffff1681526020019081526020015f2081905550505b5f73ffffffffffffffffffffffffffffffffffffffff168273ffffffffffffffffffffffffffffffffffffffff16036106a9578060025f82825403925050819055506106f3565b805f5f8473ffffffffffffffffffffffffffffffffffffffff1673ffffffffffffffffffffffffffffffffffffffff1681526020019081526020015f205f82825401925050819055505b8173ffffffffffffffffffffffffffffffffffffffff168373ffffffffffffffffffffffffffffffffffffffff167fddf252ad1be2c89b69c2b068fc378daa952ba7f163c4a11628f55a4df523b3ef836040516107509190610ef6565b60405180910390a3505050565b5f604051905090565b5f5ffd5b5f5ffd5b5f5ffd5b5f5ffd5b5f601f19601f8301169050919050565b7f4e487b71000000000000000000000000000000000000000000000000000000005f52604160045260245ffd5b6107bc82610776565b810181811067ffffffffffffffff821117156107db576107da610786565b5b80604052505050565b5f6107ed61075d565b90506107f982826107b3565b919050565b5f67ffffffffffffffff82111561081857610817610786565b5b61082182610776565b9050602081019050919050565b8281835e5f83830152505050565b5f61084e610849846107fe565b6107e4565b90508281526020810184848401111561086a57610869610772565b5b61087584828561082e565b509392505050565b5f82601f8301126108915761089061076e565b5b81516108a184826020860161083c565b91505092915050565b5f819050919050565b6108bc816108aa565b81146108c6575f5ffd5b50565b5f815190506108d7816108b3565b92915050565b5f73ffffffffffffffffffffffffffffffffffffffff82169050919050565b5f610906826108dd565b9050919050565b610916816108fc565b8114610920575f5ffd5b50565b5f815190506109318161090d565b92915050565b5f5f5f5f5f5f60c0878903121561095157610950610766565b5b5f87015167ffffffffffffffff81111561096e5761096d61076a565b5b61097a89828a0161087d565b965050602087015167ffffffffffffffff81111561099b5761099a61076a565b5b6109a789828a0161087d565b95505060406109b889828a016108c9565b945050606087015167ffffffffffffffff8111156109d9576109d861076a565b5b6109e589828a0161087d565b93505060806109f689828a01610923565b92505060a0610a0789828a01610923565b9150509295509295509295565b5f81519050919050565b7f4e487b71000000000000000000000000000000000000000000000000000000005f52602260045260245ffd5b5f6002820490506001821680610a6257607f821691505b602082108103610a7557610a74610a1e565b5b50919050565b5f819050815f5260205f209050919050565b5f6020601f8301049050919050565b5f82821b905092915050565b5f60088302610ad77fffffffffffffffffffffffffffffffffffffffffffffffffffffffffffffffff82610a9c565b610ae18683610a9c565b95508019841693508086168417925050509392505050565b5f819050919050565b5f610b1c610b17610b12846108aa565b610af9565b6108aa565b9050919050565b5f819050919050565b610b3583610b02565b610b49610b4182610b23565b848454610aa8565b825550505050565b5f5f905090565b610b60610b51565b610b6b818484610b2c565b505050565b5b81811015610b8e57610b835f82610b58565b600181019050610b71565b5050565b601f821115610bd357610ba481610a7b565b610bad84610a8d565b81016020851015610bbc578190505b610bd0610bc885610a8d565b830182610b70565b50505b505050565b5f82821c905092915050565b5f610bf35f1984600802610bd8565b1980831691505092915050565b5f610c0b8383610be4565b9150826002028217905092915050565b610c2482610a14565b67ffffffffffffffff811115610c3d57610c3c610786565b5b610c478254610a4b565b610c52828285610b92565b5f60209050601f831160018114610c83575f8415610c71578287015190505b610c7b8582610c00565b865550610ce2565b601f198416610c9186610a7b565b5f5b82811015610cb857848901518255600182019150602085019450602081019050610c93565b86831015610cd55784890151610cd1601f891682610be4565b8355505b6001600288020188555050505b505050505050565b610cf3816108fc565b82525050565b5f602082019050610d0c5f830184610cea565b92915050565b5f8115159050919050565b610d2681610d12565b8114610d30575f5ffd5b50565b5f81519050610d4181610d1d565b92915050565b5f60208284031215610d5c57610d5b610766565b5b5f610d6984828501610d33565b91505092915050565b5f82825260208201905092915050565b7f436f6d706c69616e63654661696c65643a2053656e64657200000000000000005f82015250565b5f610db6601883610d72565b9150610dc182610d82565b602082019050919050565b5f6020820190508181035f830152610de381610daa565b9050919050565b7f436f6d706c69616e63654661696c65643a2052656365697665720000000000005f82015250565b5f610e1e601a83610d72565b9150610e2982610dea565b602082019050919050565b5f6020820190508181035f830152610e4b81610e12565b9050919050565b7f4e487b71000000000000000000000000000000000000000000000000000000005f52601160045260245ffd5b5f610e89826108aa565b9150610e94836108aa565b9250828201905080821115610eac57610eab610e52565b5b92915050565b610ebb816108aa565b82525050565b5f606082019050610ed45f830186610cea565b610ee16020830185610eb2565b610eee6040830184610eb2565b949350505050565b5f602082019050610f095f830184610eb2565b92915050565b608051611a95610f355f395f818161067601528181610f0a015261104a0152611a955ff3fe608060405234801561000f575f5ffd5b506004361061011f575f3560e01c806336568abe116100ab578063a217fddf1161006f578063a217fddf1461032f578063a9059cbb1461034d578063c5a1d7f01461037d578063d547741f1461039b578063dd62ed3e146103b75761011f565b806336568abe1461027757806370a08231146102935780637b103999146102c357806391d14854146102e157806395d89b41146103115761011f565b806318160ddd116100f257806318160ddd146101bf57806323b872dd146101dd578063248a9ca31461020d5780632f2ff15d1461023d578063313ce567146102595761011f565b806301dd21d31461012357806301ffc9a71461014157806306fdde0314610171578063095ea7b31461018f575b5f5ffd5b61012b6103e7565b60405161013891906113b2565b60405180910390f35b61015b60048036038101906101569190611424565b61040b565b6040516101689190611469565b60405180910390f35b610179610484565b60405161018691906114f2565b60405180910390f35b6101a960048036038101906101a4919061159f565b610514565b6040516101b69190611469565b60405180910390f35b6101c7610536565b6040516101d491906115ec565b60405180910390f35b6101f760048036038101906101f29190611605565b61053f565b6040516102049190611469565b60405180910390f35b6102276004803603810190610222919061167f565b61056d565b60405161023491906113b2565b60405180910390f35b610257600480360381019061025291906116aa565b61058a565b005b6102616105ac565b60405161026e9190611703565b60405180910390f35b610291600480360381019061028c91906116aa565b6105b4565b005b6102ad60048036038101906102a8919061171c565b61062f565b6040516102ba91906115ec565b60405180910390f35b6102cb610674565b6040516102d891906117a2565b60405180910390f35b6102fb60048036038101906102f691906116aa565b610698565b6040516103089190611469565b60405180910390f35b6103196106fc565b60405161032691906114f2565b60405180910390f35b61033761078c565b60405161034491906113b2565b60405180910390f35b6103676004803603810190610362919061159f565b610792565b6040516103749190611469565b60405180910390f35b6103856107b4565b60405161039291906114f2565b60405180910390f35b6103b560048036038101906103b091906116aa565b610840565b005b6103d160048036038101906103cc91906117bb565b610862565b6040516103de91906115ec565b60405180910390f35b7f218b5e66cced24f2a17771679618c7a56b8ed44bd3381ca61dd4e1b57743f5b881565b5f7f7965db0b000000000000000000000000000000000000000000000000000000007bffffffffffffffffffffffffffffffffffffffffffffffffffffffff1916827bffffffffffffffffffffffffffffffffffffffffffffffffffffffff1916148061047d575061047c826108e4565b5b9050919050565b60606003805461049390611826565b80601f01602080910402602001604051908101604052809291908181526020018280546104bf90611826565b801561050a5780601f106104e15761010080835404028352916020019161050a565b820191905f5260205f20905b8154815290600101906020018083116104ed57829003601f168201915b5050505050905090565b5f5f61051e61094d565b905061052b818585610954565b600191505092915050565b5f600254905090565b5f5f61054961094d565b9050610556858285610966565b6105618585856109f9565b60019150509392505050565b5f60055f8381526020019081526020015f20600101549050919050565b6105938261056d565b61059c81610ae9565b6105a68383610afd565b50505050565b5f6012905090565b6105bc61094d565b73ffffffffffffffffffffffffffffffffffffffff168173ffffffffffffffffffffffffffffffffffffffff1614610620576040517f6697b23200000000000000000000000000000000000000000000000000000000815260040160405180910390fd5b61062a8282610be7565b505050565b5f5f5f8373ffffffffffffffffffffffffffffffffffffffff1673ffffffffffffffffffffffffffffffffffffffff1681526020019081526020015f20549050919050565b7f000000000000000000000000000000000000000000000000000000000000000081565b5f60055f8481526020019081526020015f205f015f8373ffffffffffffffffffffffffffffffffffffffff1673ffffffffffffffffffffffffffffffffffffffff1681526020019081526020015f205f9054906101000a900460ff16905092915050565b60606004805461070b90611826565b80601f016020809104026020016040519081016040528092919081815260200182805461073790611826565b80156107825780601f1061075957610100808354040283529160200191610782565b820191905f5260205f20905b81548152906001019060200180831161076557829003601f168201915b5050505050905090565b5f5f1b81565b5f5f61079c61094d565b90506107a98185856109f9565b600191505092915050565b600680546107c190611826565b80601f01602080910402602001604051908101604052809291908181526020018280546107ed90611826565b80156108385780601f1061080f57610100808354040283529160200191610838565b820191905f5260205f20905b81548152906001019060200180831161081b57829003601f168201915b505050505081565b6108498261056d565b61085281610ae9565b61085c8383610be7565b50505050565b5f60015f8473ffffffffffffffffffffffffffffffffffffffff1673ffffffffffffffffffffffffffffffffffffffff1681526020019081526020015f205f8373ffffffffffffffffffffffffffffffffffffffff1673ffffffffffffffffffffffffffffffffffffffff1681526020019081526020015f2054905092915050565b5f7f01ffc9a7000000000000000000000000000000000000000000000000000000007bffffffffffffffffffffffffffffffffffffffffffffffffffffffff1916827bffffffffffffffffffffffffffffffffffffffffffffffffffffffff1916149050919050565b5f33905090565b6109618383836001610cd1565b505050565b5f6109718484610862565b90507fffffffffffffffffffffffffffffffffffffffffffffffffffffffffffffffff8110156109f357818110156109e4578281836040517ffb8f41b20000000000000000000000000000000000000000000000000000000081526004016109db93929190611865565b60405180910390fd5b6109f284848484035f610cd1565b5b50505050565b5f73ffffffffffffffffffffffffffffffffffffffff168373ffffffffffffffffffffffffffffffffffffffff1603610a69575f6040517f96c6fd1e000000000000000000000000000000000000000000000000000000008152600401610a60919061189a565b60405180910390fd5b5f73ffffffffffffffffffffffffffffffffffffffff168273ffffffffffffffffffffffffffffffffffffffff1603610ad9575f6040517fec442f05000000000000000000000000000000000000000000000000000000008152600401610ad0919061189a565b60405180910390fd5b610ae4838383610ea0565b505050565b610afa81610af561094d565b611130565b50565b5f610b088383610698565b610bdd57600160055f8581526020019081526020015f205f015f8473ffffffffffffffffffffffffffffffffffffffff1673ffffffffffffffffffffffffffffffffffffffff1681526020019081526020015f205f6101000a81548160ff021916908315150217905550610b7a61094d565b73ffffffffffffffffffffffffffffffffffffffff168273ffffffffffffffffffffffffffffffffffffffff16847f2f8788117e7eff1d82e926ec794901d17c78024a50270940304540a733656f0d60405160405180910390a460019050610be1565b5f90505b92915050565b5f610bf28383610698565b15610cc7575f60055f8581526020019081526020015f205f015f8473ffffffffffffffffffffffffffffffffffffffff1673ffffffffffffffffffffffffffffffffffffffff1681526020019081526020015f205f6101000a81548160ff021916908315150217905550610c6461094d565b73ffffffffffffffffffffffffffffffffffffffff168273ffffffffffffffffffffffffffffffffffffffff16847ff6391f5c32d9c69d2a47ea670b442974b53935d1edc7fd64eb21e047a839171b60405160405180910390a460019050610ccb565b5f90505b92915050565b5f73ffffffffffffffffffffffffffffffffffffffff168473ffffffffffffffffffffffffffffffffffffffff1603610d41575f6040517fe602df05000000000000000000000000000000000000000000000000000000008152600401610d38919061189a565b60405180910390fd5b5f73ffffffffffffffffffffffffffffffffffffffff168373ffffffffffffffffffffffffffffffffffffffff1603610db1575f6040517f94280d62000000000000000000000000000000000000000000000000000000008152600401610da8919061189a565b60405180910390fd5b8160015f8673ffffffffffffffffffffffffffffffffffffffff1673ffffffffffffffffffffffffffffffffffffffff1681526020019081526020015f205f8573ffffffffffffffffffffffffffffffffffffffff1673ffffffffffffffffffffffffffffffffffffffff1681526020019081526020015f20819055508015610e9a578273ffffffffffffffffffffffffffffffffffffffff168473ffffffffffffffffffffffffffffffffffffffff167f8c5be1e5ebec7d5bd14f71427d1e84f3dd0314c0f7b2291e5b200ac8c7c3b92584604051610e9191906115ec565b60405180910390a35b50505050565b5f73ffffffffffffffffffffffffffffffffffffffff168373ffffffffffffffffffffffffffffffffffffffff1614158015610f035750610f017f218b5e66cced24f2a17771679618c7a56b8ed44bd3381ca61dd4e1b57743f5b884610698565b155b15610fe0577f000000000000000000000000000000000000000000000000000000000000000073ffffffffffffffffffffffffffffffffffffffff16639d2cc6f1846040518263ffffffff1660e01b8152600401610f61919061189a565b602060405180830381865afa158015610f7c573d5f5f3e3d5ffd5b505050506040513d601f19601f82011682018060405250810190610fa091906118dd565b610fdf576040517f08c379a0000000000000000000000000000000000000000000000000000000008152600401610fd690611952565b60405180910390fd5b5b5f73ffffffffffffffffffffffffffffffffffffffff168273ffffffffffffffffffffffffffffffffffffffff161415801561104357506110417f218b5e66cced24f2a17771679618c7a56b8ed44bd3381ca61dd4e1b57743f5b883610698565b155b15611120577f000000000000000000000000000000000000000000000000000000000000000073ffffffffffffffffffffffffffffffffffffffff16639d2cc6f1836040518263ffffffff1660e01b81526004016110a1919061189a565b602060405180830381865afa1580156110bc573d5f5f3e3d5ffd5b505050506040513d601f19601f820116820180604052508101906110e091906118dd565b61111f576040517f08c379a0000000000000000000000000000000000000000000000000000000008152600401611116906119ba565b60405180910390fd5b5b61112b838383611181565b505050565b61113a8282610698565b61117d5780826040517fe2517d3f0000000000000000000000000000000000000000000000000000000081526004016111749291906119d8565b60405180910390fd5b5050565b5f73ffffffffffffffffffffffffffffffffffffffff168373ffffffffffffffffffffffffffffffffffffffff16036111d1578060025f8282546111c59190611a2c565b9250508190555061129f565b5f5f5f8573ffffffffffffffffffffffffffffffffffffffff1673ffffffffffffffffffffffffffffffffffffffff1681526020019081526020015f205490508181101561125a578381836040517fe450d38c00000000000000000000000000000000000000000000000000000000815260040161125193929190611865565b60405180910390fd5b8181035f5f8673ffffffffffffffffffffffffffffffffffffffff1673ffffffffffffffffffffffffffffffffffffffff1681526020019081526020015f2081905550505b5f73ffffffffffffffffffffffffffffffffffffffff168273ffffffffffffffffffffffffffffffffffffffff16036112e6578060025f8282540392505081905550611330565b805f5f8473ffffffffffffffffffffffffffffffffffffffff1673ffffffffffffffffffffffffffffffffffffffff1681526020019081526020015f205f82825401925050819055505b8173ffffffffffffffffffffffffffffffffffffffff168373ffffffffffffffffffffffffffffffffffffffff167fddf252ad1be2c89b69c2b068fc378daa952ba7f163c4a11628f55a4df523b3ef8360405161138d91906115ec565b60405180910390a3505050565b5f819050919050565b6113ac8161139a565b82525050565b5f6020820190506113c55f8301846113a3565b92915050565b5f5ffd5b5f7fffffffff0000000000000000000000000000000000000000000000000000000082169050919050565b611403816113cf565b811461140d575f5ffd5b50565b5f8135905061141e816113fa565b92915050565b5f60208284031215611439576114386113cb565b5b5f61144684828501611410565b91505092915050565b5f8115159050919050565b6114638161144f565b82525050565b5f60208201905061147c5f83018461145a565b92915050565b5f81519050919050565b5f82825260208201905092915050565b8281835e5f83830152505050565b5f601f19601f8301169050919050565b5f6114c482611482565b6114ce818561148c565b93506114de81856020860161149c565b6114e7816114aa565b840191505092915050565b5f6020820190508181035f83015261150a81846114ba565b905092915050565b5f73ffffffffffffffffffffffffffffffffffffffff82169050919050565b5f61153b82611512565b9050919050565b61154b81611531565b8114611555575f5ffd5b50565b5f8135905061156681611542565b92915050565b5f819050919050565b61157e8161156c565b8114611588575f5ffd5b50565b5f8135905061159981611575565b92915050565b5f5f604083850312156115b5576115b46113cb565b5b5f6115c285828601611558565b92505060206115d38582860161158b565b9150509250929050565b6115e68161156c565b82525050565b5f6020820190506115ff5f8301846115dd565b92915050565b5f5f5f6060848603121561161c5761161b6113cb565b5b5f61162986828701611558565b935050602061163a86828701611558565b925050604061164b8682870161158b565b9150509250925092565b61165e8161139a565b8114611668575f5ffd5b50565b5f8135905061167981611655565b92915050565b5f60208284031215611694576116936113cb565b5b5f6116a18482850161166b565b91505092915050565b5f5f604083850312156116c0576116bf6113cb565b5b5f6116cd8582860161166b565b92505060206116de85828601611558565b9150509250929050565b5f60ff82169050919050565b6116fd816116e8565b82525050565b5f6020820190506117165f8301846116f4565b92915050565b5f60208284031215611731576117306113cb565b5b5f61173e84828501611558565b91505092915050565b5f819050919050565b5f61176a61176561176084611512565b611747565b611512565b9050919050565b5f61177b82611750565b9050919050565b5f61178c82611771565b9050919050565b61179c81611782565b82525050565b5f6020820190506117b55f830184611793565b92915050565b5f5f604083850312156117d1576117d06113cb565b5b5f6117de85828601611558565b92505060206117ef85828601611558565b9150509250929050565b7f4e487b71000000000000000000000000000000000000000000000000000000005f52602260045260245ffd5b5f600282049050600182168061183d57607f821691505b6020821081036118505761184f6117f9565b5b50919050565b61185f81611531565b82525050565b5f6060820190506118785f830186611856565b61188560208301856115dd565b61189260408301846115dd565b949350505050565b5f6020820190506118ad5f830184611856565b92915050565b6118bc8161144f565b81146118c6575f5ffd5b50565b5f815190506118d7816118b3565b92915050565b5f602082840312156118f2576118f16113cb565b5b5f6118ff848285016118c9565b91505092915050565b7f436f6d706c69616e63654661696c65643a2053656e64657200000000000000005f82015250565b5f61193c60188361148c565b915061194782611908565b602082019050919050565b5f6020820190508181035f83015261196981611930565b9050919050565b7f436f6d706c69616e63654661696c65643a2052656365697665720000000000005f82015250565b5f6119a4601a8361148c565b91506119af82611970565b602082019050919050565b5f6020820190508181035f8301526119d181611998565b9050919050565b5f6040820190506119eb5f830185611856565b6119f860208301846113a3565b9392505050565b7f4e487b71000000000000000000000000000000000000000000000000000000005f52601160045260245ffd5b5f611a368261156c565b9150611a418361156c565b9250828201905080821115611a5957611a586119ff565b5b9291505056fea2646970667358221220e8b8fdab74b7a9087e6158dfeba20c0f9980c2f8d175f1755063753ddd524f2464736f6c634300081c0033a2646970667358221220e1ce635cf4da18da896849ece1ec1d1a7074e6c44f402da5beefcd913203e09164736f6c634300081c0033",
  "linkReferences": {},
  "deployedLinkReferences": {},
  "immutableReferences": {
    "1362": [
      {
        "length": 32,
        "start": 256
      },
      {
        "length": 32,
        "start": 345
      }
    ]
  },
  "inputSourceName": "project/contracts/AssetFactory.sol",
  "buildInfoId": "solc-0_8_28-f0cda74d33f8bf5c1360c9239d8f2907b54af249"
}