{
  "_format": "hh3-artifact-1",
  "contractName": "PriceOracle",
  "sourceName": "contracts/PriceOracle.sol",
  "abi": [
    {
      "inputs": [],
      "stateMutability": "nonpayable",
      "type": "constructor"
    },
    {
      "inputs": [],
      "name": "AccessControlBadConfirmation",
      "type": "error"
    },
    {
      "inputs": [
        {
          "internalType": "address",
          "name": "account",
          "type": "address"
        },
        {
          "internalType": "bytes32",
          "name": "neededRole",
          "type": "bytes32"
        }
      ],
      "name": "AccessControlUnauthorizedAccount",
      "type": "error"
    },
    {
      "anonymous": false,
      "inputs": [
        {
          "indexed": true,
          "internalType": "address",
          "name": "token",
          "type": "address"
        },
        {
          "indexed": false,
          "internalType": "uint256",
          "name": "lowerBound",
          "type": "uint256"
        },
        {
          "indexed": false,
          "internalType": "uint256",
          "name": "upperBound",
          "type": "uint256"
        },
        {
          "indexed": false,
          "internalType": "uint256",
          "name": "timestamp",
          "type": "uint256"
        }
      ],
      "name": "BandUpdated",
      "type": "event"
    },
    {
      "anonymous": false,
      "inputs": [
        {
          "indexed": true,
          "internalType": "bytes32",
          "name": "role",
          "type": "bytes32"
        },
        {
          "indexed": true,
          "internalType": "bytes32",
          "name": "previousAdminRole",
          "type": "bytes32"
        },
        {
          "indexed": true,
          "internalType": "bytes32",
          "name": "newAdminRole",
          "type": "bytes32"
        }
      ],
      "name": "RoleAdminChanged",
      "type": "event"
    },
    {
      "anonymous": false,
      "inputs": [
        {
          "indexed": true,
          "internalType": "bytes32",
          "name": "role",
          "type": "bytes32"
        },
        {
          "indexed": true,
          "internalType": "address",
          "name": "account",
          "type": "address"
        },
        {
          "indexed": true,
          "internalType": "address",
          "name": "sender",
          "type": "address"
        }
      ],
      "name": "RoleGranted",
      "type": "event"
    },
    {
      "anonymous": false,
      "inputs": [
        {
          "indexed": true,
          "internalType": "bytes32",
          "name": "role",
          "type": "bytes32"
        },
        {
          "indexed": true,
          "internalType": "address",
          "name": "account",
          "type": "address"
        },
        {
          "indexed": true,
          "internalType": "address",
          "name": "sender",
          "type": "address"
        }
      ],
      "name": "RoleRevoked",
      "type": "event"
    },
    {
      "inputs": [],
      "name": "DEFAULT_ADMIN_ROLE",
      "outputs": [
        {
          "internalType": "bytes32",
          "name": "",
          "type": "bytes32"
        }
      ],
      "stateMutability": "view",
      "type": "function"
    },
    {
      "inputs": [],
      "name": "ORACLE_MANAGER_ROLE",
      "outputs": [
        {
          "internalType": "bytes32",
          "name": "",
          "type": "bytes32"
        }
      ],
      "stateMutability": "view",
      "type": "function"
    },
    {
      "inputs": [],
      "name": "STALE_THRESHOLD",
      "outputs": [
        {
          "internalType": "uint256",
          "name": "",
          "type": "uint256"
        }
      ],
      "stateMutability": "view",
      "type": "function"
    },
    {
      "inputs": [
        {
          "internalType": "address",
          "name": "",
          "type": "address"
        }
      ],
      "name": "bands",
      "outputs": [
        {
          "internalType": "uint256",
          "name": "lowerBound",
          "type": "uint256"
        },
        {
          "internalType": "uint256",
          "name": "upperBound",
          "type": "uint256"
        },
        {
          "internalType": "uint256",
          "name": "updatedAt",
          "type": "uint256"
        },
        {
          "internalType": "bool",
          "name": "isSet",
          "type": "bool"
        }
      ],
      "stateMutability": "view",
      "type": "function"
    },
    {
      "inputs": [
        {
          "internalType": "address",
          "name": "token",
          "type": "address"
        }
      ],
      "name": "getPriceBand",
      "outputs": [
        {
          "internalType": "uint256",
          "name": "",
          "type": "uint256"
        },
        {
          "internalType": "uint256",
          "name": "",
          "type": "uint256"
        }
      ],
      "stateMutability": "view",
      "type": "function"
    },
    {
      "inputs": [
        {
          "internalType": "bytes32",
          "name": "role",
          "type": "bytes32"
        }
      ],
      "name": "getRoleAdmin",
      "outputs": [
        {
          "internalType": "bytes32",
          "name": "",
          "type": "bytes32"
        }
      ],
      "stateMutability": "view",
      "type": "function"
    },
    {
      "inputs": [
        {
          "internalType": "bytes32",
          "name": "role",
          "type": "bytes32"
        },
        {
          "internalType": "address",
          "name": "account",
          "type": "address"
        }
      ],
      "name": "grantRole",
      "outputs": [],
      "stateMutability": "nonpayable",
      "type": "function"
    },
    {
      "inputs": [
        {
          "internalType": "bytes32",
          "name": "role",
          "type": "bytes32"
        },
        {
          "internalType": "address",
          "name": "account",
          "type": "address"
        }
      ],
      "name": "hasRole",
      "outputs": [
        {
          "internalType": "bool",
          "name": "",
          "type": "bool"
        }
      ],
      "stateMutability": "view",
      "type": "function"
    },
    {
      "inputs": [
        {
          "internalType": "bytes32",
          "name": "role",
          "type": "bytes32"
        },
        {
          "internalType": "address",
          "name": "callerConfirmation",
          "type": "address"
        }
      ],
      "name": "renounceRole",
      "outputs": [],
      "stateMutability": "nonpayable",
      "type": "function"
    },
    {
      "inputs": [
        {
          "internalType": "bytes32",
          "name": "role",
          "type": "bytes32"
        },
        {
          "internalType": "address",
          "name": "account",
          "type": "address"
        }
      ],
      "name": "revokeRole",
      "outputs": [],
      "stateMutability": "nonpayable",
      "type": "function"
    },
    {
      "inputs": [
        {
          "internalType": "address",
          "name": "token",
          "type": "address"
        },
        {
          "internalType": "uint256",
          "name": "lowerBound",
          "type": "uint256"
        },
        {
          "internalType": "uint256",
          "name": "upperBound",
          "type": "uint256"
        }
      ],
      "name": "setPriceBand",
      "outputs": [],
      "stateMutability": "nonpayable",
      "type": "function"
    },
    {
      "inputs": [
        {
          "internalType": "address[]",
          "name": "tokens",
          "type": "address[]"
        },
        {
          "internalType": "uint256[]",
          "name": "lowerBounds",
          "type": "uint256[]"
        },
        {
          "internalType": "uint256[]",
          "name": "upperBounds",
          "type": "uint256[]"
        }
      ],
      "name": "setPriceBandsBulk",
      "outputs": [],
      "stateMutability": "nonpayable",
      "type": "function"
    },
    {
      "inputs": [
        {
          "internalType": "bytes4",
          "name": "interfaceId",
          "type": "bytes4"
        }
      ],
      "name": "supportsInterface",
      "outputs": [
        {
          "internalType": "bool",
          "name": "",
          "type": "bool"
        }
      ],
      "stateMutability": "view",
      "type": "function"
    }
  ],
  "bytecode": "0x608060405234801561000f575f5ffd5b5061001a5f3361004b565b506100457fced6982f480260bdd8ad5cb18ff2854f0306d78d904ad6cc107e8f3a0f526c183361004b565b506100f4565b5f828152602081815260408083206001600160a01b038516845290915281205460ff166100eb575f838152602081815260408083206001600160a01b03861684529091529020805460ff191660011790556100a33390565b6001600160a01b0316826001600160a01b0316847f2f8788117e7eff1d82e926ec794901d17c78024a50270940304540a733656f0d60405160405180910390a45060016100ee565b505f5b92915050565b610aae806101015f395ff3fe608060405234801561000f575f5ffd5b50600436106100ad575f3560e01c806301ffc9a7146100b1578063248a9ca3146100d95780632f2ff15d146100fa57806336568abe1461010f578063385f7446146101225780635bdddcd01461013557806360fb13cf1461013f57806372b75aaa1461015257806391d148541461017a578063a217fddf1461018d578063bfc69e1c14610194578063d547741f146101a8578063dca19f8a146101bb575b5f5ffd5b6100c46100bf366004610839565b610215565b60405190151581526020015b60405180910390f35b6100ec6100e7366004610867565b61024b565b6040519081526020016100d0565b61010d610108366004610899565b61025f565b005b61010d61011d366004610899565b610281565b61010d6101303660046108c3565b6102b9565b6100ec6201518081565b61010d61014d36600461093a565b6103f5565b6101656101603660046109d6565b6105c3565b604080519283526020830191909152016100d0565b6100c4610188366004610899565b6106b3565b6100ec5f81565b6100ec5f516020610a595f395f51905f5281565b61010d6101b6366004610899565b6106db565b6101f36101c93660046109d6565b600160208190525f9182526040909120805491810154600282015460039092015490919060ff1684565b60408051948552602085019390935291830152151560608201526080016100d0565b5f6001600160e01b03198216637965db0b60e01b148061024557506301ffc9a760e01b6001600160e01b03198316145b92915050565b5f9081526020819052604090206001015490565b6102688261024b565b610271816106f7565b61027b8383610704565b50505050565b6001600160a01b03811633146102aa5760405163334bd91960e11b815260040160405180910390fd5b6102b48282610793565b505050565b5f516020610a595f395f51905f526102d0816106f7565b6001600160a01b03841661031b5760405162461bcd60e51b815260206004820152600d60248201526c24b73b30b634b2103a37b5b2b760991b60448201526064015b60405180910390fd5b5f8311801561032a5750818311155b6103675760405162461bcd60e51b815260206004820152600e60248201526d496e76616c696420626f756e647360901b6044820152606401610312565b604080516080810182528481526020808201858152428385018181526001606086018181526001600160a01b038c165f81815296839052958890209651875593519086015551600285015590516003909301805460ff19169315159390931790925591515f516020610a395f395f51905f52916103e791879187916109ef565b60405180910390a250505050565b5f516020610a595f395f51905f5261040c816106f7565b858414801561041a57508582145b6104575760405162461bcd60e51b815260206004820152600e60248201526d082e4e4c2f240dad2e6dac2e8c6d60931b6044820152606401610312565b5f5b868110156105b957604051806080016040528087878481811061047e5761047e610a05565b90506020020135815260200185858481811061049c5761049c610a05565b9050602002013581526020014281526020016001151581525060015f8a8a858181106104ca576104ca610a05565b90506020020160208101906104df91906109d6565b6001600160a01b0316815260208082019290925260409081015f208351815591830151600183015582015160028201556060909101516003909101805460ff191691151591909117905587878281811061053b5761053b610a05565b905060200201602081019061055091906109d6565b6001600160a01b03165f516020610a395f395f51905f5287878481811061057957610579610a05565b9050602002013586868581811061059257610592610a05565b90506020020135426040516105a9939291906109ef565b60405180910390a2600101610459565b5050505050505050565b6001600160a01b0381165f90815260016020818152604080842081516080810183528154815293810154928401929092526002820154908301526003015460ff1615156060820181905282919061064b5760405162461bcd60e51b815260206004820152600c60248201526b10985b99081b9bdd081cd95d60a21b6044820152606401610312565b6201518081604001514261065f9190610a19565b11156106a15760405162461bcd60e51b81526020600482015260116024820152704f7261636c652064617461207374616c6560781b6044820152606401610312565b80516020909101519094909350915050565b5f918252602082815260408084206001600160a01b0393909316845291905290205460ff1690565b6106e48261024b565b6106ed816106f7565b61027b8383610793565b61070181336107fc565b50565b5f61070f83836106b3565b61078c575f838152602081815260408083206001600160a01b03861684529091529020805460ff191660011790556107443390565b6001600160a01b0316826001600160a01b0316847f2f8788117e7eff1d82e926ec794901d17c78024a50270940304540a733656f0d60405160405180910390a4506001610245565b505f610245565b5f61079e83836106b3565b1561078c575f838152602081815260408083206001600160a01b0386168085529252808320805460ff1916905551339286917ff6391f5c32d9c69d2a47ea670b442974b53935d1edc7fd64eb21e047a839171b9190a4506001610245565b61080682826106b3565b6108355760405163e2517d3f60e01b81526001600160a01b038216600482015260248101839052604401610312565b5050565b5f60208284031215610849575f5ffd5b81356001600160e01b031981168114610860575f5ffd5b9392505050565b5f60208284031215610877575f5ffd5b5035919050565b80356001600160a01b0381168114610894575f5ffd5b919050565b5f5f604083850312156108aa575f5ffd5b823591506108ba6020840161087e565b90509250929050565b5f5f5f606084860312156108d5575f5ffd5b6108de8461087e565b95602085013595506040909401359392505050565b5f5f83601f840112610903575f5ffd5b5081356001600160401b03811115610919575f5ffd5b6020830191508360208260051b8501011115610933575f5ffd5b9250929050565b5f5f5f5f5f5f6060878903121561094f575f5ffd5b86356001600160401b03811115610964575f5ffd5b61097089828a016108f3565b90975095505060208701356001600160401b0381111561098e575f5ffd5b61099a89828a016108f3565b90955093505060408701356001600160401b038111156109b8575f5ffd5b6109c489828a016108f3565b979a9699509497509295939492505050565b5f602082840312156109e6575f5ffd5b6108608261087e565b9283526020830191909152604082015260600190565b634e487b7160e01b5f52603260045260245ffd5b8181038181111561024557634e487b7160e01b5f52601160045260245ffdfe92ae1a8776bd0ffbcfe5fffd5efc9d2611416ec46972be012020df6130ebacd6ced6982f480260bdd8ad5cb18ff2854f0306d78d904ad6cc107e8f3a0f526c18a26469706673582212208581621911dfcab31d936d03db45e2a8b9b179d9235820a62ca14c52083f81c664736f6c634300081c0033",
  "linkReferences": {},
  "deployedLinkReferences": {},
  "immutableReferences": {},
  "inputSourceName": "project/contracts/PriceOracle.sol",
  "buildInfoId": "solc-0_8_28-8eca91068be8c704160fd335a1a868e0064e1fc3"
}