{
  "_format": "hh3-artifact-1",
  "contractName": "PriceOracle",
  "sourceName": "contracts/PriceOracle.sol",
  "abi": [
    {
      "inputs": [],
      "stateMutability": "nonpayable",
      "type": "constructor"
    },
    {
      "inputs": [],
      "name": "AccessControlBadConfirmation",
      "type": "error"
    },
    {
      "inputs": [
        {
          "internalType": "address",
          "name": "account",
          "type": "address"
        },
        {
          "internalType": "bytes32",
          "name": "neededRole",
          "type": "bytes32"
        }
      ],
      "name": "AccessControlUnauthorizedAccount",
      "type": "error"
    },
    {
      "anonymous": false,
      "inputs": [
        {
          "indexed": true,
          "internalType": "address",
          "name": "token",
          "type": "address"
        },
        {
          "indexed": false,
          "internalType": "uint256",
          "name": "lowerBound",
          "type": "uint256"
        },
        {
          "indexed": false,
          "internalType": "uint256",
          "name": "upperBound",
          "type": "uint256"
        },
        {
          "indexed": false,
          "internalType": "uint256",
          "name": "timestamp",
          "type": "uint256"
        }
      ],
      "name": "BandUpdated",
      "type": "event"
    },
    {
      "anonymous": false,
      "inputs": [
        {
          "indexed": true,
          "internalType": "bytes32",
          "name": "role",
          "type": "bytes32"
        },
        {
          "indexed": true,
          "internalType": "bytes32",
          "name": "previousAdminRole",
          "type": "bytes32"
        },
        {
          "indexed": true,
          "internalType": "bytes32",
          "name": "newAdminRole",
          "type": "bytes32"
        }
      ],
      "name": "RoleAdminChanged",
      "type": "event"
    },
    {
      "anonymous": false,
      "inputs": [
        {
          "indexed": true,
          "internalType": "bytes32",
          "name": "role",
          "type": "bytes32"
        },
        {
          "indexed": true,
          "internalType": "address",
          "name": "account",
          "type": "address"
        },
        {
          "indexed": true,
          "internalType": "address",
          "name": "sender",
          "type": "address"
        }
      ],
      "name": "RoleGranted",
      "type": "event"
    },
    {
      "anonymous": false,
      "inputs": [
        {
          "indexed": true,
          "internalType": "bytes32",
          "name": "role",
          "type": "bytes32"
        },
        {
          "indexed": true,
          "internalType": "address",
          "name": "account",
          "type": "address"
        },
        {
          "indexed": true,
          "internalType": "address",
          "name": "sender",
          "type": "address"
        }
      ],
      "name": "RoleRevoked",
      "type": "event"
    },
    {
      "inputs": [],
      "name": "DEFAULT_ADMIN_ROLE",
      "outputs": [
        {
          "internalType": "bytes32",
          "name": "",
          "type": "bytes32"
        }
      ],
      "stateMutability": "view",
      "type": "function"
    },
    {
      "inputs": [],
      "name": "ORACLE_MANAGER_ROLE",
      "outputs": [
        {
          "internalType": "bytes32",
          "name": "",
          "type": "bytes32"
        }
      ],
      "stateMutability": "view",
      "type": "function"
    },
    {
      "inputs": [],
      "name": "STALE_THRESHOLD",
      "outputs": [
        {
          "internalType": "uint256",
          "name": "",
          "type": "uint256"
        }
      ],
      "stateMutability": "view",
      "type": "function"
    },
    {
      "inputs": [
        {
          "internalType": "address",
          "name": "",
          "type": "address"
        }
      ],
      "name": "bands",
      "outputs": [
        {
          "internalType": "uint256",
          "name": "lowerBound",
          "type": "uint256"
        },
        {
          "internalType": "uint256",
          "name": "upperBound",
          "type": "uint256"
        },
        {
          "internalType": "uint256",
          "name": "updatedAt",
          "type": "uint256"
        },
        {
          "internalType": "bool",
          "name": "isSet",
          "type": "bool"
        }
      ],
      "stateMutability": "view",
      "type": "function"
    },
    {
      "inputs": [
        {
          "internalType": "address",
          "name": "token",
          "type": "address"
        }
      ],
      "name": "getPriceBand",
      "outputs": [
        {
          "internalType": "uint256",
          "name": "",
          "type": "uint256"
        },
        {
          "internalType": "uint256",
          "name": "",
          "type": "uint256"
        }
      ],
      "stateMutability": "view",
      "type": "function"
    },
    {
      "inputs": [
        {
          "internalType": "bytes32",
          "name": "role",
          "type": "bytes32"
        }
      ],
      "name": "getRoleAdmin",
      "outputs": [
        {
          "internalType": "bytes32",
          "name": "",
          "type": "bytes32"
        }
      ],
      "stateMutability": "view",
      "type": "function"
    },
    {
      "inputs": [
        {
          "internalType": "bytes32",
          "name": "role",
          "type": "bytes32"
        },
        {
          "internalType": "address",
          "name": "account",
          "type": "address"
        }
      ],
      "name": "grantRole",
      "outputs": [],
      "stateMutability": "nonpayable",
      "type": "function"
    },
    {
      "inputs": [
        {
          "internalType": "bytes32",
          "name": "role",
          "type": "bytes32"
        },
        {
          "internalType": "address",
          "name": "account",
          "type": "address"
        }
      ],
      "name": "hasRole",
      "outputs": [
        {
          "internalType": "bool",
          "name": "",
          "type": "bool"
        }
      ],
      "stateMutability": "view",
      "type": "function"
    },
    {
      "inputs": [
        {
          "internalType": "bytes32",
          "name": "role",
          "type": "bytes32"
        },
        {
          "internalType": "address",
          "name": "callerConfirmation",
          "type": "address"
        }
      ],
      "name": "renounceRole",
      "outputs": [],
      "stateMutability": "nonpayable",
      "type": "function"
    },
    {
      "inputs": [
        {
          "internalType": "bytes32",
          "name": "role",
          "type": "bytes32"
        },
        {
          "internalType": "address",
          "name": "account",
          "type": "address"
        }
      ],
      "name": "revokeRole",
      "outputs": [],
      "stateMutability": "nonpayable",
      "type": "function"
    },
    {
      "inputs": [
        {
          "internalType": "address",
          "name": "token",
          "type": "address"
        },
        {
          "internalType": "uint256",
          "name": "lowerBound",
          "type": "uint256"
        },
        {
          "internalType": "uint256",
          "name": "upperBound",
          "type": "uint256"
        }
      ],
      "name": "setPriceBand",
      "outputs": [],
      "stateMutability": "nonpayable",
      "type": "function"
    },
    {
      "inputs": [
        {
          "internalType": "address[]",
          "name": "tokens",
          "type": "address[]"
        },
        {
          "internalType": "uint256[]",
          "name": "lowerBounds",
          "type": "uint256[]"
        },
        {
          "internalType": "uint256[]",
          "name": "upperBounds",
          "type": "uint256[]"
        }
      ],
      "name": "setPriceBandsBulk",
      "outputs": [],
      "stateMutability": "nonpayable",
      "type": "function"
    },
    {
      "inputs": [
        {
          "internalType": "bytes4",
          "name": "interfaceId",
          "type": "bytes4"
        }
      ],
      "name": "supportsInterface",
      "outputs": [
        {
          "internalType": "bool",
          "name": "",
          "type": "bool"
        }
      ],
      "stateMutability": "view",
      "type": "function"
    }
  ],
  "bytecode": "0x608060405234801561000f575f5ffd5b5061001a5f3361004b565b506100457fced6982f480260bdd8ad5cb18ff2854f0306d78d904ad6cc107e8f3a0f526c183361004b565b506100f4565b5f828152602081815260408083206001600160a01b038516845290915281205460ff166100eb575f838152602081815260408083206001600160a01b03861684529091529020805460ff191660011790556100a33390565b6001600160a01b0316826001600160a01b0316847f2f8788117e7eff1d82e926ec794901d17c78024a50270940304540a733656f0d60405160405180910390a45060016100ee565b505f5b92915050565b610af1806101015f395ff3fe608060405234801561000f575f5ffd5b50600436106100cb575f3560e01c806360fb13cf11610088578063a217fddf11610063578063a217fddf146101ba578063bfc69e1c146101c1578063d547741f146101e8578063dca19f8a146101fb575f5ffd5b806360fb13cf1461016c57806372b75aaa1461017f57806391d14854146101a7575f5ffd5b806301ffc9a7146100cf578063248a9ca3146100f75780632f2ff15d1461012757806336568abe1461013c578063385f74461461014f5780635bdddcd014610162575b5f5ffd5b6100e26100dd3660046108ce565b610255565b60405190151581526020015b60405180910390f35b6101196101053660046108fc565b5f9081526020819052604090206001015490565b6040519081526020016100ee565b61013a61013536600461092e565b61028b565b005b61013a61014a36600461092e565b6102b5565b61013a61015d366004610958565b6102ed565b6101196201518081565b61013a61017a3660046109d0565b610455565b61019261018d366004610a6f565b610650565b604080519283526020830191909152016100ee565b6100e26101b536600461092e565b610740565b6101195f81565b6101197fced6982f480260bdd8ad5cb18ff2854f0306d78d904ad6cc107e8f3a0f526c1881565b61013a6101f636600461092e565b610768565b610233610209366004610a6f565b600160208190525f9182526040909120805491810154600282015460039092015490919060ff1684565b60408051948552602085019390935291830152151560608201526080016100ee565b5f6001600160e01b03198216637965db0b60e01b148061028557506301ffc9a760e01b6001600160e01b03198316145b92915050565b5f828152602081905260409020600101546102a58161078c565b6102af8383610799565b50505050565b6001600160a01b03811633146102de5760405163334bd91960e11b815260040160405180910390fd5b6102e88282610828565b505050565b7fced6982f480260bdd8ad5cb18ff2854f0306d78d904ad6cc107e8f3a0f526c186103178161078c565b6001600160a01b0384166103625760405162461bcd60e51b815260206004820152600d60248201526c24b73b30b634b2103a37b5b2b760991b60448201526064015b60405180910390fd5b5f831180156103715750818311155b6103ae5760405162461bcd60e51b815260206004820152600e60248201526d496e76616c696420626f756e647360901b6044820152606401610359565b60408051608081018252848152602080820185815242838501818152600160608087018281526001600160a01b038d165f8181528489528a90209851895595519288019290925591516002870155516003909501805460ff1916951515959095179094558451888152928301879052938201939093527f92ae1a8776bd0ffbcfe5fffd5efc9d2611416ec46972be012020df6130ebacd6910160405180910390a250505050565b7fced6982f480260bdd8ad5cb18ff2854f0306d78d904ad6cc107e8f3a0f526c1861047f8161078c565b858414801561048d57508582145b6104ca5760405162461bcd60e51b815260206004820152600e60248201526d082e4e4c2f240dad2e6dac2e8c6d60931b6044820152606401610359565b5f5b868110156106465760405180608001604052808787848181106104f1576104f1610a88565b90506020020135815260200185858481811061050f5761050f610a88565b9050602002013581526020014281526020016001151581525060015f8a8a8581811061053d5761053d610a88565b90506020020160208101906105529190610a6f565b6001600160a01b0316815260208082019290925260409081015f208351815591830151600183015582015160028201556060909101516003909101805460ff19169115159190911790558787828181106105ae576105ae610a88565b90506020020160208101906105c39190610a6f565b6001600160a01b03167f92ae1a8776bd0ffbcfe5fffd5efc9d2611416ec46972be012020df6130ebacd68787848181106105ff576105ff610a88565b9050602002013586868581811061061857610618610a88565b60408051948552602091820293909301359084015250429082015260600160405180910390a26001016104cc565b5050505050505050565b6001600160a01b0381165f90815260016020818152604080842081516080810183528154815293810154928401929092526002820154908301526003015460ff161515606082018190528291906106d85760405162461bcd60e51b815260206004820152600c60248201526b10985b99081b9bdd081cd95d60a21b6044820152606401610359565b620151808160400151426106ec9190610a9c565b111561072e5760405162461bcd60e51b81526020600482015260116024820152704f7261636c652064617461207374616c6560781b6044820152606401610359565b80516020909101519094909350915050565b5f918252602082815260408084206001600160a01b0393909316845291905290205460ff1690565b5f828152602081905260409020600101546107828161078c565b6102af8383610828565b6107968133610891565b50565b5f6107a48383610740565b610821575f838152602081815260408083206001600160a01b03861684529091529020805460ff191660011790556107d93390565b6001600160a01b0316826001600160a01b0316847f2f8788117e7eff1d82e926ec794901d17c78024a50270940304540a733656f0d60405160405180910390a4506001610285565b505f610285565b5f6108338383610740565b15610821575f838152602081815260408083206001600160a01b0386168085529252808320805460ff1916905551339286917ff6391f5c32d9c69d2a47ea670b442974b53935d1edc7fd64eb21e047a839171b9190a4506001610285565b61089b8282610740565b6108ca5760405163e2517d3f60e01b81526001600160a01b038216600482015260248101839052604401610359565b5050565b5f602082840312156108de575f5ffd5b81356001600160e01b0319811681146108f5575f5ffd5b9392505050565b5f6020828403121561090c575f5ffd5b5035919050565b80356001600160a01b0381168114610929575f5ffd5b919050565b5f5f6040838503121561093f575f5ffd5b8235915061094f60208401610913565b90509250929050565b5f5f5f6060848603121561096a575f5ffd5b61097384610913565b95602085013595506040909401359392505050565b5f5f83601f840112610998575f5ffd5b50813567ffffffffffffffff8111156109af575f5ffd5b6020830191508360208260051b85010111156109c9575f5ffd5b9250929050565b5f5f5f5f5f5f606087890312156109e5575f5ffd5b863567ffffffffffffffff8111156109fb575f5ffd5b610a0789828a01610988565b909750955050602087013567ffffffffffffffff811115610a26575f5ffd5b610a3289828a01610988565b909550935050604087013567ffffffffffffffff811115610a51575f5ffd5b610a5d89828a01610988565b979a9699509497509295939492505050565b5f60208284031215610a7f575f5ffd5b6108f582610913565b634e487b7160e01b5f52603260045260245ffd5b8181038181111561028557634e487b7160e01b5f52601160045260245ffdfea264697066735822122025ca3d38c3645cfd30442ae929edbb2d99ae26ceda6ab03946ec1b94369193c564736f6c634300081c0033",
  "linkReferences": {},
  "deployedLinkReferences": {},
  "immutableReferences": {},
  "inputSourceName": "project/contracts/PriceOracle.sol",
  "buildInfoId": "solc-0_8_28-228889c35e9984021d1447ed77dd21007b7fe833"
}