{
  "_format": "hh3-artifact-1",
  "contractName": "PropertyGovernance",
  "sourceName": "contracts/PropertyGovernance.sol",
  "abi": [
    {
      "inputs": [
        {
          "internalType": "address",
          "name": "_factory",
          "type": "address"
        },
        {
          "internalType": "address",
          "name": "_treasury",
          "type": "address"
        },
        {
          "internalType": "address",
          "name": "_token",
          "type": "address"
        },
        {
          "internalType": "address",
          "name": "_admin",
          "type": "address"
        }
      ],
      "stateMutability": "nonpayable",
      "type": "constructor"
    },
    {
      "inputs": [
        {
          "internalType": "address",
          "name": "owner",
          "type": "address"
        }
      ],
      "name": "OwnableInvalidOwner",
      "type": "error"
    },
    {
      "inputs": [
        {
          "internalType": "address",
          "name": "account",
          "type": "address"
        }
      ],
      "name": "OwnableUnauthorizedAccount",
      "type": "error"
    },
    {
      "anonymous": false,
      "inputs": [
        {
          "indexed": true,
          "internalType": "address",
          "name": "tokenAddress",
          "type": "address"
        }
      ],
      "name": "LiquidationActivated",
      "type": "event"
    },
    {
      "anonymous": false,
      "inputs": [
        {
          "indexed": true,
          "internalType": "address",
          "name": "previousOwner",
          "type": "address"
        },
        {
          "indexed": true,
          "internalType": "address",
          "name": "newOwner",
          "type": "address"
        }
      ],
      "name": "OwnershipTransferred",
      "type": "event"
    },
    {
      "anonymous": false,
      "inputs": [
        {
          "indexed": true,
          "internalType": "uint256",
          "name": "proposalId",
          "type": "uint256"
        },
        {
          "indexed": false,
          "internalType": "string",
          "name": "description",
          "type": "string"
        },
        {
          "indexed": false,
          "internalType": "uint256",
          "name": "deadline",
          "type": "uint256"
        }
      ],
      "name": "ProposalCreated",
      "type": "event"
    },
    {
      "anonymous": false,
      "inputs": [
        {
          "indexed": true,
          "internalType": "uint256",
          "name": "proposalId",
          "type": "uint256"
        },
        {
          "indexed": false,
          "internalType": "string",
          "name": "action",
          "type": "string"
        }
      ],
      "name": "ProposalExecuted",
      "type": "event"
    },
    {
      "anonymous": false,
      "inputs": [
        {
          "indexed": true,
          "internalType": "uint256",
          "name": "proposalId",
          "type": "uint256"
        },
        {
          "indexed": false,
          "internalType": "address",
          "name": "voter",
          "type": "address"
        },
        {
          "indexed": false,
          "internalType": "bool",
          "name": "support",
          "type": "bool"
        },
        {
          "indexed": false,
          "internalType": "uint256",
          "name": "weight",
          "type": "uint256"
        }
      ],
      "name": "Voted",
      "type": "event"
    },
    {
      "inputs": [
        {
          "internalType": "string",
          "name": "_description",
          "type": "string"
        },
        {
          "internalType": "uint256",
          "name": "_duration",
          "type": "uint256"
        }
      ],
      "name": "createProposal",
      "outputs": [],
      "stateMutability": "nonpayable",
      "type": "function"
    },
    {
      "inputs": [
        {
          "internalType": "uint256",
          "name": "_proposalId",
          "type": "uint256"
        }
      ],
      "name": "executeProposal",
      "outputs": [],
      "stateMutability": "nonpayable",
      "type": "function"
    },
    {
      "inputs": [],
      "name": "factory",
      "outputs": [
        {
          "internalType": "address",
          "name": "",
          "type": "address"
        }
      ],
      "stateMutability": "view",
      "type": "function"
    },
    {
      "inputs": [
        {
          "internalType": "uint256",
          "name": "",
          "type": "uint256"
        },
        {
          "internalType": "address",
          "name": "",
          "type": "address"
        }
      ],
      "name": "hasVoted",
      "outputs": [
        {
          "internalType": "bool",
          "name": "",
          "type": "bool"
        }
      ],
      "stateMutability": "view",
      "type": "function"
    },
    {
      "inputs": [],
      "name": "owner",
      "outputs": [
        {
          "internalType": "address",
          "name": "",
          "type": "address"
        }
      ],
      "stateMutability": "view",
      "type": "function"
    },
    {
      "inputs": [],
      "name": "proposalCount",
      "outputs": [
        {
          "internalType": "uint256",
          "name": "",
          "type": "uint256"
        }
      ],
      "stateMutability": "view",
      "type": "function"
    },
    {
      "inputs": [
        {
          "internalType": "uint256",
          "name": "",
          "type": "uint256"
        }
      ],
      "name": "proposals",
      "outputs": [
        {
          "internalType": "string",
          "name": "description",
          "type": "string"
        },
        {
          "internalType": "uint256",
          "name": "voteYes",
          "type": "uint256"
        },
        {
          "internalType": "uint256",
          "name": "voteNo",
          "type": "uint256"
        },
        {
          "internalType": "uint256",
          "name": "deadline",
          "type": "uint256"
        },
        {
          "internalType": "bool",
          "name": "executed",
          "type": "bool"
        },
        {
          "internalType": "bool",
          "name": "exists",
          "type": "bool"
        }
      ],
      "stateMutability": "view",
      "type": "function"
    },
    {
      "inputs": [],
      "name": "renounceOwnership",
      "outputs": [],
      "stateMutability": "nonpayable",
      "type": "function"
    },
    {
      "inputs": [],
      "name": "token",
      "outputs": [
        {
          "internalType": "contract ERC20Votes",
          "name": "",
          "type": "address"
        }
      ],
      "stateMutability": "view",
      "type": "function"
    },
    {
      "inputs": [
        {
          "internalType": "address",
          "name": "newOwner",
          "type": "address"
        }
      ],
      "name": "transferOwnership",
      "outputs": [],
      "stateMutability": "nonpayable",
      "type": "function"
    },
    {
      "inputs": [],
      "name": "treasury",
      "outputs": [
        {
          "internalType": "address",
          "name": "",
          "type": "address"
        }
      ],
      "stateMutability": "view",
      "type": "function"
    },
    {
      "inputs": [
        {
          "internalType": "uint256",
          "name": "_proposalId",
          "type": "uint256"
        },
        {
          "internalType": "bool",
          "name": "_support",
          "type": "bool"
        }
      ],
      "name": "vote",
      "outputs": [],
      "stateMutability": "nonpayable",
      "type": "function"
    }
  ],
  "bytecode": "0x608060405234801561000f575f5ffd5b5060405161100c38038061100c83398101604081905261002e91610113565b806001600160a01b03811661005c57604051631e4fbdf760e01b81525f600482015260240160405180910390fd5b610065816100a9565b5050600280546001600160a01b039485166001600160a01b031991821617909155600380549385169382169390931790925560018054919093169116179055610164565b5f80546001600160a01b038381166001600160a01b0319831681178455604051919092169283917f8be0079c531659141344cd1fd0a4f28419497f9722a3daafe3b4186f6b6457e09190a35050565b80516001600160a01b038116811461010e575f5ffd5b919050565b5f5f5f5f60808587031215610126575f5ffd5b61012f856100f8565b935061013d602086016100f8565b925061014b604086016100f8565b9150610159606086016100f8565b905092959194509250565b610e9b806101715f395ff3fe608060405234801561000f575f5ffd5b50600436106100a2575f3560e01c8063013cf08b146100a65780630d61b519146100d457806335facf78146100e957806343859632146100fc57806361d027b314610139578063715018a6146101595780638da5cb5b14610161578063c45a015514610169578063c9d27afe1461017c578063da35c6641461018f578063f2fde38b146101a6578063fc0c546a146101b9575b5f5ffd5b6100b96100b43660046109a8565b6101cc565b6040516100cb969594939291906109ed565b60405180910390f35b6100e76100e23660046109a8565b61028c565b005b6100e76100f7366004610a40565b61054e565b61012961010a366004610b0d565b600660209081525f928352604080842090915290825290205460ff1681565b60405190151581526020016100cb565b60035461014c906001600160a01b031681565b6040516100cb9190610b37565b6100e761064a565b61014c61065d565b60025461014c906001600160a01b031681565b6100e761018a366004610b4b565b61066b565b61019860045481565b6040519081526020016100cb565b6100e76101b4366004610b7d565b6108ea565b60015461014c906001600160a01b031681565b60056020525f90815260409020805481906101e690610b9d565b80601f016020809104026020016040519081016040528092919081815260200182805461021290610b9d565b801561025d5780601f106102345761010080835404028352916020019161025d565b820191905f5260205f20905b81548152906001019060200180831161024057829003601f168201915b505050506001830154600284015460038501546004909501549394919390925060ff8082169161010090041686565b610294610927565b5f81815260056020526040902060038101544210156102f35760405162461bcd60e51b815260206004820152601660248201527550726f706f73616c3a205374696c6c2061637469766560501b60448201526064015b60405180910390fd5b600481015460ff16156103455760405162461bcd60e51b815260206004820152601a602482015279141c9bdc1bdcd85b0e88105b1c9958591e48195e1958dd5d195960321b60448201526064016102ea565b806002015481600101541161039c5760405162461bcd60e51b815260206004820152601e60248201527f50726f706f73616c3a204d616a6f72697479206e6f742072656163686564000060448201526064016102ea565b60048101805460ff1916600117905560408051808201825260098152684c495155494441544560b81b602090910152517fb2c587cd0bbe344bb93223bfc1125c99f3b6f76ede105b8b1300f855de4a7a76906103f9908390610bd5565b6040518091039020036105105760015460408051600481526024810182526020810180516001600160e01b03166354c99ee360e01b17905290515f926001600160a01b03169161044891610c46565b5f604051808303815f865af19150503d805f8114610481576040519150601f19603f3d011682016040523d82523d5f602084013e610486565b606091505b50509050806104d75760405162461bcd60e51b815260206004820152601e60248201527f476f7665726e616e63653a204c69717569646174696f6e206661696c6564000060448201526064016102ea565b6001546040516001600160a01b03909116907f69a0f4889989e2f7e1003cbe74a8fec60149df0d72dcc16d197a8eff319dc247905f90a2505b817f537137e7fc21556269dc66003ff063d7ee0ce98cf05ad2feddda124690976e95825f016040516105429190610c5c565b60405180910390a25050565b610556610927565b60048054905f61056583610cf6565b91905055506040518060c001604052808381526020015f81526020015f815260200182426105939190610d0e565b81525f6020808301829052600160409384015260045482526005905220815181906105be9082610d73565b5060208201516001820155604082015160028201556060820151600382015560808201516004918201805460a09094015115156101000261ff00199215159290921661ffff199094169390931717909155547ff5dc0da9afa6d080780a49fd8c680f03d2ddf3c067cd6d0c85360c096644d2d38361063c8442610d0e565b604051610542929190610e2d565b610652610927565b61065b5f610959565b565b5f546001600160a01b031690565b5f8281526005602052604090206004810154610100900460ff166106cc5760405162461bcd60e51b8152602060048201526018602482015277141c9bdc1bdcd85b0e88111bd95cc81b9bdd08195e1a5cdd60421b60448201526064016102ea565b8060030154421061071f5760405162461bcd60e51b815260206004820152601d60248201527f50726f706f73616c3a20566f74696e6720706572696f6420656e64656400000060448201526064016102ea565b5f83815260066020908152604080832033845290915290205460ff16156107825760405162461bcd60e51b8152602060048201526017602482015276141c9bdc1bdcd85b0e88105b1c9958591e481d9bdd1959604a1b60448201526064016102ea565b6001546040516309ab24eb60e41b81525f916001600160a01b031690639ab24eb0906107b2903390600401610b37565b602060405180830381865afa1580156107cd573d5f5f3e3d5ffd5b505050506040513d601f19601f820116820180604052508101906107f19190610e4e565b90505f811161083e5760405162461bcd60e51b8152602060048201526019602482015278283937b837b9b0b61d102737903b37ba34b733903837bbb2b960391b60448201526064016102ea565b82156108625780826001015f8282546108579190610d0e565b9091555061087b9050565b80826002015f8282546108759190610d0e565b90915550505b5f8481526006602090815260408083203380855290835292819020805460ff19166001179055805192835285151591830191909152810182905284907f7c2de587c00d75474a0c6c6fa96fd3b45dc974cd4e8a75f712bb84c950dce1b59060600160405180910390a250505050565b6108f2610927565b6001600160a01b03811661091b575f604051631e4fbdf760e01b81526004016102ea9190610b37565b61092481610959565b50565b3361093061065d565b6001600160a01b03161461065b573360405163118cdaa760e01b81526004016102ea9190610b37565b5f80546001600160a01b038381166001600160a01b0319831681178455604051919092169283917f8be0079c531659141344cd1fd0a4f28419497f9722a3daafe3b4186f6b6457e09190a35050565b5f602082840312156109b8575f5ffd5b5035919050565b5f81518084528060208401602086015e5f602082860101526020601f19601f83011685010191505092915050565b60c081525f6109ff60c08301896109bf565b6020830197909752506040810194909452606084019290925215156080830152151560a090910152919050565b634e487b7160e01b5f52604160045260245ffd5b5f5f60408385031215610a51575f5ffd5b82356001600160401b03811115610a66575f5ffd5b8301601f81018513610a76575f5ffd5b80356001600160401b03811115610a8f57610a8f610a2c565b604051601f8201601f19908116603f011681016001600160401b0381118282101715610abd57610abd610a2c565b604052818152828201602001871015610ad4575f5ffd5b816020840160208301375f6020928201830152969401359450505050565b80356001600160a01b0381168114610b08575f5ffd5b919050565b5f5f60408385031215610b1e575f5ffd5b82359150610b2e60208401610af2565b90509250929050565b6001600160a01b0391909116815260200190565b5f5f60408385031215610b5c575f5ffd5b8235915060208301358015158114610b72575f5ffd5b809150509250929050565b5f60208284031215610b8d575f5ffd5b610b9682610af2565b9392505050565b600181811c90821680610bb157607f821691505b602082108103610bcf57634e487b7160e01b5f52602260045260245ffd5b50919050565b5f5f8354610be281610b9d565b600182168015610bf95760018114610c0e57610c3b565b60ff1983168652811515820286019350610c3b565b865f5260205f205f5b83811015610c3357815488820152600190910190602001610c17565b505081860193505b509195945050505050565b5f82518060208501845e5f920191825250919050565b602081525f5f8354610c6d81610b9d565b806020860152600182165f8114610c8b5760018114610ca757610c3b565b60ff1983166040870152604082151560051b8701019350610c3b565b865f5260205f205f5b83811015610ccf57815488820160400152600190910190602001610cb0565b8701604001945050509195945050505050565b634e487b7160e01b5f52601160045260245ffd5b5f60018201610d0757610d07610ce2565b5060010190565b80820180821115610d2157610d21610ce2565b92915050565b601f821115610d6e57805f5260205f20601f840160051c81016020851015610d4c5750805b601f840160051c820191505b81811015610d6b575f8155600101610d58565b50505b505050565b81516001600160401b03811115610d8c57610d8c610a2c565b610da081610d9a8454610b9d565b84610d27565b6020601f821160018114610dd2575f8315610dbb5750848201515b5f19600385901b1c1916600184901b178455610d6b565b5f84815260208120601f198516915b82811015610e015787850151825560209485019460019092019101610de1565b5084821015610e1e57868401515f19600387901b60f8161c191681555b50505050600190811b01905550565b604081525f610e3f60408301856109bf565b90508260208301529392505050565b5f60208284031215610e5e575f5ffd5b505191905056fea2646970667358221220a30afb117f55c513dbed8e96fdc19b4656a5914e0295c4e7b6725226367704b864736f6c634300081c0033",
  "linkReferences": {},
  "deployedLinkReferences": {},
  "immutableReferences": {},
  "inputSourceName": "project/contracts/PropertyGovernance.sol",
  "buildInfoId": "solc-0_8_28-f42d55db32ea9c9339d1adfda3d9cc86d0c2d0aa"
}