{
  "_format": "hh3-artifact-1",
  "contractName": "RemzikMarketplace",
  "sourceName": "contracts/RemzikMarketplace.sol",
  "abi": [
    {
      "inputs": [
        {
          "internalType": "address",
          "name": "_registry",
          "type": "address"
        },
        {
          "internalType": "address",
          "name": "_priceOracle",
          "type": "address"
        }
      ],
      "stateMutability": "nonpayable",
      "type": "constructor"
    },
    {
      "inputs": [
        {
          "internalType": "address",
          "name": "owner",
          "type": "address"
        }
      ],
      "name": "OwnableInvalidOwner",
      "type": "error"
    },
    {
      "inputs": [
        {
          "internalType": "address",
          "name": "account",
          "type": "address"
        }
      ],
      "name": "OwnableUnauthorizedAccount",
      "type": "error"
    },
    {
      "inputs": [],
      "name": "ReentrancyGuardReentrantCall",
      "type": "error"
    },
    {
      "inputs": [
        {
          "internalType": "address",
          "name": "token",
          "type": "address"
        }
      ],
      "name": "SafeERC20FailedOperation",
      "type": "error"
    },
    {
      "anonymous": false,
      "inputs": [
        {
          "indexed": true,
          "internalType": "string",
          "name": "listingId",
          "type": "string"
        },
        {
          "indexed": true,
          "internalType": "address",
          "name": "seller",
          "type": "address"
        }
      ],
      "name": "ListingCancelled",
      "type": "event"
    },
    {
      "anonymous": false,
      "inputs": [
        {
          "indexed": true,
          "internalType": "string",
          "name": "listingId",
          "type": "string"
        },
        {
          "indexed": true,
          "internalType": "address",
          "name": "seller",
          "type": "address"
        },
        {
          "indexed": false,
          "internalType": "address",
          "name": "token",
          "type": "address"
        },
        {
          "indexed": false,
          "internalType": "uint256",
          "name": "amount",
          "type": "uint256"
        }
      ],
      "name": "ListingCreated",
      "type": "event"
    },
    {
      "anonymous": false,
      "inputs": [
        {
          "indexed": true,
          "internalType": "address",
          "name": "previousOwner",
          "type": "address"
        },
        {
          "indexed": true,
          "internalType": "address",
          "name": "newOwner",
          "type": "address"
        }
      ],
      "name": "OwnershipTransferred",
      "type": "event"
    },
    {
      "anonymous": false,
      "inputs": [
        {
          "indexed": true,
          "internalType": "string",
          "name": "listingId",
          "type": "string"
        },
        {
          "indexed": true,
          "internalType": "address",
          "name": "seller",
          "type": "address"
        },
        {
          "indexed": true,
          "internalType": "address",
          "name": "buyer",
          "type": "address"
        },
        {
          "indexed": false,
          "internalType": "uint256",
          "name": "amount",
          "type": "uint256"
        }
      ],
      "name": "TradeExecuted",
      "type": "event"
    },
    {
      "inputs": [
        {
          "internalType": "string",
          "name": "listingId",
          "type": "string"
        }
      ],
      "name": "cancelListing",
      "outputs": [],
      "stateMutability": "nonpayable",
      "type": "function"
    },
    {
      "inputs": [
        {
          "internalType": "string",
          "name": "listingId",
          "type": "string"
        },
        {
          "internalType": "address",
          "name": "token",
          "type": "address"
        },
        {
          "internalType": "uint256",
          "name": "amount",
          "type": "uint256"
        }
      ],
      "name": "createListing",
      "outputs": [],
      "stateMutability": "nonpayable",
      "type": "function"
    },
    {
      "inputs": [
        {
          "internalType": "string",
          "name": "listingId",
          "type": "string"
        }
      ],
      "name": "getListing",
      "outputs": [
        {
          "components": [
            {
              "internalType": "address",
              "name": "seller",
              "type": "address"
            },
            {
              "internalType": "address",
              "name": "token",
              "type": "address"
            },
            {
              "internalType": "uint256",
              "name": "amount",
              "type": "uint256"
            },
            {
              "internalType": "bool",
              "name": "active",
              "type": "bool"
            }
          ],
          "internalType": "struct RemzikMarketplace.Listing",
          "name": "",
          "type": "tuple"
        }
      ],
      "stateMutability": "view",
      "type": "function"
    },
    {
      "inputs": [
        {
          "internalType": "string",
          "name": "",
          "type": "string"
        }
      ],
      "name": "listings",
      "outputs": [
        {
          "internalType": "address",
          "name": "seller",
          "type": "address"
        },
        {
          "internalType": "address",
          "name": "token",
          "type": "address"
        },
        {
          "internalType": "uint256",
          "name": "amount",
          "type": "uint256"
        },
        {
          "internalType": "bool",
          "name": "active",
          "type": "bool"
        }
      ],
      "stateMutability": "view",
      "type": "function"
    },
    {
      "inputs": [],
      "name": "owner",
      "outputs": [
        {
          "internalType": "address",
          "name": "",
          "type": "address"
        }
      ],
      "stateMutability": "view",
      "type": "function"
    },
    {
      "inputs": [],
      "name": "priceOracle",
      "outputs": [
        {
          "internalType": "contract IPriceOracle",
          "name": "",
          "type": "address"
        }
      ],
      "stateMutability": "view",
      "type": "function"
    },
    {
      "inputs": [],
      "name": "registry",
      "outputs": [
        {
          "internalType": "contract IIdentityRegistry",
          "name": "",
          "type": "address"
        }
      ],
      "stateMutability": "view",
      "type": "function"
    },
    {
      "inputs": [],
      "name": "renounceOwnership",
      "outputs": [],
      "stateMutability": "nonpayable",
      "type": "function"
    },
    {
      "inputs": [
        {
          "internalType": "string",
          "name": "listingId",
          "type": "string"
        },
        {
          "internalType": "address",
          "name": "seller",
          "type": "address"
        },
        {
          "internalType": "address",
          "name": "buyer",
          "type": "address"
        },
        {
          "internalType": "uint256",
          "name": "tradePrice",
          "type": "uint256"
        }
      ],
      "name": "settleTrade",
      "outputs": [],
      "stateMutability": "nonpayable",
      "type": "function"
    },
    {
      "inputs": [
        {
          "internalType": "address",
          "name": "newOwner",
          "type": "address"
        }
      ],
      "name": "transferOwnership",
      "outputs": [],
      "stateMutability": "nonpayable",
      "type": "function"
    },
    {
      "inputs": [
        {
          "internalType": "address",
          "name": "_newOracle",
          "type": "address"
        }
      ],
      "name": "updatePriceOracle",
      "outputs": [],
      "stateMutability": "nonpayable",
      "type": "function"
    }
  ],
  "bytecode": "0x60a060405234801561000f575f5ffd5b506040516112c83803806112c883398101604081905261002e916101c0565b338061005457604051631e4fbdf760e01b81525f60048201526024015b60405180910390fd5b61005d81610156565b5060017f9b779b17422d0df92223018b32b4d1fa46e071723d6817e2486d003becc55f00556001600160a01b0382166100d85760405162461bcd60e51b815260206004820152601f60248201527f52656769737472792063616e6e6f74206265207a65726f206164647265737300604482015260640161004b565b6001600160a01b03811661012e5760405162461bcd60e51b815260206004820152601d60248201527f4f7261636c652063616e6e6f74206265207a65726f2061646472657373000000604482015260640161004b565b6001600160a01b03918216608052600180546001600160a01b031916919092161790556101f1565b5f80546001600160a01b038381166001600160a01b0319831681178455604051919092169283917f8be0079c531659141344cd1fd0a4f28419497f9722a3daafe3b4186f6b6457e09190a35050565b80516001600160a01b03811681146101bb575f5ffd5b919050565b5f5f604083850312156101d1575f5ffd5b6101da836101a5565b91506101e8602084016101a5565b90509250929050565b6080516110b86102105f395f81816101bd015261050801526110b85ff3fe608060405234801561000f575f5ffd5b5060043610610097575f3560e01c80632630c12f1461009b57806339d1fc82146100c45780634ae9ec30146100d9578063715018a61461012f57806377dec6c3146101375780637b103999146101b85780638da5cb5b146101df578063943f2261146101e7578063dd003e57146101fa578063e8c7a8ff1461020d578063f2fde38b14610220575b5f5ffd5b6001546100ae906001600160a01b031681565b6040516100bb9190610d2e565b60405180910390f35b6100d76100d2366004610d5d565b610233565b005b6100ec6100e7366004610dc1565b6102aa565b6040516100bb919081516001600160a01b039081168252602080840151909116908201526040808301519082015260609182015115159181019190915260800190565b6100d7610333565b61018b610145366004610e13565b80516020818301810180516002808352938301929094019190912092905281546001830154918301546003909301546001600160a01b0391821693919092169160ff1684565b604080516001600160a01b03958616815294909316602085015291830152151560608201526080016100bb565b6100ae7f000000000000000000000000000000000000000000000000000000000000000081565b6100ae610346565b6100d76101f5366004610dc1565b610354565b6100d7610208366004610ec3565b610476565b6100d761021b366004610f1a565b610831565b6100d761022e366004610d5d565b6109de565b61023b610a1b565b6001600160a01b0381166102885760405162461bcd60e51b815260206004820152600f60248201526e496e76616c6964206164647265737360881b60448201526064015b60405180910390fd5b600180546001600160a01b0319166001600160a01b0392909216919091179055565b604080516080810182525f80825260208201819052818301819052606082015290516002906102dc9085908590610f81565b90815260408051918290036020908101832060808401835280546001600160a01b039081168552600182015416918401919091526002810154918301919091526003015460ff161515606082015290505b92915050565b61033b610a1b565b6103445f610a4d565b565b5f546001600160a01b031690565b61035c610a9c565b5f6002838360405161036f929190610f81565b908152604051908190036020019020600381015490915060ff166103a55760405162461bcd60e51b815260040161027f90610f90565b80546001600160a01b03163314806103d557506103c0610346565b6001600160a01b0316336001600160a01b0316145b6104105760405162461bcd60e51b815260206004820152600c60248201526b155b985d5d1a1bdc9a5e995960a21b604482015260640161027f565b60038101805460ff1916905580546040516001600160a01b039091169061043a9085908590610f81565b604051908190038120907f0ad06290f905050c9dac577e139b4b450621b456073e716db7561a52f3ff8928905f90a350610472610ab7565b5050565b61047e610a9c565b5f6001600160a01b03166002858560405161049a929190610f81565b908152604051908190036020019020546001600160a01b0316146104f15760405162461bcd60e51b815260206004820152600e60248201526d4c697374696e672065786973747360901b604482015260640161027f565b604051639d2cc6f160e01b81526001600160a01b037f00000000000000000000000000000000000000000000000000000000000000001690639d2cc6f19061053d903390600401610d2e565b602060405180830381865afa158015610558573d5f5f3e3d5ffd5b505050506040513d601f19601f8201168201806040525081019061057c9190610fba565b6105be5760405162461bcd60e51b815260206004820152601360248201527214d95b1b195c881b9bdd081d995c9a599a5959606a1b604482015260640161027f565b6040516370a0823160e01b815281906001600160a01b038416906370a08231906105ec903390600401610d2e565b602060405180830381865afa158015610607573d5f5f3e3d5ffd5b505050506040513d601f19601f8201168201806040525081019061062b9190610fd9565b10156106765760405162461bcd60e51b815260206004820152601a602482015279496e73756666696369656e7420746f6b656e2062616c616e636560301b604482015260640161027f565b604051636eb1769f60e11b815233600482015230602482015281906001600160a01b0384169063dd62ed3e90604401602060405180830381865afa1580156106c0573d5f5f3e3d5ffd5b505050506040513d601f19601f820116820180604052508101906106e49190610fd9565b101561072b5760405162461bcd60e51b8152602060048201526016602482015275496e73756666696369656e7420616c6c6f77616e636560501b604482015260640161027f565b604080516080810182523381526001600160a01b03841660208201528082018390526001606082015290516002906107669087908790610f81565b9081526040805160209281900383018120845181546001600160a01b03199081166001600160a01b03928316178355948601516001830180549096169116179093559083015160028301556060909201516003909101805460ff191691151591909117905533906107da9086908690610f81565b604080519182900382206001600160a01b038616835260208301859052917f3fe94004cb7efd797871f0f795ec774626c187af942608124eb69bb2a56c7b24910160405180910390a361082b610ab7565b50505050565b610839610a9c565b610841610a1b565b5f60028686604051610854929190610f81565b908152604051908190036020019020600381015490915060ff1661088a5760405162461bcd60e51b815260040161027f90610f90565b80546001600160a01b038581169116146108d85760405162461bcd60e51b815260206004820152600f60248201526e0a6cad8d8cae440dad2e6dac2e8c6d608b1b604482015260640161027f565b6001600160a01b03831661091e5760405162461bcd60e51b815260206004820152600d60248201526c24b73b30b634b210313abcb2b960991b604482015260640161027f565b6001810154600282015461093d916001600160a01b0316908490610ac4565b60038101805460ff191690556002810154600182015461096c916001600160a01b039091169086908690610c35565b826001600160a01b0316846001600160a01b03168787604051610990929190610f81565b60405190819003812060028501548252907f692d99dba2e31af789fdfbd066655c52590dac3e64f67a0bebf224dc8c1812999060200160405180910390a4506109d7610ab7565b5050505050565b6109e6610a1b565b6001600160a01b038116610a0f575f604051631e4fbdf760e01b815260040161027f9190610d2e565b610a1881610a4d565b50565b33610a24610346565b6001600160a01b031614610344573360405163118cdaa760e01b815260040161027f9190610d2e565b5f80546001600160a01b038381166001600160a01b0319831681178455604051919092169283917f8be0079c531659141344cd1fd0a4f28419497f9722a3daafe3b4186f6b6457e09190a35050565b610aa4610c62565b6002610ab4610ab1610c88565b90565b55565b6001610ab4610ab1610c88565b60015460405163395bad5560e11b81525f9182916001600160a01b03909116906372b75aaa90610af8908890600401610d2e565b6040805180830381865afa158015610b12573d5f5f3e3d5ffd5b505050506040513d601f19601f82011682018060405250810190610b369190610ff0565b915091505f8311610b7a5760405162461bcd60e51b815260206004820152600e60248201526d125b9d985b1a5908185b5bdd5b9d60921b604482015260640161027f565b5f83610b8e86670de0b6b3a7640000611026565b610b98919061103d565b90505f610ba660648561103d565b90505f818511610bb6575f610bc0565b610bc0828661105c565b90505f610bcd838661106f565b9050818410158015610bdf5750808411155b610c2a5760405162461bcd60e51b815260206004820152601c60248201527b141c9a58d9481bdd5d1cda5919481c195c9b5a5d1d19590818985b9960221b604482015260640161027f565b505050505050505050565b610c43848484846001610cac565b61082b5783604051635274afe760e01b815260040161027f9190610d2e565b610c6a610d19565b1561034457604051633ee5aeb560e01b815260040160405180910390fd5b7f9b779b17422d0df92223018b32b4d1fa46e071723d6817e2486d003becc55f0090565b6040516323b872dd60e01b5f8181526001600160a01b038781166004528616602452604485905291602083606481808c5af1925060015f51148316610d08578383151615610cfc573d5f823e3d81fd5b5f883b113d1516831692505b604052505f60605295945050505050565b5f6002610d27610ab1610c88565b5414919050565b6001600160a01b0391909116815260200190565b80356001600160a01b0381168114610d58575f5ffd5b919050565b5f60208284031215610d6d575f5ffd5b610d7682610d42565b9392505050565b5f5f83601f840112610d8d575f5ffd5b5081356001600160401b03811115610da3575f5ffd5b602083019150836020828501011115610dba575f5ffd5b9250929050565b5f5f60208385031215610dd2575f5ffd5b82356001600160401b03811115610de7575f5ffd5b610df385828601610d7d565b90969095509350505050565b634e487b7160e01b5f52604160045260245ffd5b5f60208284031215610e23575f5ffd5b81356001600160401b03811115610e38575f5ffd5b8201601f81018413610e48575f5ffd5b80356001600160401b03811115610e6157610e61610dff565b604051601f8201601f19908116603f011681016001600160401b0381118282101715610e8f57610e8f610dff565b604052818152828201602001861015610ea6575f5ffd5b816020840160208301375f91810160200191909152949350505050565b5f5f5f5f60608587031215610ed6575f5ffd5b84356001600160401b03811115610eeb575f5ffd5b610ef787828801610d7d565b9095509350610f0a905060208601610d42565b9396929550929360400135925050565b5f5f5f5f5f60808688031215610f2e575f5ffd5b85356001600160401b03811115610f43575f5ffd5b610f4f88828901610d7d565b9096509450610f62905060208701610d42565b9250610f7060408701610d42565b949793965091946060013592915050565b818382375f9101908152919050565b60208082526010908201526f4c697374696e6720696e61637469766560801b604082015260600190565b5f60208284031215610fca575f5ffd5b81518015158114610d76575f5ffd5b5f60208284031215610fe9575f5ffd5b5051919050565b5f5f60408385031215611001575f5ffd5b505080516020909101519092909150565b634e487b7160e01b5f52601160045260245ffd5b808202811582820484141761032d5761032d611012565b5f8261105757634e487b7160e01b5f52601260045260245ffd5b500490565b8181038181111561032d5761032d611012565b8082018082111561032d5761032d61101256fea26469706673582212204aef4530510a7ae0085b70e4dbb9141f9f5f769332739437ec88025415daa99b64736f6c634300081c0033",
  "linkReferences": {},
  "deployedLinkReferences": {},
  "immutableReferences": {
    "1085": [
      {
        "length": 32,
        "start": 445
      },
      {
        "length": 32,
        "start": 1288
      }
    ]
  },
  "inputSourceName": "project/contracts/RemzikMarketplace.sol",
  "buildInfoId": "solc-0_8_28-3ea1bee307af6469394fc351fe03f4405264e2d9"
}