{
  "_format": "hh3-artifact-1",
  "contractName": "RemzikAssetToken",
  "sourceName": "contracts/RemzikAssetToken.sol",
  "abi": [
    {
      "inputs": [
        {
          "internalType": "string",
          "name": "name",
          "type": "string"
        },
        {
          "internalType": "string",
          "name": "symbol",
          "type": "string"
        },
        {
          "internalType": "uint256",
          "name": "supply",
          "type": "uint256"
        },
        {
          "internalType": "string",
          "name": "_metadataHash",
          "type": "string"
        },
        {
          "internalType": "address",
          "name": "_registry",
          "type": "address"
        },
        {
          "internalType": "address",
          "name": "_treasury",
          "type": "address"
        },
        {
          "internalType": "address",
          "name": "_admin",
          "type": "address"
        }
      ],
      "stateMutability": "nonpayable",
      "type": "constructor"
    },
    {
      "inputs": [],
      "name": "AccessControlBadConfirmation",
      "type": "error"
    },
    {
      "inputs": [
        {
          "internalType": "address",
          "name": "account",
          "type": "address"
        },
        {
          "internalType": "bytes32",
          "name": "neededRole",
          "type": "bytes32"
        }
      ],
      "name": "AccessControlUnauthorizedAccount",
      "type": "error"
    },
    {
      "inputs": [],
      "name": "CheckpointUnorderedInsertion",
      "type": "error"
    },
    {
      "inputs": [
        {
          "internalType": "address",
          "name": "account",
          "type": "address"
        }
      ],
      "name": "ComplianceFailed",
      "type": "error"
    },
    {
      "inputs": [],
      "name": "ECDSAInvalidSignature",
      "type": "error"
    },
    {
      "inputs": [
        {
          "internalType": "uint256",
          "name": "length",
          "type": "uint256"
        }
      ],
      "name": "ECDSAInvalidSignatureLength",
      "type": "error"
    },
    {
      "inputs": [
        {
          "internalType": "bytes32",
          "name": "s",
          "type": "bytes32"
        }
      ],
      "name": "ECDSAInvalidSignatureS",
      "type": "error"
    },
    {
      "inputs": [
        {
          "internalType": "uint256",
          "name": "increasedSupply",
          "type": "uint256"
        },
        {
          "internalType": "uint256",
          "name": "cap",
          "type": "uint256"
        }
      ],
      "name": "ERC20ExceededSafeSupply",
      "type": "error"
    },
    {
      "inputs": [
        {
          "internalType": "address",
          "name": "spender",
          "type": "address"
        },
        {
          "internalType": "uint256",
          "name": "allowance",
          "type": "uint256"
        },
        {
          "internalType": "uint256",
          "name": "needed",
          "type": "uint256"
        }
      ],
      "name": "ERC20InsufficientAllowance",
      "type": "error"
    },
    {
      "inputs": [
        {
          "internalType": "address",
          "name": "sender",
          "type": "address"
        },
        {
          "internalType": "uint256",
          "name": "balance",
          "type": "uint256"
        },
        {
          "internalType": "uint256",
          "name": "needed",
          "type": "uint256"
        }
      ],
      "name": "ERC20InsufficientBalance",
      "type": "error"
    },
    {
      "inputs": [
        {
          "internalType": "address",
          "name": "approver",
          "type": "address"
        }
      ],
      "name": "ERC20InvalidApprover",
      "type": "error"
    },
    {
      "inputs": [
        {
          "internalType": "address",
          "name": "receiver",
          "type": "address"
        }
      ],
      "name": "ERC20InvalidReceiver",
      "type": "error"
    },
    {
      "inputs": [
        {
          "internalType": "address",
          "name": "sender",
          "type": "address"
        }
      ],
      "name": "ERC20InvalidSender",
      "type": "error"
    },
    {
      "inputs": [
        {
          "internalType": "address",
          "name": "spender",
          "type": "address"
        }
      ],
      "name": "ERC20InvalidSpender",
      "type": "error"
    },
    {
      "inputs": [
        {
          "internalType": "uint256",
          "name": "deadline",
          "type": "uint256"
        }
      ],
      "name": "ERC2612ExpiredSignature",
      "type": "error"
    },
    {
      "inputs": [
        {
          "internalType": "address",
          "name": "signer",
          "type": "address"
        },
        {
          "internalType": "address",
          "name": "owner",
          "type": "address"
        }
      ],
      "name": "ERC2612InvalidSigner",
      "type": "error"
    },
    {
      "inputs": [
        {
          "internalType": "uint256",
          "name": "timepoint",
          "type": "uint256"
        },
        {
          "internalType": "uint48",
          "name": "clock",
          "type": "uint48"
        }
      ],
      "name": "ERC5805FutureLookup",
      "type": "error"
    },
    {
      "inputs": [],
      "name": "ERC6372InconsistentClock",
      "type": "error"
    },
    {
      "inputs": [],
      "name": "EnforcedPause",
      "type": "error"
    },
    {
      "inputs": [],
      "name": "ExpectedPause",
      "type": "error"
    },
    {
      "inputs": [
        {
          "internalType": "address",
          "name": "account",
          "type": "address"
        },
        {
          "internalType": "uint256",
          "name": "currentNonce",
          "type": "uint256"
        }
      ],
      "name": "InvalidAccountNonce",
      "type": "error"
    },
    {
      "inputs": [],
      "name": "InvalidShortString",
      "type": "error"
    },
    {
      "inputs": [
        {
          "internalType": "uint8",
          "name": "bits",
          "type": "uint8"
        },
        {
          "internalType": "uint256",
          "name": "value",
          "type": "uint256"
        }
      ],
      "name": "SafeCastOverflowedUintDowncast",
      "type": "error"
    },
    {
      "inputs": [
        {
          "internalType": "string",
          "name": "str",
          "type": "string"
        }
      ],
      "name": "StringTooLong",
      "type": "error"
    },
    {
      "inputs": [],
      "name": "TokenPaused",
      "type": "error"
    },
    {
      "inputs": [
        {
          "internalType": "uint256",
          "name": "expiry",
          "type": "uint256"
        }
      ],
      "name": "VotesExpiredSignature",
      "type": "error"
    },
    {
      "anonymous": false,
      "inputs": [
        {
          "indexed": true,
          "internalType": "address",
          "name": "owner",
          "type": "address"
        },
        {
          "indexed": true,
          "internalType": "address",
          "name": "spender",
          "type": "address"
        },
        {
          "indexed": false,
          "internalType": "uint256",
          "name": "value",
          "type": "uint256"
        }
      ],
      "name": "Approval",
      "type": "event"
    },
    {
      "anonymous": false,
      "inputs": [
        {
          "indexed": true,
          "internalType": "address",
          "name": "delegator",
          "type": "address"
        },
        {
          "indexed": true,
          "internalType": "address",
          "name": "fromDelegate",
          "type": "address"
        },
        {
          "indexed": true,
          "internalType": "address",
          "name": "toDelegate",
          "type": "address"
        }
      ],
      "name": "DelegateChanged",
      "type": "event"
    },
    {
      "anonymous": false,
      "inputs": [
        {
          "indexed": true,
          "internalType": "address",
          "name": "delegate",
          "type": "address"
        },
        {
          "indexed": false,
          "internalType": "uint256",
          "name": "previousVotes",
          "type": "uint256"
        },
        {
          "indexed": false,
          "internalType": "uint256",
          "name": "newVotes",
          "type": "uint256"
        }
      ],
      "name": "DelegateVotesChanged",
      "type": "event"
    },
    {
      "anonymous": false,
      "inputs": [],
      "name": "EIP712DomainChanged",
      "type": "event"
    },
    {
      "anonymous": false,
      "inputs": [],
      "name": "LiquidationActivated",
      "type": "event"
    },
    {
      "anonymous": false,
      "inputs": [
        {
          "indexed": false,
          "internalType": "string",
          "name": "newHash",
          "type": "string"
        }
      ],
      "name": "MetadataUpdated",
      "type": "event"
    },
    {
      "anonymous": false,
      "inputs": [
        {
          "indexed": false,
          "internalType": "address",
          "name": "account",
          "type": "address"
        }
      ],
      "name": "Paused",
      "type": "event"
    },
    {
      "anonymous": false,
      "inputs": [
        {
          "indexed": true,
          "internalType": "bytes32",
          "name": "role",
          "type": "bytes32"
        },
        {
          "indexed": true,
          "internalType": "bytes32",
          "name": "previousAdminRole",
          "type": "bytes32"
        },
        {
          "indexed": true,
          "internalType": "bytes32",
          "name": "newAdminRole",
          "type": "bytes32"
        }
      ],
      "name": "RoleAdminChanged",
      "type": "event"
    },
    {
      "anonymous": false,
      "inputs": [
        {
          "indexed": true,
          "internalType": "bytes32",
          "name": "role",
          "type": "bytes32"
        },
        {
          "indexed": true,
          "internalType": "address",
          "name": "account",
          "type": "address"
        },
        {
          "indexed": true,
          "internalType": "address",
          "name": "sender",
          "type": "address"
        }
      ],
      "name": "RoleGranted",
      "type": "event"
    },
    {
      "anonymous": false,
      "inputs": [
        {
          "indexed": true,
          "internalType": "bytes32",
          "name": "role",
          "type": "bytes32"
        },
        {
          "indexed": true,
          "internalType": "address",
          "name": "account",
          "type": "address"
        },
        {
          "indexed": true,
          "internalType": "address",
          "name": "sender",
          "type": "address"
        }
      ],
      "name": "RoleRevoked",
      "type": "event"
    },
    {
      "anonymous": false,
      "inputs": [
        {
          "indexed": true,
          "internalType": "address",
          "name": "from",
          "type": "address"
        },
        {
          "indexed": true,
          "internalType": "address",
          "name": "to",
          "type": "address"
        },
        {
          "indexed": false,
          "internalType": "uint256",
          "name": "value",
          "type": "uint256"
        }
      ],
      "name": "Transfer",
      "type": "event"
    },
    {
      "anonymous": false,
      "inputs": [
        {
          "indexed": false,
          "internalType": "address",
          "name": "account",
          "type": "address"
        }
      ],
      "name": "Unpaused",
      "type": "event"
    },
    {
      "inputs": [],
      "name": "CLOCK_MODE",
      "outputs": [
        {
          "internalType": "string",
          "name": "",
          "type": "string"
        }
      ],
      "stateMutability": "pure",
      "type": "function"
    },
    {
      "inputs": [],
      "name": "COMPLIANCE_BYPASS_ROLE",
      "outputs": [
        {
          "internalType": "bytes32",
          "name": "",
          "type": "bytes32"
        }
      ],
      "stateMutability": "view",
      "type": "function"
    },
    {
      "inputs": [],
      "name": "DEFAULT_ADMIN_ROLE",
      "outputs": [
        {
          "internalType": "bytes32",
          "name": "",
          "type": "bytes32"
        }
      ],
      "stateMutability": "view",
      "type": "function"
    },
    {
      "inputs": [],
      "name": "DOMAIN_SEPARATOR",
      "outputs": [
        {
          "internalType": "bytes32",
          "name": "",
          "type": "bytes32"
        }
      ],
      "stateMutability": "view",
      "type": "function"
    },
    {
      "inputs": [],
      "name": "GOVERNANCE_ROLE",
      "outputs": [
        {
          "internalType": "bytes32",
          "name": "",
          "type": "bytes32"
        }
      ],
      "stateMutability": "view",
      "type": "function"
    },
    {
      "inputs": [],
      "name": "activateLiquidation",
      "outputs": [],
      "stateMutability": "nonpayable",
      "type": "function"
    },
    {
      "inputs": [
        {
          "internalType": "address",
          "name": "owner",
          "type": "address"
        },
        {
          "internalType": "address",
          "name": "spender",
          "type": "address"
        }
      ],
      "name": "allowance",
      "outputs": [
        {
          "internalType": "uint256",
          "name": "",
          "type": "uint256"
        }
      ],
      "stateMutability": "view",
      "type": "function"
    },
    {
      "inputs": [
        {
          "internalType": "address",
          "name": "spender",
          "type": "address"
        },
        {
          "internalType": "uint256",
          "name": "value",
          "type": "uint256"
        }
      ],
      "name": "approve",
      "outputs": [
        {
          "internalType": "bool",
          "name": "",
          "type": "bool"
        }
      ],
      "stateMutability": "nonpayable",
      "type": "function"
    },
    {
      "inputs": [
        {
          "internalType": "address",
          "name": "account",
          "type": "address"
        }
      ],
      "name": "balanceOf",
      "outputs": [
        {
          "internalType": "uint256",
          "name": "",
          "type": "uint256"
        }
      ],
      "stateMutability": "view",
      "type": "function"
    },
    {
      "inputs": [
        {
          "internalType": "address",
          "name": "account",
          "type": "address"
        },
        {
          "internalType": "uint32",
          "name": "pos",
          "type": "uint32"
        }
      ],
      "name": "checkpoints",
      "outputs": [
        {
          "components": [
            {
              "internalType": "uint48",
              "name": "_key",
              "type": "uint48"
            },
            {
              "internalType": "uint208",
              "name": "_value",
              "type": "uint208"
            }
          ],
          "internalType": "struct Checkpoints.Checkpoint208",
          "name": "",
          "type": "tuple"
        }
      ],
      "stateMutability": "view",
      "type": "function"
    },
    {
      "inputs": [],
      "name": "clock",
      "outputs": [
        {
          "internalType": "uint48",
          "name": "",
          "type": "uint48"
        }
      ],
      "stateMutability": "view",
      "type": "function"
    },
    {
      "inputs": [],
      "name": "decimals",
      "outputs": [
        {
          "internalType": "uint8",
          "name": "",
          "type": "uint8"
        }
      ],
      "stateMutability": "view",
      "type": "function"
    },
    {
      "inputs": [
        {
          "internalType": "address",
          "name": "delegatee",
          "type": "address"
        }
      ],
      "name": "delegate",
      "outputs": [],
      "stateMutability": "nonpayable",
      "type": "function"
    },
    {
      "inputs": [
        {
          "internalType": "address",
          "name": "delegatee",
          "type": "address"
        },
        {
          "internalType": "uint256",
          "name": "nonce",
          "type": "uint256"
        },
        {
          "internalType": "uint256",
          "name": "expiry",
          "type": "uint256"
        },
        {
          "internalType": "uint8",
          "name": "v",
          "type": "uint8"
        },
        {
          "internalType": "bytes32",
          "name": "r",
          "type": "bytes32"
        },
        {
          "internalType": "bytes32",
          "name": "s",
          "type": "bytes32"
        }
      ],
      "name": "delegateBySig",
      "outputs": [],
      "stateMutability": "nonpayable",
      "type": "function"
    },
    {
      "inputs": [
        {
          "internalType": "address",
          "name": "account",
          "type": "address"
        }
      ],
      "name": "delegates",
      "outputs": [
        {
          "internalType": "address",
          "name": "",
          "type": "address"
        }
      ],
      "stateMutability": "view",
      "type": "function"
    },
    {
      "inputs": [],
      "name": "eip712Domain",
      "outputs": [
        {
          "internalType": "bytes1",
          "name": "fields",
          "type": "bytes1"
        },
        {
          "internalType": "string",
          "name": "name",
          "type": "string"
        },
        {
          "internalType": "string",
          "name": "version",
          "type": "string"
        },
        {
          "internalType": "uint256",
          "name": "chainId",
          "type": "uint256"
        },
        {
          "internalType": "address",
          "name": "verifyingContract",
          "type": "address"
        },
        {
          "internalType": "bytes32",
          "name": "salt",
          "type": "bytes32"
        },
        {
          "internalType": "uint256[]",
          "name": "extensions",
          "type": "uint256[]"
        }
      ],
      "stateMutability": "view",
      "type": "function"
    },
    {
      "inputs": [
        {
          "internalType": "uint256",
          "name": "timepoint",
          "type": "uint256"
        }
      ],
      "name": "getPastTotalSupply",
      "outputs": [
        {
          "internalType": "uint256",
          "name": "",
          "type": "uint256"
        }
      ],
      "stateMutability": "view",
      "type": "function"
    },
    {
      "inputs": [
        {
          "internalType": "address",
          "name": "account",
          "type": "address"
        },
        {
          "internalType": "uint256",
          "name": "timepoint",
          "type": "uint256"
        }
      ],
      "name": "getPastVotes",
      "outputs": [
        {
          "internalType": "uint256",
          "name": "",
          "type": "uint256"
        }
      ],
      "stateMutability": "view",
      "type": "function"
    },
    {
      "inputs": [
        {
          "internalType": "bytes32",
          "name": "role",
          "type": "bytes32"
        }
      ],
      "name": "getRoleAdmin",
      "outputs": [
        {
          "internalType": "bytes32",
          "name": "",
          "type": "bytes32"
        }
      ],
      "stateMutability": "view",
      "type": "function"
    },
    {
      "inputs": [
        {
          "internalType": "address",
          "name": "account",
          "type": "address"
        }
      ],
      "name": "getVotes",
      "outputs": [
        {
          "internalType": "uint256",
          "name": "",
          "type": "uint256"
        }
      ],
      "stateMutability": "view",
      "type": "function"
    },
    {
      "inputs": [
        {
          "internalType": "bytes32",
          "name": "role",
          "type": "bytes32"
        },
        {
          "internalType": "address",
          "name": "account",
          "type": "address"
        }
      ],
      "name": "grantRole",
      "outputs": [],
      "stateMutability": "nonpayable",
      "type": "function"
    },
    {
      "inputs": [
        {
          "internalType": "bytes32",
          "name": "role",
          "type": "bytes32"
        },
        {
          "internalType": "address",
          "name": "account",
          "type": "address"
        }
      ],
      "name": "hasRole",
      "outputs": [
        {
          "internalType": "bool",
          "name": "",
          "type": "bool"
        }
      ],
      "stateMutability": "view",
      "type": "function"
    },
    {
      "inputs": [],
      "name": "metadataHash",
      "outputs": [
        {
          "internalType": "string",
          "name": "",
          "type": "string"
        }
      ],
      "stateMutability": "view",
      "type": "function"
    },
    {
      "inputs": [],
      "name": "name",
      "outputs": [
        {
          "internalType": "string",
          "name": "",
          "type": "string"
        }
      ],
      "stateMutability": "view",
      "type": "function"
    },
    {
      "inputs": [
        {
          "internalType": "address",
          "name": "owner",
          "type": "address"
        }
      ],
      "name": "nonces",
      "outputs": [
        {
          "internalType": "uint256",
          "name": "",
          "type": "uint256"
        }
      ],
      "stateMutability": "view",
      "type": "function"
    },
    {
      "inputs": [
        {
          "internalType": "address",
          "name": "account",
          "type": "address"
        }
      ],
      "name": "numCheckpoints",
      "outputs": [
        {
          "internalType": "uint32",
          "name": "",
          "type": "uint32"
        }
      ],
      "stateMutability": "view",
      "type": "function"
    },
    {
      "inputs": [],
      "name": "paused",
      "outputs": [
        {
          "internalType": "bool",
          "name": "",
          "type": "bool"
        }
      ],
      "stateMutability": "view",
      "type": "function"
    },
    {
      "inputs": [
        {
          "internalType": "address",
          "name": "owner",
          "type": "address"
        },
        {
          "internalType": "address",
          "name": "spender",
          "type": "address"
        },
        {
          "internalType": "uint256",
          "name": "value",
          "type": "uint256"
        },
        {
          "internalType": "uint256",
          "name": "deadline",
          "type": "uint256"
        },
        {
          "internalType": "uint8",
          "name": "v",
          "type": "uint8"
        },
        {
          "internalType": "bytes32",
          "name": "r",
          "type": "bytes32"
        },
        {
          "internalType": "bytes32",
          "name": "s",
          "type": "bytes32"
        }
      ],
      "name": "permit",
      "outputs": [],
      "stateMutability": "nonpayable",
      "type": "function"
    },
    {
      "inputs": [],
      "name": "registry",
      "outputs": [
        {
          "internalType": "contract IIdentityRegistry",
          "name": "",
          "type": "address"
        }
      ],
      "stateMutability": "view",
      "type": "function"
    },
    {
      "inputs": [
        {
          "internalType": "bytes32",
          "name": "role",
          "type": "bytes32"
        },
        {
          "internalType": "address",
          "name": "callerConfirmation",
          "type": "address"
        }
      ],
      "name": "renounceRole",
      "outputs": [],
      "stateMutability": "nonpayable",
      "type": "function"
    },
    {
      "inputs": [
        {
          "internalType": "bytes32",
          "name": "role",
          "type": "bytes32"
        },
        {
          "internalType": "address",
          "name": "account",
          "type": "address"
        }
      ],
      "name": "revokeRole",
      "outputs": [],
      "stateMutability": "nonpayable",
      "type": "function"
    },
    {
      "inputs": [
        {
          "internalType": "string",
          "name": "newHash",
          "type": "string"
        }
      ],
      "name": "setMetadataHash",
      "outputs": [],
      "stateMutability": "nonpayable",
      "type": "function"
    },
    {
      "inputs": [
        {
          "internalType": "bytes4",
          "name": "interfaceId",
          "type": "bytes4"
        }
      ],
      "name": "supportsInterface",
      "outputs": [
        {
          "internalType": "bool",
          "name": "",
          "type": "bool"
        }
      ],
      "stateMutability": "view",
      "type": "function"
    },
    {
      "inputs": [],
      "name": "symbol",
      "outputs": [
        {
          "internalType": "string",
          "name": "",
          "type": "string"
        }
      ],
      "stateMutability": "view",
      "type": "function"
    },
    {
      "inputs": [],
      "name": "totalSupply",
      "outputs": [
        {
          "internalType": "uint256",
          "name": "",
          "type": "uint256"
        }
      ],
      "stateMutability": "view",
      "type": "function"
    },
    {
      "inputs": [
        {
          "internalType": "address",
          "name": "to",
          "type": "address"
        },
        {
          "internalType": "uint256",
          "name": "value",
          "type": "uint256"
        }
      ],
      "name": "transfer",
      "outputs": [
        {
          "internalType": "bool",
          "name": "",
          "type": "bool"
        }
      ],
      "stateMutability": "nonpayable",
      "type": "function"
    },
    {
      "inputs": [
        {
          "internalType": "address",
          "name": "from",
          "type": "address"
        },
        {
          "internalType": "address",
          "name": "to",
          "type": "address"
        },
        {
          "internalType": "uint256",
          "name": "value",
          "type": "uint256"
        }
      ],
      "name": "transferFrom",
      "outputs": [
        {
          "internalType": "bool",
          "name": "",
          "type": "bool"
        }
      ],
      "stateMutability": "nonpayable",
      "type": "function"
    },
    {
      "inputs": [],
      "name": "unpause",
      "outputs": [],
      "stateMutability": "nonpayable",
      "type": "function"
    }
  ],
  "bytecode": "0x610180604052348015610010575f5ffd5b5060405161343238038061343283398101604081905261002f91610ada565b6040805180820190915260018152603160f81b602082015287908190818960036100598382610c26565b5060046100668282610c26565b506100769150839050600561016f565b6101205261008581600661016f565b61014052815160208084019190912060e052815190820120610100524660a05261011160e05161010051604080517f8b73c3c69bb8fe3d512ecc4cf759cc79239f7b179b0ffacaa9a75d522b39400f60208201529081019290925260608201524660808201523060a08201525f9060c00160405160208183030381529060405280519060200120905090565b60805250503060c052506001600160a01b03831661016052600d6101358582610c26565b506101405f826101a1565b506101585f5160206133f25f395f51905f52836101a1565b506101638286610232565b50505050505050610de3565b5f60208351101561018a5761018383610273565b905061019b565b816101958482610c26565b5060ff90505b92915050565b5f6101ac83836102b0565b61022b575f838152600b602090815260408083206001600160a01b03861684529091529020805460ff191660011790556101e33390565b6001600160a01b0316826001600160a01b0316847f2f8788117e7eff1d82e926ec794901d17c78024a50270940304540a733656f0d60405160405180910390a450600161019b565b505f61019b565b6001600160a01b038216610264575f60405163ec442f0560e01b815260040161025b9190610ce0565b60405180910390fd5b61026f5f83836102da565b5050565b5f5f829050601f8151111561029d578260405163305a27a960e01b815260040161025b9190610cf4565b80516102a882610d29565b179392505050565b5f918252600b602090815260408084206001600160a01b0393909316845291905290205460ff1690565b600c5460ff16156102fe5760405163e779249560e01b815260040160405180910390fd5b6001600160a01b0383161580159061032a57506103285f5160206133f25f395f51905f52846102b0565b155b156103bc57610160516001600160a01b0316639d2cc6f1846040518263ffffffff1660e01b815260040161035e9190610ce0565b602060405180830381865afa158015610379573d5f5f3e3d5ffd5b505050506040513d601f19601f8201168201806040525081019061039d9190610d4c565b6103bc5782604051638a4e185960e01b815260040161025b9190610ce0565b6001600160a01b038216158015906103e857506103e65f5160206133f25f395f51905f52836102b0565b155b1561047a57610160516001600160a01b0316639d2cc6f1836040518263ffffffff1660e01b815260040161041c9190610ce0565b602060405180830381865afa158015610437573d5f5f3e3d5ffd5b505050506040513d601f19601f8201168201806040525081019061045b9190610d4c565b61047a5781604051638a4e185960e01b815260040161025b9190610ce0565b61048583838361048a565b505050565b6104958383836104f0565b6001600160a01b0383166104e5575f6104ad60025490565b90506001600160d01b03808211156104e257604051630e58ae9360e11b8152600481018390526024810182905260440161025b565b50505b610485838383610616565b6001600160a01b03831661051a578060025f82825461050f9190610d7f565b9091555061058a9050565b6001600160a01b0383165f908152602081905260409020548181101561056c5760405163391434e360e21b81526001600160a01b0385166004820152602481018290526044810183905260640161025b565b6001600160a01b0384165f9081526020819052604090209082900390555b6001600160a01b0382166105a6576002805482900390556105c4565b6001600160a01b0382165f9081526020819052604090208054820190555b816001600160a01b0316836001600160a01b03167fddf252ad1be2c89b69c2b068fc378daa952ba7f163c4a11628f55a4df523b3ef8360405161060991815260200190565b60405180910390a3505050565b6001600160a01b03831661064457610641600a610b3b61068860201b1761063c8461069a565b6106d1565b50505b6001600160a01b03821661066d5761066a600a610b466106ff60201b1761063c8461069a565b50505b6104856106798461070a565b6106828461070a565b83610727565b5f6106938284610d92565b9392505050565b5f6001600160d01b038211156106cd576040516306dfcc6560e41b815260d060048201526024810183905260440161025b565b5090565b5f806106f2426106ea6106e388610877565b868860201c565b8791906108be565b915091505b935093915050565b5f6106938284610db1565b6001600160a01b039081165f908152600860205260409020541690565b816001600160a01b0316836001600160a01b03161415801561074857505f81115b15610485576001600160a01b038316156107e0576001600160a01b0383165f9081526009602090815260408220829161078e91906106ff901b610b461761063c8661069a565b6001600160d01b031691506001600160d01b03169150846001600160a01b03165f5160206134125f395f51905f5283836040516107d5929190918252602082015260400190565b60405180910390a250505b6001600160a01b03821615610485576001600160a01b0382165f908152600960209081526040822082916108219190610688901b610b3b1761063c8661069a565b6001600160d01b031691506001600160d01b03169150836001600160a01b03165f5160206134125f395f51905f528383604051610868929190918252602082015260400190565b60405180910390a25050505050565b80545f9080156108b65761089d83610890600184610dd0565b5f91825260209091200190565b54660100000000000090046001600160d01b0316610693565b5f9392505050565b5f806106f285858582545f90819080156109c5575f6108e287610890600185610dd0565b805490915065ffffffffffff80821691660100000000000090046001600160d01b031690881682111561092857604051632520601d60e01b815260040160405180910390fd5b8765ffffffffffff168265ffffffffffff160361096457825465ffffffffffff1666010000000000006001600160d01b038916021783556109b7565b6040805180820190915265ffffffffffff808a1682526001600160d01b03808a1660208085019182528d54600181018f555f8f815291909120945191519092166601000000000000029216919091179101555b94508593506106f792505050565b50506040805180820190915265ffffffffffff80851682526001600160d01b0380851660208085019182528854600181018a555f8a81529182209551925190931666010000000000000291909316179201919091559050816106f7565b634e487b7160e01b5f52604160045260245ffd5b5f82601f830112610a45575f5ffd5b81516001600160401b03811115610a5e57610a5e610a22565b604051601f8201601f19908116603f011681016001600160401b0381118282101715610a8c57610a8c610a22565b604052818152838201602001851015610aa3575f5ffd5b8160208501602083015e5f918101602001919091529392505050565b80516001600160a01b0381168114610ad5575f5ffd5b919050565b5f5f5f5f5f5f5f60e0888a031215610af0575f5ffd5b87516001600160401b03811115610b05575f5ffd5b610b118a828b01610a36565b60208a015190985090506001600160401b03811115610b2e575f5ffd5b610b3a8a828b01610a36565b60408a015160608b0151919850965090506001600160401b03811115610b5e575f5ffd5b610b6a8a828b01610a36565b945050610b7960808901610abf565b9250610b8760a08901610abf565b9150610b9560c08901610abf565b905092959891949750929550565b600181811c90821680610bb757607f821691505b602082108103610bd557634e487b7160e01b5f52602260045260245ffd5b50919050565b601f82111561048557805f5260205f20601f840160051c81016020851015610c005750805b601f840160051c820191505b81811015610c1f575f8155600101610c0c565b5050505050565b81516001600160401b03811115610c3f57610c3f610a22565b610c5381610c4d8454610ba3565b84610bdb565b6020601f821160018114610c85575f8315610c6e5750848201515b5f19600385901b1c1916600184901b178455610c1f565b5f84815260208120601f198516915b82811015610cb45787850151825560209485019460019092019101610c94565b5084821015610cd157868401515f19600387901b60f8161c191681555b50505050600190811b01905550565b6001600160a01b0391909116815260200190565b602081525f82518060208401528060208501604085015e5f604082850101526040601f19601f83011684010191505092915050565b80516020808301519190811015610bd5575f1960209190910360031b1b16919050565b5f60208284031215610d5c575f5ffd5b81518015158114610693575f5ffd5b634e487b7160e01b5f52601160045260245ffd5b8082018082111561019b5761019b610d6b565b6001600160d01b03818116838216019081111561019b5761019b610d6b565b6001600160d01b03828116828216039081111561019b5761019b610d6b565b8181038181111561019b5761019b610d6b565b60805160a05160c05160e051610100516101205161014051610160516125a6610e4c5f395f818161036e0152818161130b01526113e601525f61109d01525f61107001525f610d7a01525f610d5201525f610cad01525f610cd701525f610d0101526125a65ff3fe608060405234801561000f575f5ffd5b50600436106101c0575f3560e01c806301dd21d3146101c457806301ffc9a7146101eb57806306fdde031461020e578063095ea7b31461022357806318160ddd1461023657806323b872dd1461023e578063248a9ca3146102515780632f2ff15d14610264578063313ce567146102795780633644e5151461028857806336568abe146102905780633a46b1a8146102a35780633f4ba83a146102b65780634bf5d7e9146102be57806354c99ee3146102e8578063587cde1e146102f05780635c19a95c146103105780635c975abb146103235780636fcfff451461032e57806370a08231146103565780637b103999146103695780637ecebe00146103905780637f301b83146103a357806384b0196e146103b65780638e539e8c146103d157806391d14854146103e457806391ddadf4146103f757806395d89b411461040d5780639ab24eb014610415578063a217fddf14610428578063a9059cbb1461042f578063c3cda52014610442578063c5a1d7f014610455578063d505accf1461045d578063d547741f14610470578063dd62ed3e14610483578063f1127ed814610496578063f36c8f5c146104d5575b5f5ffd5b6101d85f5160206125115f395f51905f5281565b6040519081526020015b60405180910390f35b6101fe6101f9366004611ed8565b6104e9565b60405190151581526020016101e2565b61021661051f565b6040516101e29190611f2d565b6101fe610231366004611f5a565b6105af565b6002546101d8565b6101fe61024c366004611f82565b6105c6565b6101d861025f366004611fbc565b6105e9565b610277610272366004611fd3565b6105fd565b005b604051601281526020016101e2565b6101d861061f565b61027761029e366004611fd3565b61062d565b6101d86102b1366004611f5a565b610665565b61027761069f565b60408051808201909152600e81526d06d6f64653d74696d657374616d760941b6020820152610216565b6102776106b4565b6103036102fe366004611ffd565b6106fe565b6040516101e29190612016565b61027761031e366004611ffd565b61071b565b600c5460ff166101fe565b61034161033c366004611ffd565b61072a565b60405163ffffffff90911681526020016101e2565b6101d8610364366004611ffd565b610734565b6103037f000000000000000000000000000000000000000000000000000000000000000081565b6101d861039e366004611ffd565b61074e565b6102776103b136600461203e565b610758565b6103be6107aa565b6040516101e297969594939291906120ee565b6101d86103df366004611fbc565b6107ec565b6101fe6103f2366004611fd3565b610810565b60405165ffffffffffff421681526020016101e2565b61021661083a565b6101d8610423366004611ffd565b610849565b6101d85f81565b6101fe61043d366004611f5a565b610869565b610277610450366004612194565b610876565b610216610937565b61027761046b3660046121e8565b6109c3565b61027761047e366004611fd3565b610adc565b6101d861049136600461224e565b610af8565b6104a96104a4366004612276565b610b22565b60408051825165ffffffffffff1681526020928301516001600160d01b031692810192909252016101e2565b6101d85f5160206125315f395f51905f5281565b5f6001600160e01b03198216637965db0b60e01b148061051957506301ffc9a760e01b6001600160e01b03198316145b92915050565b60606003805461052e906122b3565b80601f016020809104026020016040519081016040528092919081815260200182805461055a906122b3565b80156105a55780601f1061057c576101008083540402835291602001916105a5565b820191905f5260205f20905b81548152906001019060200180831161058857829003601f168201915b5050505050905090565b5f336105bc818585610b51565b5060019392505050565b5f336105d3858285610b5e565b6105de858585610ba9565b506001949350505050565b5f908152600b602052604090206001015490565b610606826105e9565b61060f81610c06565b6106198383610c10565b50505050565b5f610628610ca1565b905090565b6001600160a01b03811633146106565760405163334bd91960e11b815260040160405180910390fd5b6106608282610dca565b505050565b5f61068f61067283610e35565b6001600160a01b0385165f90815260096020526040902090610e79565b6001600160d01b03169392505050565b5f6106a981610c06565b6106b1610f29565b50565b5f5160206125315f395f51905f526106cb81610c06565b6106d3610f75565b6040517f077dee4552d53bbd8425dd8742d47ce51f1308213047424291250d1ecb68bed7905f90a150565b6001600160a01b039081165f908152600860205260409020541690565b336107268183610fb2565b5050565b5f6105198261102b565b6001600160a01b03165f9081526020819052604090205490565b5f6105198261104c565b5f61076281610c06565b600d61076e8382612336565b507f1c306e70c05992619e2128ad1ef88df75f36c9476282e59f51401b2abaa42e4e8260405161079e9190611f2d565b60405180910390a15050565b5f6060805f5f5f60606107bb611069565b6107c3611096565b604080515f80825260208201909252600f60f81b9b939a50919850469750309650945092509050565b5f6108016107f983610e35565b600a90610e79565b6001600160d01b031692915050565b5f918252600b602090815260408084206001600160a01b0393909316845291905290205460ff1690565b60606004805461052e906122b3565b6001600160a01b0381165f908152600960205260408120610801906110c3565b5f336105bc818585610ba9565b8342111561089f57604051632341d78760e11b8152600481018590526024015b60405180910390fd5b604080517fe48329057bfd03d55e49b547132e39cffd9c1820ad7b9d4c5307691425d15adf60208201526001600160a01b0388169181019190915260608101869052608081018590525f90610918906109109060a001604051602081830303815290604052805190602001206110fa565b858585611126565b90506109248187611152565b61092e8188610fb2565b50505050505050565b600d8054610944906122b3565b80601f0160208091040260200160405190810160405280929190818152602001828054610970906122b3565b80156109bb5780601f10610992576101008083540402835291602001916109bb565b820191905f5260205f20905b81548152906001019060200180831161099e57829003601f168201915b505050505081565b834211156109e75760405163313c898160e11b815260048101859052602401610896565b5f7f6e71edae12b1b97f4d1f60370fef10105fa2faae0126114a169c64845d6126c9888888610a158c611182565b6040805160208101969096526001600160a01b0394851690860152929091166060840152608083015260a082015260c0810186905260e0016040516020818303038152906040528051906020012090505f610a6f826110fa565b90505f610a7e82878787611126565b9050896001600160a01b0316816001600160a01b031614610ac5576040516325c0072360e11b81526001600160a01b0380831660048301528b166024820152604401610896565b610ad08a8a8a610b51565b50505050505050505050565b610ae5826105e9565b610aee81610c06565b6106198383610dca565b6001600160a01b039182165f90815260016020908152604080832093909416825291909152205490565b610b2a611ec2565b610b3483836111a4565b9392505050565b5f610b348284612404565b5f610b348284612423565b61066083838360016111cd565b5f610b698484610af8565b90505f198110156106195781811015610b9b57828183604051637dc7a0d960e11b815260040161089693929190612442565b61061984848484035f6111cd565b6001600160a01b038316610bd2575f604051634b637e8f60e11b81526004016108969190612016565b6001600160a01b038216610bfb575f60405163ec442f0560e01b81526004016108969190612016565b61066083838361129f565b6106b18133611484565b5f610c1b8383610810565b610c9a575f838152600b602090815260408083206001600160a01b03861684529091529020805460ff19166001179055610c523390565b6001600160a01b0316826001600160a01b0316847f2f8788117e7eff1d82e926ec794901d17c78024a50270940304540a733656f0d60405160405180910390a4506001610519565b505f610519565b5f306001600160a01b037f000000000000000000000000000000000000000000000000000000000000000016148015610cf957507f000000000000000000000000000000000000000000000000000000000000000046145b15610d2357507f000000000000000000000000000000000000000000000000000000000000000090565b610628604080517f8b73c3c69bb8fe3d512ecc4cf759cc79239f7b179b0ffacaa9a75d522b39400f60208201527f0000000000000000000000000000000000000000000000000000000000000000918101919091527f000000000000000000000000000000000000000000000000000000000000000060608201524660808201523060a08201525f9060c00160405160208183030381529060405280519060200120905090565b5f610dd58383610810565b15610c9a575f838152600b602090815260408083206001600160a01b0386168085529252808320805460ff1916905551339286917ff6391f5c32d9c69d2a47ea670b442974b53935d1edc7fd64eb21e047a839171b9190a4506001610519565b5f4265ffffffffffff81168310610e7057604051637669fc0f60e11b81526004810184905265ffffffffffff82166024820152604401610896565b610b34836114af565b81545f9081816005811115610ed5575f610e92846114e0565b610e9c9085612463565b5f8881526020902090915081015465ffffffffffff9081169087161015610ec557809150610ed3565b610ed0816001612476565b92505b505b5f610ee287878585611632565b90508015610f1c57610f0687610ef9600184612463565b5f91825260209091200190565b54600160301b90046001600160d01b0316610f1e565b5f5b979650505050505050565b610f31611688565b600c805460ff191690557f5db9ee0a495bf2e6ff9c91a7834c1ba4fdd244a5e8aa4e537bd38aeae4b073aa335b604051610f6b9190612016565b60405180910390a1565b610f7d6116ad565b600c805460ff191660011790557f62e78cea01bee320cd4e420270b5ea74000d11b0c9f74754ebdbfc544b05a258610f5e3390565b5f610fbc836106fe565b6001600160a01b038481165f8181526008602052604080822080546001600160a01b031916888616908117909155905194955093928516927f3134e8a2e6d97e929a7e54011ea5485d7d196dd5f0ba4d4ef95803e8e3fc257f9190a46106608183611026866116d1565b6116db565b6001600160a01b0381165f908152600960205260408120546105199061181e565b6001600160a01b0381165f90815260076020526040812054610519565b60606106287f00000000000000000000000000000000000000000000000000000000000000006005611849565b60606106287f00000000000000000000000000000000000000000000000000000000000000006006611849565b80545f9080156110f2576110dc83610ef9600184612463565b54600160301b90046001600160d01b0316610b34565b5f9392505050565b5f610519611106610ca1565b8360405161190160f01b8152600281019290925260228201526042902090565b5f5f5f5f611136888888886118f2565b92509250925061114682826119b0565b50909695505050505050565b5f61115c83611182565b90508082146106605782816040516301d4b62360e61b8152600401610896929190612489565b6001600160a01b03165f90815260076020526040902080546001810190915590565b6111ac611ec2565b6001600160a01b0383165f908152600960205260409020610b349083611a68565b6001600160a01b0384166111f6575f60405163e602df0560e01b81526004016108969190612016565b6001600160a01b03831661121f575f604051634a1406b160e11b81526004016108969190612016565b6001600160a01b038085165f908152600160209081526040808320938716835292905220829055801561061957826001600160a01b0316846001600160a01b03167f8c5be1e5ebec7d5bd14f71427d1e84f3dd0314c0f7b2291e5b200ac8c7c3b9258460405161129191815260200190565b60405180910390a350505050565b600c5460ff16156112c35760405163e779249560e01b815260040160405180910390fd5b6001600160a01b038316158015906112ef57506112ed5f5160206125115f395f51905f5284610810565b155b1561139e57604051639d2cc6f160e01b81526001600160a01b037f00000000000000000000000000000000000000000000000000000000000000001690639d2cc6f190611340908690600401612016565b602060405180830381865afa15801561135b573d5f5f3e3d5ffd5b505050506040513d601f19601f8201168201806040525081019061137f91906124a2565b61139e5782604051638a4e185960e01b81526004016108969190612016565b6001600160a01b038216158015906113ca57506113c85f5160206125115f395f51905f5283610810565b155b1561147957604051639d2cc6f160e01b81526001600160a01b037f00000000000000000000000000000000000000000000000000000000000000001690639d2cc6f19061141b908590600401612016565b602060405180830381865afa158015611436573d5f5f3e3d5ffd5b505050506040513d601f19601f8201168201806040525081019061145a91906124a2565b6114795781604051638a4e185960e01b81526004016108969190612016565b610660838383611aca565b61148e8282610810565b61072657808260405163e2517d3f60e01b8152600401610896929190612489565b5f65ffffffffffff8211156114dc576030826040516306dfcc6560e41b81526004016108969291906124c1565b5090565b5f600182116114ed575090565b816001600160801b82106115065760809190911c9060401b5b600160401b821061151c5760409190911c9060201b5b600160201b82106115325760209190911c9060101b5b6201000082106115475760109190911c9060081b5b610100821061155b5760089190911c9060041b5b6010821061156e5760049190911c9060021b5b6004821061157a5760011b5b600302600190811c90818581611592576115926124d4565b048201901c905060018185816115aa576115aa6124d4565b048201901c905060018185816115c2576115c26124d4565b048201901c905060018185816115da576115da6124d4565b048201901c905060018185816115f2576115f26124d4565b048201901c9050600181858161160a5761160a6124d4565b048201901c9050611629818581611623576116236124d4565b04821190565b90039392505050565b5f5b81831015611680575f85815260209020838316600285851804019081015465ffffffffffff8681169116111561166c5780925061167a565b611677816001612476565b93505b50611634565b509392505050565b600c5460ff166116ab57604051638dfc202b60e01b815260040160405180910390fd5b565b600c5460ff16156116ab5760405163d93c066560e01b815260040160405180910390fd5b5f61051982610734565b816001600160a01b0316836001600160a01b0316141580156116fc57505f81115b15610660576001600160a01b03831615611790576001600160a01b0383165f908152600960205260408120819061173e90610b4661173986611b30565b611b5e565b6001600160d01b031691506001600160d01b03169150846001600160a01b03165f5160206125515f395f51905f528383604051611785929190918252602082015260400190565b60405180910390a250505b6001600160a01b03821615610660576001600160a01b0382165f90815260096020526040812081906117c890610b3b61173986611b30565b6001600160d01b031691506001600160d01b03169150836001600160a01b03165f5160206125515f395f51905f52838360405161180f929190918252602082015260400190565b60405180910390a25050505050565b5f63ffffffff8211156114dc576020826040516306dfcc6560e41b81526004016108969291906124c1565b606060ff83146118635761185c83611b8f565b9050610519565b81805461186f906122b3565b80601f016020809104026020016040519081016040528092919081815260200182805461189b906122b3565b80156118e65780601f106118bd576101008083540402835291602001916118e6565b820191905f5260205f20905b8154815290600101906020018083116118c957829003601f168201915b50505050509050610519565b5f80806fa2a8918ca85bafe22016d0b997e4df60600160ff1b0384111561192157505f915060039050826119a6565b604080515f808252602082018084528a905260ff891692820192909252606081018790526080810186905260019060a0016020604051602081039080840390855afa158015611972573d5f5f3e3d5ffd5b5050604051601f1901519150506001600160a01b03811661199d57505f9250600191508290506119a6565b92505f91508190505b9450945094915050565b5f8260038111156119c3576119c36124e8565b036119cc575050565b60018260038111156119e0576119e06124e8565b036119fe5760405163f645eedf60e01b815260040160405180910390fd5b6002826003811115611a1257611a126124e8565b03611a335760405163fce698f760e01b815260048101829052602401610896565b6003826003811115611a4757611a476124e8565b03610726576040516335e2f38360e21b815260048101829052602401610896565b611a70611ec2565b825f018263ffffffff1681548110611a8a57611a8a6124fc565b5f9182526020918290206040805180820190915291015465ffffffffffff81168252600160301b90046001600160d01b0316918101919091529392505050565b611ad5838383611bcc565b6001600160a01b038316611b25575f611aed60025490565b90506001600160d01b0380821115611b2257604051630e58ae9360e11b81526004810183905260248101829052604401610896565b50505b610660838383611cdf565b5f6001600160d01b038211156114dc5760d0826040516306dfcc6560e41b81526004016108969291906124c1565b5f80611b8242611b7a611b70886110c3565b868863ffffffff16565b879190611d3e565b915091505b935093915050565b60605f611b9b83611d4b565b6040805160208082528183019092529192505f91906020820181803683375050509182525060208101929092525090565b6001600160a01b038316611bf6578060025f828254611beb9190612476565b90915550611c539050565b6001600160a01b0383165f9081526020819052604090205481811015611c355783818360405163391434e360e21b815260040161089693929190612442565b6001600160a01b0384165f9081526020819052604090209082900390555b6001600160a01b038216611c6f57600280548290039055611c8d565b6001600160a01b0382165f9081526020819052604090208054820190555b816001600160a01b0316836001600160a01b03167fddf252ad1be2c89b69c2b068fc378daa952ba7f163c4a11628f55a4df523b3ef83604051611cd291815260200190565b60405180910390a3505050565b6001600160a01b038316611d0157611cfe600a610b3b61173984611b30565b50505b6001600160a01b038216611d2357611d20600a610b4661173984611b30565b50505b610660611d2f846106fe565b611d38846106fe565b836116db565b5f80611b82858585611d72565b5f60ff8216601f81111561051957604051632cd44ac360e21b815260040160405180910390fd5b82545f9081908015611e68575f611d8e87610ef9600185612463565b805490915065ffffffffffff80821691600160301b90046001600160d01b0316908816821115611dd157604051632520601d60e01b815260040160405180910390fd5b8765ffffffffffff168265ffffffffffff1603611e0a57825465ffffffffffff16600160301b6001600160d01b03891602178355611e5a565b6040805180820190915265ffffffffffff808a1682526001600160d01b03808a1660208085019182528d54600181018f555f8f81529190912094519151909216600160301b029216919091179101555b9450859350611b8792505050565b50506040805180820190915265ffffffffffff80851682526001600160d01b0380851660208085019182528854600181018a555f8a815291822095519251909316600160301b029190931617920191909155905081611b87565b604080518082019091525f808252602082015290565b5f60208284031215611ee8575f5ffd5b81356001600160e01b031981168114610b34575f5ffd5b5f81518084528060208401602086015e5f602082860101526020601f19601f83011685010191505092915050565b602081525f610b346020830184611eff565b80356001600160a01b0381168114611f55575f5ffd5b919050565b5f5f60408385031215611f6b575f5ffd5b611f7483611f3f565b946020939093013593505050565b5f5f5f60608486031215611f94575f5ffd5b611f9d84611f3f565b9250611fab60208501611f3f565b929592945050506040919091013590565b5f60208284031215611fcc575f5ffd5b5035919050565b5f5f60408385031215611fe4575f5ffd5b82359150611ff460208401611f3f565b90509250929050565b5f6020828403121561200d575f5ffd5b610b3482611f3f565b6001600160a01b0391909116815260200190565b634e487b7160e01b5f52604160045260245ffd5b5f6020828403121561204e575f5ffd5b81356001600160401b03811115612063575f5ffd5b8201601f81018413612073575f5ffd5b80356001600160401b0381111561208c5761208c61202a565b604051601f8201601f19908116603f011681016001600160401b03811182821017156120ba576120ba61202a565b6040528181528282016020018610156120d1575f5ffd5b816020840160208301375f91810160200191909152949350505050565b60ff60f81b8816815260e060208201525f61210c60e0830189611eff565b828103604084015261211e8189611eff565b606084018890526001600160a01b038716608085015260a0840186905283810360c0850152845180825260208087019350909101905f5b81811015612173578351835260209384019390920191600101612155565b50909b9a5050505050505050505050565b803560ff81168114611f55575f5ffd5b5f5f5f5f5f5f60c087890312156121a9575f5ffd5b6121b287611f3f565b955060208701359450604087013593506121ce60608801612184565b9598949750929560808101359460a0909101359350915050565b5f5f5f5f5f5f5f60e0888a0312156121fe575f5ffd5b61220788611f3f565b965061221560208901611f3f565b9550604088013594506060880135935061223160808901612184565b9699959850939692959460a0840135945060c09093013592915050565b5f5f6040838503121561225f575f5ffd5b61226883611f3f565b9150611ff460208401611f3f565b5f5f60408385031215612287575f5ffd5b61229083611f3f565b9150602083013563ffffffff811681146122a8575f5ffd5b809150509250929050565b600181811c908216806122c757607f821691505b6020821081036122e557634e487b7160e01b5f52602260045260245ffd5b50919050565b601f82111561066057805f5260205f20601f840160051c810160208510156123105750805b601f840160051c820191505b8181101561232f575f815560010161231c565b5050505050565b81516001600160401b0381111561234f5761234f61202a565b6123638161235d84546122b3565b846122eb565b6020601f821160018114612395575f831561237e5750848201515b5f19600385901b1c1916600184901b17845561232f565b5f84815260208120601f198516915b828110156123c457878501518255602094850194600190920191016123a4565b50848210156123e157868401515f19600387901b60f8161c191681555b50505050600190811b01905550565b634e487b7160e01b5f52601160045260245ffd5b6001600160d01b038181168382160190811115610519576105196123f0565b6001600160d01b038281168282160390811115610519576105196123f0565b6001600160a01b039390931683526020830191909152604082015260600190565b81810381811115610519576105196123f0565b80820180821115610519576105196123f0565b6001600160a01b03929092168252602082015260400190565b5f602082840312156124b2575f5ffd5b81518015158114610b34575f5ffd5b60ff929092168252602082015260400190565b634e487b7160e01b5f52601260045260245ffd5b634e487b7160e01b5f52602160045260245ffd5b634e487b7160e01b5f52603260045260245ffdfe218b5e66cced24f2a17771679618c7a56b8ed44bd3381ca61dd4e1b57743f5b871840dc4906352362b0cdaf79870196c8e42acafade72d5d5a6d59291253ceb1dec2bacdd2f05b59de34da9b523dff8be42e5e38e818c82fdb0bae774387a724a2646970667358221220e04d84860cab99962a131bad2057ce715bb84a6b1abf7431cd0d1baab9d1cc9a64736f6c634300081c0033218b5e66cced24f2a17771679618c7a56b8ed44bd3381ca61dd4e1b57743f5b8dec2bacdd2f05b59de34da9b523dff8be42e5e38e818c82fdb0bae774387a724",
  "linkReferences": {},
  "deployedLinkReferences": {},
  "immutableReferences": {
    "5523": [
      {
        "length": 32,
        "start": 3329
      }
    ],
    "5525": [
      {
        "length": 32,
        "start": 3287
      }
    ],
    "5527": [
      {
        "length": 32,
        "start": 3245
      }
    ],
    "5529": [
      {
        "length": 32,
        "start": 3410
      }
    ],
    "5531": [
      {
        "length": 32,
        "start": 3450
      }
    ],
    "5534": [
      {
        "length": 32,
        "start": 4208
      }
    ],
    "5537": [
      {
        "length": 32,
        "start": 4253
      }
    ],
    "11919": [
      {
        "length": 32,
        "start": 878
      },
      {
        "length": 32,
        "start": 4875
      },
      {
        "length": 32,
        "start": 5094
      }
    ]
  },
  "inputSourceName": "project/contracts/RemzikAssetToken.sol",
  "buildInfoId": "solc-0_8_28-0b67f825bcaeed5d2d1da442ba6c8c40e424868e"
}