{
  "_format": "hh3-artifact-1",
  "contractName": "RemzikMarketplace",
  "sourceName": "contracts/RemzikMarketplace.sol",
  "abi": [
    {
      "inputs": [
        {
          "internalType": "address",
          "name": "_registry",
          "type": "address"
        }
      ],
      "stateMutability": "nonpayable",
      "type": "constructor"
    },
    {
      "inputs": [
        {
          "internalType": "address",
          "name": "owner",
          "type": "address"
        }
      ],
      "name": "OwnableInvalidOwner",
      "type": "error"
    },
    {
      "inputs": [
        {
          "internalType": "address",
          "name": "account",
          "type": "address"
        }
      ],
      "name": "OwnableUnauthorizedAccount",
      "type": "error"
    },
    {
      "inputs": [],
      "name": "ReentrancyGuardReentrantCall",
      "type": "error"
    },
    {
      "anonymous": false,
      "inputs": [
        {
          "indexed": true,
          "internalType": "string",
          "name": "listingId",
          "type": "string"
        },
        {
          "indexed": true,
          "internalType": "address",
          "name": "seller",
          "type": "address"
        }
      ],
      "name": "ListingCancelled",
      "type": "event"
    },
    {
      "anonymous": false,
      "inputs": [
        {
          "indexed": true,
          "internalType": "string",
          "name": "listingId",
          "type": "string"
        },
        {
          "indexed": true,
          "internalType": "address",
          "name": "seller",
          "type": "address"
        },
        {
          "indexed": false,
          "internalType": "address",
          "name": "token",
          "type": "address"
        },
        {
          "indexed": false,
          "internalType": "uint256",
          "name": "amount",
          "type": "uint256"
        }
      ],
      "name": "ListingCreated",
      "type": "event"
    },
    {
      "anonymous": false,
      "inputs": [
        {
          "indexed": true,
          "internalType": "address",
          "name": "previousOwner",
          "type": "address"
        },
        {
          "indexed": true,
          "internalType": "address",
          "name": "newOwner",
          "type": "address"
        }
      ],
      "name": "OwnershipTransferred",
      "type": "event"
    },
    {
      "anonymous": false,
      "inputs": [
        {
          "indexed": true,
          "internalType": "bytes32",
          "name": "txId",
          "type": "bytes32"
        },
        {
          "indexed": true,
          "internalType": "address",
          "name": "seller",
          "type": "address"
        },
        {
          "indexed": true,
          "internalType": "address",
          "name": "buyer",
          "type": "address"
        },
        {
          "indexed": false,
          "internalType": "address",
          "name": "token",
          "type": "address"
        },
        {
          "indexed": false,
          "internalType": "uint256",
          "name": "amount",
          "type": "uint256"
        },
        {
          "indexed": false,
          "internalType": "uint256",
          "name": "price",
          "type": "uint256"
        }
      ],
      "name": "TradeExecuted",
      "type": "event"
    },
    {
      "inputs": [
        {
          "internalType": "string",
          "name": "listingId",
          "type": "string"
        }
      ],
      "name": "cancelListing",
      "outputs": [],
      "stateMutability": "nonpayable",
      "type": "function"
    },
    {
      "inputs": [
        {
          "internalType": "string",
          "name": "listingId",
          "type": "string"
        },
        {
          "internalType": "address",
          "name": "token",
          "type": "address"
        },
        {
          "internalType": "uint256",
          "name": "amount",
          "type": "uint256"
        }
      ],
      "name": "createListing",
      "outputs": [],
      "stateMutability": "nonpayable",
      "type": "function"
    },
    {
      "inputs": [
        {
          "internalType": "string",
          "name": "listingId",
          "type": "string"
        },
        {
          "internalType": "uint256",
          "name": "price",
          "type": "uint256"
        }
      ],
      "name": "executeTrade",
      "outputs": [
        {
          "internalType": "bytes32",
          "name": "",
          "type": "bytes32"
        }
      ],
      "stateMutability": "nonpayable",
      "type": "function"
    },
    {
      "inputs": [
        {
          "internalType": "string",
          "name": "listingId",
          "type": "string"
        }
      ],
      "name": "isListingActive",
      "outputs": [
        {
          "internalType": "bool",
          "name": "",
          "type": "bool"
        }
      ],
      "stateMutability": "view",
      "type": "function"
    },
    {
      "inputs": [
        {
          "internalType": "string",
          "name": "",
          "type": "string"
        }
      ],
      "name": "listings",
      "outputs": [
        {
          "internalType": "address",
          "name": "seller",
          "type": "address"
        },
        {
          "internalType": "address",
          "name": "token",
          "type": "address"
        },
        {
          "internalType": "uint256",
          "name": "amount",
          "type": "uint256"
        },
        {
          "internalType": "bool",
          "name": "active",
          "type": "bool"
        }
      ],
      "stateMutability": "view",
      "type": "function"
    },
    {
      "inputs": [],
      "name": "owner",
      "outputs": [
        {
          "internalType": "address",
          "name": "",
          "type": "address"
        }
      ],
      "stateMutability": "view",
      "type": "function"
    },
    {
      "inputs": [],
      "name": "registry",
      "outputs": [
        {
          "internalType": "contract IIdentityRegistry",
          "name": "",
          "type": "address"
        }
      ],
      "stateMutability": "view",
      "type": "function"
    },
    {
      "inputs": [],
      "name": "renounceOwnership",
      "outputs": [],
      "stateMutability": "nonpayable",
      "type": "function"
    },
    {
      "inputs": [
        {
          "internalType": "address",
          "name": "newOwner",
          "type": "address"
        }
      ],
      "name": "transferOwnership",
      "outputs": [],
      "stateMutability": "nonpayable",
      "type": "function"
    }
  ],
  "bytecode": "0x60a060405234801561000f575f5ffd5b50604051610e1e380380610e1e83398101604081905261002e91610138565b338061005457604051631e4fbdf760e01b81525f60048201526024015b60405180910390fd5b61005d816100e9565b5060017f9b779b17422d0df92223018b32b4d1fa46e071723d6817e2486d003becc55f00556001600160a01b0381166100d85760405162461bcd60e51b815260206004820152601f60248201527f52656769737472792063616e6e6f74206265207a65726f206164647265737300604482015260640161004b565b6001600160a01b0316608052610165565b5f80546001600160a01b038381166001600160a01b0319831681178455604051919092169283917f8be0079c531659141344cd1fd0a4f28419497f9722a3daafe3b4186f6b6457e09190a35050565b5f60208284031215610148575f5ffd5b81516001600160a01b038116811461015e575f5ffd5b9392505050565b608051610c9a6101845f395f818161014b015261061b0152610c9a5ff3fe608060405234801561000f575f5ffd5b5060043610610090575f3560e01c80638da5cb5b116100635780638da5cb5b14610185578063943f226114610195578063a7cee483146101a8578063dd003e57146101cb578063f2fde38b146101de575f5ffd5b8063715018a61461009457806375e2dafa1461009e57806377dec6c3146100c45780637b10399914610146575b5f5ffd5b61009c6101f1565b005b6100b16100ac3660046109f5565b610204565b6040519081526020015b60405180910390f35b6101196100d2366004610a51565b8051808201602090810180516001808352938301929094019190912092905281549082015460028301546003909301546001600160a01b0392831693919092169160ff1684565b604080516001600160a01b03958616815294909316602085015291830152151560608201526080016100bb565b61016d7f000000000000000000000000000000000000000000000000000000000000000081565b6040516001600160a01b0390911681526020016100bb565b5f546001600160a01b031661016d565b61009c6101a3366004610b04565b610402565b6101bb6101b6366004610b04565b61054b565b60405190151581526020016100bb565b61009c6101d9366004610b5e565b61057c565b61009c6101ec366004610bb6565b6108ae565b6101f96108eb565b6102025f610917565b565b5f61020d610966565b5f60018585604051610220929190610bcf565b908152604051908190036020019020600381015490915060ff166102805760405162461bcd60e51b81526020600482015260126024820152714c697374696e67206e6f742061637469766560701b60448201526064015b60405180910390fd5b80546001820154600283015460038401805460ff191690556040516323b872dd60e01b81526001600160a01b03938416600482018190523360248301526044820183905293909216915f9083906323b872dd906064016020604051808303815f875af11580156102f2573d5f5f3e3d5ffd5b505050506040513d601f19601f820116820180604052508101906103169190610bde565b90508061035d5760405162461bcd60e51b8152602060048201526015602482015274151bdad95b881d1c985b9cd9995c8819985a5b1959605a1b6044820152606401610277565b5f898933426040516020016103759493929190610bfd565b60408051601f1981840301815282825280516020918201206001600160a01b0388811685529184018790529183018b905290925033919087169083907f52fed4f67f015836c4ea05d004d9829b9e3dcd0572c232dc3448528a97aabd7c9060600160405180910390a4955050505050506103fb60015f516020610c455f395f51905f5255565b9392505050565b61040a610966565b5f6001838360405161041d929190610bcf565b908152604051908190036020019020600381015490915060ff1661047b5760405162461bcd60e51b81526020600482015260156024820152744c697374696e67206973206e6f742061637469766560581b6044820152606401610277565b80546001600160a01b031633148061049c57505f546001600160a01b031633145b6104d75760405162461bcd60e51b815260206004820152600c60248201526b155b985d5d1a1bdc9a5e995960a21b6044820152606401610277565b60038101805460ff1916905580546040516001600160a01b03909116906105019085908590610bcf565b604051908190038120907f0ad06290f905050c9dac577e139b4b450621b456073e716db7561a52f3ff8928905f90a35061054760015f516020610c455f395f51905f5255565b5050565b5f6001838360405161055e929190610bcf565b9081526040519081900360200190206003015460ff16905092915050565b610584610966565b5f6001600160a01b0316600185856040516105a0929190610bcf565b908152604051908190036020019020546001600160a01b0316146106065760405162461bcd60e51b815260206004820152601960248201527f4c697374696e6720494420616c726561647920657869737473000000000000006044820152606401610277565b604051639d2cc6f160e01b81523360048201527f00000000000000000000000000000000000000000000000000000000000000006001600160a01b031690639d2cc6f190602401602060405180830381865afa158015610668573d5f5f3e3d5ffd5b505050506040513d601f19601f8201168201806040525081019061068c9190610bde565b6106d85760405162461bcd60e51b815260206004820152601f60248201527f53656c6c6572206e6f7420766572696669656420696e207265676973747279006044820152606401610277565b604051636eb1769f60e11b815233600482015230602482015281906001600160a01b0384169063dd62ed3e90604401602060405180830381865afa158015610722573d5f5f3e3d5ffd5b505050506040513d601f19601f820116820180604052508101906107469190610c2d565b101561078d5760405162461bcd60e51b8152602060048201526016602482015275496e73756666696369656e7420616c6c6f77616e636560501b6044820152606401610277565b6040518060800160405280336001600160a01b03168152602001836001600160a01b0316815260200182815260200160011515815250600185856040516107d5929190610bcf565b9081526040805160209281900383018120845181546001600160a01b03199081166001600160a01b03928316178355948601516001830180549096169116179093559083015160028301556060909201516003909101805460ff191691151591909117905533906108499086908690610bcf565b604080519182900382206001600160a01b038616835260208301859052917f3fe94004cb7efd797871f0f795ec774626c187af942608124eb69bb2a56c7b24910160405180910390a36108a860015f516020610c455f395f51905f5255565b50505050565b6108b66108eb565b6001600160a01b0381166108df57604051631e4fbdf760e01b81525f6004820152602401610277565b6108e881610917565b50565b5f546001600160a01b031633146102025760405163118cdaa760e01b8152336004820152602401610277565b5f80546001600160a01b038381166001600160a01b0319831681178455604051919092169283917f8be0079c531659141344cd1fd0a4f28419497f9722a3daafe3b4186f6b6457e09190a35050565b61096e610981565b60025f516020610c455f395f51905f5255565b5f516020610c455f395f51905f525460020361020257604051633ee5aeb560e01b815260040160405180910390fd5b5f5f83601f8401126109c0575f5ffd5b50813567ffffffffffffffff8111156109d7575f5ffd5b6020830191508360208285010111156109ee575f5ffd5b9250929050565b5f5f5f60408486031215610a07575f5ffd5b833567ffffffffffffffff811115610a1d575f5ffd5b610a29868287016109b0565b909790965060209590950135949350505050565b634e487b7160e01b5f52604160045260245ffd5b5f60208284031215610a61575f5ffd5b813567ffffffffffffffff811115610a77575f5ffd5b8201601f81018413610a87575f5ffd5b803567ffffffffffffffff811115610aa157610aa1610a3d565b604051601f8201601f19908116603f0116810167ffffffffffffffff81118282101715610ad057610ad0610a3d565b604052818152828201602001861015610ae7575f5ffd5b816020840160208301375f91810160200191909152949350505050565b5f5f60208385031215610b15575f5ffd5b823567ffffffffffffffff811115610b2b575f5ffd5b610b37858286016109b0565b90969095509350505050565b80356001600160a01b0381168114610b59575f5ffd5b919050565b5f5f5f5f60608587031215610b71575f5ffd5b843567ffffffffffffffff811115610b87575f5ffd5b610b93878288016109b0565b9095509350610ba6905060208601610b43565b9396929550929360400135925050565b5f60208284031215610bc6575f5ffd5b6103fb82610b43565b818382375f9101908152919050565b5f60208284031215610bee575f5ffd5b815180151581146103fb575f5ffd5b8385823760609290921b6bffffffffffffffffffffffff1916919092019081526014810191909152603401919050565b5f60208284031215610c3d575f5ffd5b505191905056fe9b779b17422d0df92223018b32b4d1fa46e071723d6817e2486d003becc55f00a2646970667358221220e2f03a036101e4853138c8f80040f4207c9296c8fadf0876b53ba0426e0d729764736f6c634300081c0033",
  "linkReferences": {},
  "deployedLinkReferences": {},
  "immutableReferences": {
    "512": [
      {
        "length": 32,
        "start": 331
      },
      {
        "length": 32,
        "start": 1563
      }
    ]
  },
  "inputSourceName": "project/contracts/RemzikMarketplace.sol",
  "buildInfoId": "solc-0_8_28-76061e37171bdd70d01dc01cfad63fa96712059f"
}