{
  "_format": "hh3-artifact-1",
  "contractName": "RemzikMarketplace",
  "sourceName": "contracts/RemzikMarketplace.sol",
  "abi": [
    {
      "inputs": [
        {
          "internalType": "address",
          "name": "_registry",
          "type": "address"
        },
        {
          "internalType": "address",
          "name": "_priceOracle",
          "type": "address"
        }
      ],
      "stateMutability": "nonpayable",
      "type": "constructor"
    },
    {
      "inputs": [
        {
          "internalType": "address",
          "name": "owner",
          "type": "address"
        }
      ],
      "name": "OwnableInvalidOwner",
      "type": "error"
    },
    {
      "inputs": [
        {
          "internalType": "address",
          "name": "account",
          "type": "address"
        }
      ],
      "name": "OwnableUnauthorizedAccount",
      "type": "error"
    },
    {
      "inputs": [],
      "name": "ReentrancyGuardReentrantCall",
      "type": "error"
    },
    {
      "inputs": [
        {
          "internalType": "address",
          "name": "token",
          "type": "address"
        }
      ],
      "name": "SafeERC20FailedOperation",
      "type": "error"
    },
    {
      "anonymous": false,
      "inputs": [
        {
          "indexed": true,
          "internalType": "string",
          "name": "listingId",
          "type": "string"
        },
        {
          "indexed": true,
          "internalType": "address",
          "name": "seller",
          "type": "address"
        }
      ],
      "name": "ListingCancelled",
      "type": "event"
    },
    {
      "anonymous": false,
      "inputs": [
        {
          "indexed": true,
          "internalType": "string",
          "name": "listingId",
          "type": "string"
        },
        {
          "indexed": true,
          "internalType": "address",
          "name": "seller",
          "type": "address"
        },
        {
          "indexed": false,
          "internalType": "address",
          "name": "token",
          "type": "address"
        },
        {
          "indexed": false,
          "internalType": "uint256",
          "name": "amount",
          "type": "uint256"
        }
      ],
      "name": "ListingCreated",
      "type": "event"
    },
    {
      "anonymous": false,
      "inputs": [
        {
          "indexed": true,
          "internalType": "address",
          "name": "previousOwner",
          "type": "address"
        },
        {
          "indexed": true,
          "internalType": "address",
          "name": "newOwner",
          "type": "address"
        }
      ],
      "name": "OwnershipTransferred",
      "type": "event"
    },
    {
      "anonymous": false,
      "inputs": [
        {
          "indexed": true,
          "internalType": "string",
          "name": "listingId",
          "type": "string"
        },
        {
          "indexed": true,
          "internalType": "address",
          "name": "seller",
          "type": "address"
        },
        {
          "indexed": true,
          "internalType": "address",
          "name": "buyer",
          "type": "address"
        },
        {
          "indexed": false,
          "internalType": "uint256",
          "name": "amount",
          "type": "uint256"
        }
      ],
      "name": "TradeExecuted",
      "type": "event"
    },
    {
      "inputs": [
        {
          "internalType": "string",
          "name": "listingId",
          "type": "string"
        }
      ],
      "name": "cancelListing",
      "outputs": [],
      "stateMutability": "nonpayable",
      "type": "function"
    },
    {
      "inputs": [
        {
          "internalType": "string",
          "name": "listingId",
          "type": "string"
        },
        {
          "internalType": "address",
          "name": "token",
          "type": "address"
        },
        {
          "internalType": "uint256",
          "name": "amount",
          "type": "uint256"
        }
      ],
      "name": "createListing",
      "outputs": [],
      "stateMutability": "nonpayable",
      "type": "function"
    },
    {
      "inputs": [
        {
          "internalType": "string",
          "name": "listingId",
          "type": "string"
        }
      ],
      "name": "getListing",
      "outputs": [
        {
          "components": [
            {
              "internalType": "address",
              "name": "seller",
              "type": "address"
            },
            {
              "internalType": "address",
              "name": "token",
              "type": "address"
            },
            {
              "internalType": "uint256",
              "name": "amount",
              "type": "uint256"
            },
            {
              "internalType": "bool",
              "name": "active",
              "type": "bool"
            }
          ],
          "internalType": "struct RemzikMarketplace.Listing",
          "name": "",
          "type": "tuple"
        }
      ],
      "stateMutability": "view",
      "type": "function"
    },
    {
      "inputs": [
        {
          "internalType": "string",
          "name": "",
          "type": "string"
        }
      ],
      "name": "listings",
      "outputs": [
        {
          "internalType": "address",
          "name": "seller",
          "type": "address"
        },
        {
          "internalType": "address",
          "name": "token",
          "type": "address"
        },
        {
          "internalType": "uint256",
          "name": "amount",
          "type": "uint256"
        },
        {
          "internalType": "bool",
          "name": "active",
          "type": "bool"
        }
      ],
      "stateMutability": "view",
      "type": "function"
    },
    {
      "inputs": [],
      "name": "owner",
      "outputs": [
        {
          "internalType": "address",
          "name": "",
          "type": "address"
        }
      ],
      "stateMutability": "view",
      "type": "function"
    },
    {
      "inputs": [],
      "name": "priceOracle",
      "outputs": [
        {
          "internalType": "contract IPriceOracle",
          "name": "",
          "type": "address"
        }
      ],
      "stateMutability": "view",
      "type": "function"
    },
    {
      "inputs": [],
      "name": "registry",
      "outputs": [
        {
          "internalType": "contract IIdentityRegistry",
          "name": "",
          "type": "address"
        }
      ],
      "stateMutability": "view",
      "type": "function"
    },
    {
      "inputs": [],
      "name": "renounceOwnership",
      "outputs": [],
      "stateMutability": "nonpayable",
      "type": "function"
    },
    {
      "inputs": [
        {
          "internalType": "string",
          "name": "listingId",
          "type": "string"
        },
        {
          "internalType": "address",
          "name": "seller",
          "type": "address"
        },
        {
          "internalType": "address",
          "name": "buyer",
          "type": "address"
        },
        {
          "internalType": "uint256",
          "name": "tradePrice",
          "type": "uint256"
        }
      ],
      "name": "settleTrade",
      "outputs": [],
      "stateMutability": "nonpayable",
      "type": "function"
    },
    {
      "inputs": [
        {
          "internalType": "address",
          "name": "newOwner",
          "type": "address"
        }
      ],
      "name": "transferOwnership",
      "outputs": [],
      "stateMutability": "nonpayable",
      "type": "function"
    },
    {
      "inputs": [
        {
          "internalType": "address",
          "name": "_newOracle",
          "type": "address"
        }
      ],
      "name": "updatePriceOracle",
      "outputs": [],
      "stateMutability": "nonpayable",
      "type": "function"
    }
  ],
  "bytecode": "0x60a060405234801561000f575f5ffd5b506040516112de3803806112de83398101604081905261002e916101c0565b338061005457604051631e4fbdf760e01b81525f60048201526024015b60405180910390fd5b61005d81610156565b5060017f9b779b17422d0df92223018b32b4d1fa46e071723d6817e2486d003becc55f00556001600160a01b0382166100d85760405162461bcd60e51b815260206004820152601f60248201527f52656769737472792063616e6e6f74206265207a65726f206164647265737300604482015260640161004b565b6001600160a01b03811661012e5760405162461bcd60e51b815260206004820152601d60248201527f4f7261636c652063616e6e6f74206265207a65726f2061646472657373000000604482015260640161004b565b6001600160a01b03918216608052600180546001600160a01b031916919092161790556101f1565b5f80546001600160a01b038381166001600160a01b0319831681178455604051919092169283917f8be0079c531659141344cd1fd0a4f28419497f9722a3daafe3b4186f6b6457e09190a35050565b80516001600160a01b03811681146101bb575f5ffd5b919050565b5f5f604083850312156101d1575f5ffd5b6101da836101a5565b91506101e8602084016101a5565b90509250929050565b6080516110ce6102105f395f81816101d3015261053801526110ce5ff3fe608060405234801561000f575f5ffd5b50600436106100a6575f3560e01c80637b1039991161006e5780637b103999146101ce5780638da5cb5b146101f5578063943f226114610205578063dd003e5714610218578063e8c7a8ff1461022b578063f2fde38b1461023e575f5ffd5b80632630c12f146100aa57806339d1fc82146100da5780634ae9ec30146100ef578063715018a61461014557806377dec6c31461014d575b5f5ffd5b6001546100bd906001600160a01b031681565b6040516001600160a01b0390911681526020015b60405180910390f35b6100ed6100e8366004610d76565b610251565b005b6101026100fd366004610ddb565b6102c8565b6040516100d1919081516001600160a01b039081168252602080840151909116908201526040808301519082015260609182015115159181019190915260800190565b6100ed610351565b6101a161015b366004610e2e565b80516020818301810180516002808352938301929094019190912092905281546001830154918301546003909301546001600160a01b0391821693919092169160ff1684565b604080516001600160a01b03958616815294909316602085015291830152151560608201526080016100d1565b6100bd7f000000000000000000000000000000000000000000000000000000000000000081565b5f546001600160a01b03166100bd565b6100ed610213366004610ddb565b610364565b6100ed610226366004610ee1565b6104a8565b6100ed610239366004610f39565b61086a565b6100ed61024c366004610d76565b610a48565b610259610a85565b6001600160a01b0381166102a65760405162461bcd60e51b815260206004820152600f60248201526e496e76616c6964206164647265737360881b60448201526064015b60405180910390fd5b600180546001600160a01b0319166001600160a01b0392909216919091179055565b604080516080810182525f80825260208201819052818301819052606082015290516002906102fa9085908590610fa1565b90815260408051918290036020908101832060808401835280546001600160a01b039081168552600182015416918401919091526002810154918301919091526003015460ff161515606082015290505b92915050565b610359610a85565b6103625f610ab1565b565b61036c610b00565b5f6002838360405161037f929190610fa1565b908152604051908190036020019020600381015490915060ff166103d85760405162461bcd60e51b815260206004820152601060248201526f4c697374696e6720696e61637469766560801b604482015260640161029d565b80546001600160a01b03163314806103f957505f546001600160a01b031633145b6104345760405162461bcd60e51b815260206004820152600c60248201526b155b985d5d1a1bdc9a5e995960a21b604482015260640161029d565b60038101805460ff1916905580546040516001600160a01b039091169061045e9085908590610fa1565b604051908190038120907f0ad06290f905050c9dac577e139b4b450621b456073e716db7561a52f3ff8928905f90a3506104a460015f5160206110795f395f51905f5255565b5050565b6104b0610b00565b5f6001600160a01b0316600285856040516104cc929190610fa1565b908152604051908190036020019020546001600160a01b0316146105235760405162461bcd60e51b815260206004820152600e60248201526d4c697374696e672065786973747360901b604482015260640161029d565b604051639d2cc6f160e01b81523360048201527f00000000000000000000000000000000000000000000000000000000000000006001600160a01b031690639d2cc6f190602401602060405180830381865afa158015610585573d5f5f3e3d5ffd5b505050506040513d601f19601f820116820180604052508101906105a99190610fb0565b6105eb5760405162461bcd60e51b815260206004820152601360248201527214d95b1b195c881b9bdd081d995c9a599a5959606a1b604482015260640161029d565b6040516370a0823160e01b815233600482015281906001600160a01b038416906370a0823190602401602060405180830381865afa15801561062f573d5f5f3e3d5ffd5b505050506040513d601f19601f820116820180604052508101906106539190610fcf565b10156106a15760405162461bcd60e51b815260206004820152601a60248201527f496e73756666696369656e7420746f6b656e2062616c616e6365000000000000604482015260640161029d565b604051636eb1769f60e11b815233600482015230602482015281906001600160a01b0384169063dd62ed3e90604401602060405180830381865afa1580156106eb573d5f5f3e3d5ffd5b505050506040513d601f19601f8201168201806040525081019061070f9190610fcf565b10156107565760405162461bcd60e51b8152602060048201526016602482015275496e73756666696369656e7420616c6c6f77616e636560501b604482015260640161029d565b604080516080810182523381526001600160a01b03841660208201528082018390526001606082015290516002906107919087908790610fa1565b9081526040805160209281900383018120845181546001600160a01b03199081166001600160a01b03928316178355948601516001830180549096169116179093559083015160028301556060909201516003909101805460ff191691151591909117905533906108059086908690610fa1565b604080519182900382206001600160a01b038616835260208301859052917f3fe94004cb7efd797871f0f795ec774626c187af942608124eb69bb2a56c7b24910160405180910390a361086460015f5160206110795f395f51905f5255565b50505050565b610872610b00565b61087a610a85565b5f6002868660405161088d929190610fa1565b908152604051908190036020019020600381015490915060ff166108e65760405162461bcd60e51b815260206004820152601060248201526f4c697374696e6720696e61637469766560801b604482015260640161029d565b80546001600160a01b038581169116146109345760405162461bcd60e51b815260206004820152600f60248201526e0a6cad8d8cae440dad2e6dac2e8c6d608b1b604482015260640161029d565b6001600160a01b03831661097a5760405162461bcd60e51b815260206004820152600d60248201526c24b73b30b634b210313abcb2b960991b604482015260640161029d565b60018101546002820154610999916001600160a01b0316908490610b1b565b60038101805460ff19169055600281015460018201546109c8916001600160a01b039091169086908690610c89565b826001600160a01b0316846001600160a01b031687876040516109ec929190610fa1565b60405190819003812060028501548252907f692d99dba2e31af789fdfbd066655c52590dac3e64f67a0bebf224dc8c1812999060200160405180910390a450610a4160015f5160206110795f395f51905f5255565b5050505050565b610a50610a85565b6001600160a01b038116610a7957604051631e4fbdf760e01b81525f600482015260240161029d565b610a8281610ab1565b50565b5f546001600160a01b031633146103625760405163118cdaa760e01b815233600482015260240161029d565b5f80546001600160a01b038381166001600160a01b0319831681178455604051919092169283917f8be0079c531659141344cd1fd0a4f28419497f9722a3daafe3b4186f6b6457e09190a35050565b610b08610cbf565b60025f5160206110795f395f51905f5255565b60015460405163395bad5560e11b81526001600160a01b0385811660048301525f9283929116906372b75aaa906024016040805180830381865afa158015610b65573d5f5f3e3d5ffd5b505050506040513d601f19601f82011682018060405250810190610b899190610fe6565b915091505f8311610bcd5760405162461bcd60e51b815260206004820152600e60248201526d125b9d985b1a5908185b5bdd5b9d60921b604482015260640161029d565b5f83610be186670de0b6b3a764000061101c565b610beb9190611033565b90505f610bf9606485611033565b90505f818511610c09575f610c13565b610c138286611052565b90505f610c208386611065565b9050818410158015610c325750808411155b610c7e5760405162461bcd60e51b815260206004820152601c60248201527f5072696365206f757473696465207065726d69747465642062616e6400000000604482015260640161029d565b505050505050505050565b610c97848484846001610cee565b61086457604051635274afe760e01b81526001600160a01b038516600482015260240161029d565b5f5160206110795f395f51905f525460020361036257604051633ee5aeb560e01b815260040160405180910390fd5b6040516323b872dd60e01b5f8181526001600160a01b038781166004528616602452604485905291602083606481808c5af1925060015f51148316610d4a578383151615610d3e573d5f823e3d81fd5b5f883b113d1516831692505b604052505f60605295945050505050565b80356001600160a01b0381168114610d71575f5ffd5b919050565b5f60208284031215610d86575f5ffd5b610d8f82610d5b565b9392505050565b5f5f83601f840112610da6575f5ffd5b50813567ffffffffffffffff811115610dbd575f5ffd5b602083019150836020828501011115610dd4575f5ffd5b9250929050565b5f5f60208385031215610dec575f5ffd5b823567ffffffffffffffff811115610e02575f5ffd5b610e0e85828601610d96565b90969095509350505050565b634e487b7160e01b5f52604160045260245ffd5b5f60208284031215610e3e575f5ffd5b813567ffffffffffffffff811115610e54575f5ffd5b8201601f81018413610e64575f5ffd5b803567ffffffffffffffff811115610e7e57610e7e610e1a565b604051601f8201601f19908116603f0116810167ffffffffffffffff81118282101715610ead57610ead610e1a565b604052818152828201602001861015610ec4575f5ffd5b816020840160208301375f91810160200191909152949350505050565b5f5f5f5f60608587031215610ef4575f5ffd5b843567ffffffffffffffff811115610f0a575f5ffd5b610f1687828801610d96565b9095509350610f29905060208601610d5b565b9396929550929360400135925050565b5f5f5f5f5f60808688031215610f4d575f5ffd5b853567ffffffffffffffff811115610f63575f5ffd5b610f6f88828901610d96565b9096509450610f82905060208701610d5b565b9250610f9060408701610d5b565b949793965091946060013592915050565b818382375f9101908152919050565b5f60208284031215610fc0575f5ffd5b81518015158114610d8f575f5ffd5b5f60208284031215610fdf575f5ffd5b5051919050565b5f5f60408385031215610ff7575f5ffd5b505080516020909101519092909150565b634e487b7160e01b5f52601160045260245ffd5b808202811582820484141761034b5761034b611008565b5f8261104d57634e487b7160e01b5f52601260045260245ffd5b500490565b8181038181111561034b5761034b611008565b8082018082111561034b5761034b61100856fe9b779b17422d0df92223018b32b4d1fa46e071723d6817e2486d003becc55f00a264697066735822122044a3f437f877ebaaea1646b8447952b8721813a1912c731adfc90355a775d9eb64736f6c634300081c0033",
  "linkReferences": {},
  "deployedLinkReferences": {},
  "immutableReferences": {
    "1085": [
      {
        "length": 32,
        "start": 467
      },
      {
        "length": 32,
        "start": 1336
      }
    ]
  },
  "inputSourceName": "project/contracts/RemzikMarketplace.sol",
  "buildInfoId": "solc-0_8_28-75c9ba48675fff9c297bbefb218d4d24ba99a305"
}