{
  "_format": "hh3-artifact-1",
  "contractName": "RemzikIdentityRegistry",
  "sourceName": "contracts/RemzikIdentityRegistry.sol",
  "abi": [
    {
      "inputs": [],
      "stateMutability": "nonpayable",
      "type": "constructor"
    },
    {
      "inputs": [],
      "name": "InvalidAddress",
      "type": "error"
    },
    {
      "inputs": [
        {
          "internalType": "address",
          "name": "caller",
          "type": "address"
        }
      ],
      "name": "UnauthorizedCaller",
      "type": "error"
    },
    {
      "anonymous": false,
      "inputs": [
        {
          "indexed": true,
          "internalType": "address",
          "name": "investor",
          "type": "address"
        },
        {
          "indexed": false,
          "internalType": "bool",
          "name": "isFrozen",
          "type": "bool"
        },
        {
          "indexed": true,
          "internalType": "address",
          "name": "authorizedBy",
          "type": "address"
        }
      ],
      "name": "IdentityFreezeToggled",
      "type": "event"
    },
    {
      "anonymous": false,
      "inputs": [
        {
          "indexed": true,
          "internalType": "address",
          "name": "investor",
          "type": "address"
        },
        {
          "indexed": false,
          "internalType": "bool",
          "name": "isVerified",
          "type": "bool"
        },
        {
          "indexed": true,
          "internalType": "address",
          "name": "authorizedBy",
          "type": "address"
        }
      ],
      "name": "IdentityUpdated",
      "type": "event"
    },
    {
      "anonymous": false,
      "inputs": [
        {
          "indexed": true,
          "internalType": "address",
          "name": "previousOwner",
          "type": "address"
        },
        {
          "indexed": true,
          "internalType": "address",
          "name": "newOwner",
          "type": "address"
        }
      ],
      "name": "OwnershipTransferred",
      "type": "event"
    },
    {
      "anonymous": false,
      "inputs": [
        {
          "indexed": true,
          "internalType": "address",
          "name": "wallet",
          "type": "address"
        },
        {
          "indexed": false,
          "internalType": "bool",
          "name": "status",
          "type": "bool"
        },
        {
          "indexed": true,
          "internalType": "address",
          "name": "authorizedBy",
          "type": "address"
        }
      ],
      "name": "SystemWalletUpdated",
      "type": "event"
    },
    {
      "inputs": [
        {
          "internalType": "address[]",
          "name": "investors",
          "type": "address[]"
        },
        {
          "internalType": "bool",
          "name": "status",
          "type": "bool"
        }
      ],
      "name": "batchRegisterIdentity",
      "outputs": [],
      "stateMutability": "nonpayable",
      "type": "function"
    },
    {
      "inputs": [
        {
          "internalType": "address",
          "name": "investor",
          "type": "address"
        }
      ],
      "name": "getIdentityState",
      "outputs": [
        {
          "internalType": "bool",
          "name": "verified",
          "type": "bool"
        },
        {
          "internalType": "bool",
          "name": "frozen",
          "type": "bool"
        }
      ],
      "stateMutability": "view",
      "type": "function"
    },
    {
      "inputs": [
        {
          "internalType": "address",
          "name": "investor",
          "type": "address"
        }
      ],
      "name": "isClearToTrade",
      "outputs": [
        {
          "internalType": "bool",
          "name": "",
          "type": "bool"
        }
      ],
      "stateMutability": "view",
      "type": "function"
    },
    {
      "inputs": [
        {
          "internalType": "address",
          "name": "",
          "type": "address"
        }
      ],
      "name": "isSystemWallet",
      "outputs": [
        {
          "internalType": "bool",
          "name": "",
          "type": "bool"
        }
      ],
      "stateMutability": "view",
      "type": "function"
    },
    {
      "inputs": [],
      "name": "owner",
      "outputs": [
        {
          "internalType": "address",
          "name": "",
          "type": "address"
        }
      ],
      "stateMutability": "view",
      "type": "function"
    },
    {
      "inputs": [
        {
          "internalType": "address",
          "name": "investor",
          "type": "address"
        },
        {
          "internalType": "bool",
          "name": "status",
          "type": "bool"
        }
      ],
      "name": "registerIdentity",
      "outputs": [],
      "stateMutability": "nonpayable",
      "type": "function"
    },
    {
      "inputs": [
        {
          "internalType": "address",
          "name": "wallet",
          "type": "address"
        },
        {
          "internalType": "bool",
          "name": "status",
          "type": "bool"
        }
      ],
      "name": "setSystemWallet",
      "outputs": [],
      "stateMutability": "nonpayable",
      "type": "function"
    },
    {
      "inputs": [
        {
          "internalType": "address",
          "name": "investor",
          "type": "address"
        },
        {
          "internalType": "bool",
          "name": "freezeStatus",
          "type": "bool"
        }
      ],
      "name": "toggleFreeze",
      "outputs": [],
      "stateMutability": "nonpayable",
      "type": "function"
    },
    {
      "inputs": [
        {
          "internalType": "address",
          "name": "newOwner",
          "type": "address"
        }
      ],
      "name": "transferOwnership",
      "outputs": [],
      "stateMutability": "nonpayable",
      "type": "function"
    }
  ],
  "bytecode": "0x6080604052348015600e575f5ffd5b505f80546001600160a01b03191633908117825580825260026020526040808320805460ff19166001179055519091907f8be0079c531659141344cd1fd0a4f28419497f9722a3daafe3b4186f6b6457e0908290a36107cc806100705f395ff3fe608060405234801561000f575f5ffd5b5060043610610080575f3560e01c8062438e5914610084578063146f9ab11461009957806336f7c81d146100ac5780638da5cb5b146100db5780638feaade4146100fa5780639c091b431461010d5780639d2cc6f114610120578063d79bdf9f14610143578063f2fde38b14610165575b5f5ffd5b61009761009236600461066a565b610178565b005b6100976100a73660046106fd565b6102bf565b6100bf6100ba36600461072e565b610374565b6040805192151583529015156020830152015b60405180910390f35b5f546100ed906001600160a01b031681565b6040516100d2919061074e565b6100976101083660046106fd565b6103e3565b61009761011b3660046106fd565b610497565b61013361012e36600461072e565b610531565b60405190151581526020016100d2565b61013361015136600461072e565b60026020525f908152604090205460ff1681565b61009761017336600461072e565b6105aa565b5f546001600160a01b031633146101ad573360405163d86ad9cf60e01b81526004016101a4919061074e565b60405180910390fd5b5f5b828110156102b9575f8484838181106101ca576101ca610762565b90506020020160208101906101df919061072e565b6001600160a01b0316036102065760405163e6c4247b60e01b815260040160405180910390fd5b8160015f86868581811061021c5761021c610762565b9050602002016020810190610231919061072e565b6001600160a01b0316815260208101919091526040015f20805460ff19169115159190911790553384848381811061026b5761026b610762565b9050602002016020810190610280919061072e565b6001600160a01b03165f5160206107775f395f51905f52846040516102a9911515815260200190565b60405180910390a36001016101af565b50505050565b5f546001600160a01b031633146102eb573360405163d86ad9cf60e01b81526004016101a4919061074e565b6001600160a01b0382166103125760405163e6c4247b60e01b815260040160405180910390fd5b6001600160a01b0382165f81815260026020908152604091829020805460ff191685151590811790915591519182523392917f4320e6f62981ab6e10a1bd6e9317347b850eab64340aa458e31fb1ef9d03ef6191015b60405180910390a35050565b6001600160a01b0381165f90815260026020526040812054819060ff16156103a157506001925f92509050565b50506001600160a01b03165f9081526001602090815260409182902082518084019093525460ff80821615158085526101009092041615159290910182905291565b5f546001600160a01b0316331461040f573360405163d86ad9cf60e01b81526004016101a4919061074e565b6001600160a01b0382166104365760405163e6c4247b60e01b815260040160405180910390fd5b6001600160a01b0382165f818152600160205260409081902080548415156101000261ff0019909116179055513391907fb97839daebcdc5b35650ab6356366e1d283861148edd2fe81428a599cdab88449061036890851515815260200190565b5f546001600160a01b031633146104c3573360405163d86ad9cf60e01b81526004016101a4919061074e565b6001600160a01b0382166104ea5760405163e6c4247b60e01b815260040160405180910390fd5b6001600160a01b0382165f81815260016020908152604091829020805460ff191685151590811790915591519182523392915f5160206107775f395f51905f529101610368565b6001600160a01b0381165f9081526002602052604081205460ff161561055957506001919050565b6001600160a01b0382165f9081526001602090815260409182902082518084019093525460ff8082161515845261010090910416158015918301919091526105a357505f92915050565b5192915050565b5f546001600160a01b031633146105d6573360405163d86ad9cf60e01b81526004016101a4919061074e565b6001600160a01b0381166105fd5760405163e6c4247b60e01b815260040160405180910390fd5b5f80546040516001600160a01b03808516939216917f8be0079c531659141344cd1fd0a4f28419497f9722a3daafe3b4186f6b6457e091a35f80546001600160a01b0319166001600160a01b0392909216919091179055565b80358015158114610665575f5ffd5b919050565b5f5f5f6040848603121561067c575f5ffd5b83356001600160401b03811115610691575f5ffd5b8401601f810186136106a1575f5ffd5b80356001600160401b038111156106b6575f5ffd5b8660208260051b84010111156106ca575f5ffd5b6020918201945092506106de908501610656565b90509250925092565b80356001600160a01b0381168114610665575f5ffd5b5f5f6040838503121561070e575f5ffd5b610717836106e7565b915061072560208401610656565b90509250929050565b5f6020828403121561073e575f5ffd5b610747826106e7565b9392505050565b6001600160a01b0391909116815260200190565b634e487b7160e01b5f52603260045260245ffdfe090a570f065f7190b8e3f67e64894fb769bb837d79cea112561cf182ee9b02a3a2646970667358221220e594b6cca149f632c829be4283bca6cba704c2184d44444982099790894d475b64736f6c634300081c0033",
  "linkReferences": {},
  "deployedLinkReferences": {},
  "immutableReferences": {},
  "inputSourceName": "project/contracts/RemzikIdentityRegistry.sol",
  "buildInfoId": "solc-0_8_28-ebcd0a4b76eed534b9bf85a705544d0f292acfb1"
}