{
  "_format": "hh3-artifact-1",
  "contractName": "RemzikMarketplace",
  "sourceName": "contracts/RemzikMarketplace.sol",
  "abi": [
    {
      "inputs": [
        {
          "internalType": "address",
          "name": "_registry",
          "type": "address"
        }
      ],
      "stateMutability": "nonpayable",
      "type": "constructor"
    },
    {
      "inputs": [
        {
          "internalType": "address",
          "name": "owner",
          "type": "address"
        }
      ],
      "name": "OwnableInvalidOwner",
      "type": "error"
    },
    {
      "inputs": [
        {
          "internalType": "address",
          "name": "account",
          "type": "address"
        }
      ],
      "name": "OwnableUnauthorizedAccount",
      "type": "error"
    },
    {
      "inputs": [],
      "name": "ReentrancyGuardReentrantCall",
      "type": "error"
    },
    {
      "anonymous": false,
      "inputs": [
        {
          "indexed": true,
          "internalType": "string",
          "name": "listingId",
          "type": "string"
        },
        {
          "indexed": true,
          "internalType": "address",
          "name": "seller",
          "type": "address"
        }
      ],
      "name": "ListingCancelled",
      "type": "event"
    },
    {
      "anonymous": false,
      "inputs": [
        {
          "indexed": true,
          "internalType": "string",
          "name": "listingId",
          "type": "string"
        },
        {
          "indexed": true,
          "internalType": "address",
          "name": "seller",
          "type": "address"
        },
        {
          "indexed": false,
          "internalType": "address",
          "name": "token",
          "type": "address"
        },
        {
          "indexed": false,
          "internalType": "uint256",
          "name": "amount",
          "type": "uint256"
        }
      ],
      "name": "ListingCreated",
      "type": "event"
    },
    {
      "anonymous": false,
      "inputs": [
        {
          "indexed": true,
          "internalType": "address",
          "name": "previousOwner",
          "type": "address"
        },
        {
          "indexed": true,
          "internalType": "address",
          "name": "newOwner",
          "type": "address"
        }
      ],
      "name": "OwnershipTransferred",
      "type": "event"
    },
    {
      "anonymous": false,
      "inputs": [
        {
          "indexed": true,
          "internalType": "string",
          "name": "listingId",
          "type": "string"
        },
        {
          "indexed": true,
          "internalType": "address",
          "name": "seller",
          "type": "address"
        },
        {
          "indexed": true,
          "internalType": "address",
          "name": "buyer",
          "type": "address"
        },
        {
          "indexed": false,
          "internalType": "uint256",
          "name": "amount",
          "type": "uint256"
        }
      ],
      "name": "TradeExecuted",
      "type": "event"
    },
    {
      "inputs": [
        {
          "internalType": "string",
          "name": "listingId",
          "type": "string"
        }
      ],
      "name": "cancelListing",
      "outputs": [],
      "stateMutability": "nonpayable",
      "type": "function"
    },
    {
      "inputs": [
        {
          "internalType": "string",
          "name": "listingId",
          "type": "string"
        },
        {
          "internalType": "address",
          "name": "token",
          "type": "address"
        },
        {
          "internalType": "uint256",
          "name": "amount",
          "type": "uint256"
        }
      ],
      "name": "createListing",
      "outputs": [],
      "stateMutability": "nonpayable",
      "type": "function"
    },
    {
      "inputs": [
        {
          "internalType": "string",
          "name": "listingId",
          "type": "string"
        }
      ],
      "name": "isListingActive",
      "outputs": [
        {
          "internalType": "bool",
          "name": "",
          "type": "bool"
        }
      ],
      "stateMutability": "view",
      "type": "function"
    },
    {
      "inputs": [
        {
          "internalType": "string",
          "name": "",
          "type": "string"
        }
      ],
      "name": "listings",
      "outputs": [
        {
          "internalType": "address",
          "name": "seller",
          "type": "address"
        },
        {
          "internalType": "address",
          "name": "token",
          "type": "address"
        },
        {
          "internalType": "uint256",
          "name": "amount",
          "type": "uint256"
        },
        {
          "internalType": "bool",
          "name": "active",
          "type": "bool"
        }
      ],
      "stateMutability": "view",
      "type": "function"
    },
    {
      "inputs": [],
      "name": "owner",
      "outputs": [
        {
          "internalType": "address",
          "name": "",
          "type": "address"
        }
      ],
      "stateMutability": "view",
      "type": "function"
    },
    {
      "inputs": [],
      "name": "registry",
      "outputs": [
        {
          "internalType": "contract IIdentityRegistry",
          "name": "",
          "type": "address"
        }
      ],
      "stateMutability": "view",
      "type": "function"
    },
    {
      "inputs": [],
      "name": "renounceOwnership",
      "outputs": [],
      "stateMutability": "nonpayable",
      "type": "function"
    },
    {
      "inputs": [
        {
          "internalType": "string",
          "name": "listingId",
          "type": "string"
        },
        {
          "internalType": "address",
          "name": "seller",
          "type": "address"
        },
        {
          "internalType": "address",
          "name": "buyer",
          "type": "address"
        }
      ],
      "name": "settleTrade",
      "outputs": [],
      "stateMutability": "nonpayable",
      "type": "function"
    },
    {
      "inputs": [
        {
          "internalType": "address",
          "name": "newOwner",
          "type": "address"
        }
      ],
      "name": "transferOwnership",
      "outputs": [],
      "stateMutability": "nonpayable",
      "type": "function"
    }
  ],
  "bytecode": "0x60a060405234801561000f575f5ffd5b50604051610e30380380610e3083398101604081905261002e91610138565b338061005457604051631e4fbdf760e01b81525f60048201526024015b60405180910390fd5b61005d816100e9565b5060017f9b779b17422d0df92223018b32b4d1fa46e071723d6817e2486d003becc55f00556001600160a01b0381166100d85760405162461bcd60e51b815260206004820152601f60248201527f52656769737472792063616e6e6f74206265207a65726f206164647265737300604482015260640161004b565b6001600160a01b0316608052610165565b5f80546001600160a01b038381166001600160a01b0319831681178455604051919092169283917f8be0079c531659141344cd1fd0a4f28419497f9722a3daafe3b4186f6b6457e09190a35050565b5f60208284031215610148575f5ffd5b81516001600160a01b038116811461015e575f5ffd5b9392505050565b608051610cac6101845f395f818161012a015261064d0152610cac5ff3fe608060405234801561000f575f5ffd5b5060043610610090575f3560e01c8063943f226111610063578063943f226114610174578063a7cee48314610187578063b270b18c146101aa578063dd003e57146101bd578063f2fde38b146101d0575f5ffd5b8063715018a61461009457806377dec6c31461009e5780637b103999146101255780638da5cb5b14610164575b5f5ffd5b61009c6101e3565b005b6100f36100ac3660046109e6565b8051808201602090810180516001808352938301929094019190912092905281549082015460028301546003909301546001600160a01b0392831693919092169160ff1684565b604080516001600160a01b03958616815294909316602085015291830152151560608201526080015b60405180910390f35b61014c7f000000000000000000000000000000000000000000000000000000000000000081565b6040516001600160a01b03909116815260200161011c565b5f546001600160a01b031661014c565b61009c610182366004610ade565b6101f6565b61019a610195366004610ade565b610341565b604051901515815260200161011c565b61009c6101b8366004610b38565b610372565b61009c6101cb366004610b99565b6105ae565b61009c6101de366004610bf1565b6108d0565b6101eb61090d565b6101f45f610939565b565b6101fe610988565b5f60018383604051610211929190610c11565b908152604051908190036020019020600381015490915060ff166102715760405162461bcd60e51b81526020600482015260126024820152714c697374696e67206e6f742061637469766560701b60448201526064015b60405180910390fd5b80546001600160a01b031633148061029257505f546001600160a01b031633145b6102cd5760405162461bcd60e51b815260206004820152600c60248201526b155b985d5d1a1bdc9a5e995960a21b6044820152606401610268565b60038101805460ff1916905580546040516001600160a01b03909116906102f79085908590610c11565b604051908190038120907f0ad06290f905050c9dac577e139b4b450621b456073e716db7561a52f3ff8928905f90a35061033d60015f516020610c575f395f51905f5255565b5050565b5f60018383604051610354929190610c11565b9081526040519081900360200190206003015460ff16905092915050565b61037a610988565b61038261090d565b5f60018585604051610395929190610c11565b908152604051908190036020019020600381015490915060ff166103f05760405162461bcd60e51b81526020600482015260126024820152714c697374696e67206e6f742061637469766560701b6044820152606401610268565b80546001600160a01b0384811691161461044c5760405162461bcd60e51b815260206004820152601760248201527f53656c6c65722061646472657373206d69736d617463680000000000000000006044820152606401610268565b60038101805460ff19169055600181015460028201546040516323b872dd60e01b81526001600160a01b038681166004830152858116602483015260448201929092525f9291909116906323b872dd906064016020604051808303815f875af11580156104bb573d5f5f3e3d5ffd5b505050506040513d601f19601f820116820180604052508101906104df9190610c20565b90508061052e5760405162461bcd60e51b815260206004820152601960248201527f4f776e657273686970207472616e73666572206661696c6564000000000000006044820152606401610268565b826001600160a01b0316846001600160a01b03168787604051610552929190610c11565b60405190819003812060028601548252907f692d99dba2e31af789fdfbd066655c52590dac3e64f67a0bebf224dc8c1812999060200160405180910390a450506105a860015f516020610c575f395f51905f5255565b50505050565b6105b6610988565b5f6001600160a01b0316600185856040516105d2929190610c11565b908152604051908190036020019020546001600160a01b0316146106385760405162461bcd60e51b815260206004820152601960248201527f4c697374696e6720494420616c726561647920657869737473000000000000006044820152606401610268565b604051639d2cc6f160e01b81523360048201527f00000000000000000000000000000000000000000000000000000000000000006001600160a01b031690639d2cc6f190602401602060405180830381865afa15801561069a573d5f5f3e3d5ffd5b505050506040513d601f19601f820116820180604052508101906106be9190610c20565b6107005760405162461bcd60e51b815260206004820152601360248201527214d95b1b195c881b9bdd081d995c9a599a5959606a1b6044820152606401610268565b604051636eb1769f60e11b815233600482015230602482015281906001600160a01b0384169063dd62ed3e90604401602060405180830381865afa15801561074a573d5f5f3e3d5ffd5b505050506040513d601f19601f8201168201806040525081019061076e9190610c3f565b10156107b55760405162461bcd60e51b8152602060048201526016602482015275496e73756666696369656e7420616c6c6f77616e636560501b6044820152606401610268565b6040518060800160405280336001600160a01b03168152602001836001600160a01b0316815260200182815260200160011515815250600185856040516107fd929190610c11565b9081526040805160209281900383018120845181546001600160a01b03199081166001600160a01b03928316178355948601516001830180549096169116179093559083015160028301556060909201516003909101805460ff191691151591909117905533906108719086908690610c11565b604080519182900382206001600160a01b038616835260208301859052917f3fe94004cb7efd797871f0f795ec774626c187af942608124eb69bb2a56c7b24910160405180910390a36105a860015f516020610c575f395f51905f5255565b6108d861090d565b6001600160a01b03811661090157604051631e4fbdf760e01b81525f6004820152602401610268565b61090a81610939565b50565b5f546001600160a01b031633146101f45760405163118cdaa760e01b8152336004820152602401610268565b5f80546001600160a01b038381166001600160a01b0319831681178455604051919092169283917f8be0079c531659141344cd1fd0a4f28419497f9722a3daafe3b4186f6b6457e09190a35050565b6109906109a3565b60025f516020610c575f395f51905f5255565b5f516020610c575f395f51905f52546002036101f457604051633ee5aeb560e01b815260040160405180910390fd5b634e487b7160e01b5f52604160045260245ffd5b5f602082840312156109f6575f5ffd5b813567ffffffffffffffff811115610a0c575f5ffd5b8201601f81018413610a1c575f5ffd5b803567ffffffffffffffff811115610a3657610a366109d2565b604051601f8201601f19908116603f0116810167ffffffffffffffff81118282101715610a6557610a656109d2565b604052818152828201602001861015610a7c575f5ffd5b816020840160208301375f91810160200191909152949350505050565b5f5f83601f840112610aa9575f5ffd5b50813567ffffffffffffffff811115610ac0575f5ffd5b602083019150836020828501011115610ad7575f5ffd5b9250929050565b5f5f60208385031215610aef575f5ffd5b823567ffffffffffffffff811115610b05575f5ffd5b610b1185828601610a99565b90969095509350505050565b80356001600160a01b0381168114610b33575f5ffd5b919050565b5f5f5f5f60608587031215610b4b575f5ffd5b843567ffffffffffffffff811115610b61575f5ffd5b610b6d87828801610a99565b9095509350610b80905060208601610b1d565b9150610b8e60408601610b1d565b905092959194509250565b5f5f5f5f60608587031215610bac575f5ffd5b843567ffffffffffffffff811115610bc2575f5ffd5b610bce87828801610a99565b9095509350610be1905060208601610b1d565b9396929550929360400135925050565b5f60208284031215610c01575f5ffd5b610c0a82610b1d565b9392505050565b818382375f9101908152919050565b5f60208284031215610c30575f5ffd5b81518015158114610c0a575f5ffd5b5f60208284031215610c4f575f5ffd5b505191905056fe9b779b17422d0df92223018b32b4d1fa46e071723d6817e2486d003becc55f00a264697066735822122035ba155029d08507ce98a2fb342d0637e4dbe32cf1603b529e77e75019e00ae564736f6c634300081c0033",
  "linkReferences": {},
  "deployedLinkReferences": {},
  "immutableReferences": {
    "512": [
      {
        "length": 32,
        "start": 298
      },
      {
        "length": 32,
        "start": 1613
      }
    ]
  },
  "inputSourceName": "project/contracts/RemzikMarketplace.sol",
  "buildInfoId": "solc-0_8_28-db114e9b263696fbfe87535be0fd7d8fb17b5a42"
}