{
  "_format": "hh3-artifact-1",
  "contractName": "RemzikAssetToken",
  "sourceName": "contracts/RemzikAssetToken.sol",
  "abi": [
    {
      "inputs": [
        {
          "internalType": "string",
          "name": "name",
          "type": "string"
        },
        {
          "internalType": "string",
          "name": "symbol",
          "type": "string"
        },
        {
          "internalType": "uint256",
          "name": "supply",
          "type": "uint256"
        },
        {
          "internalType": "string",
          "name": "_metadataHash",
          "type": "string"
        },
        {
          "internalType": "address",
          "name": "_registry",
          "type": "address"
        },
        {
          "internalType": "address",
          "name": "_treasury",
          "type": "address"
        }
      ],
      "stateMutability": "nonpayable",
      "type": "constructor"
    },
    {
      "inputs": [],
      "name": "AccessControlBadConfirmation",
      "type": "error"
    },
    {
      "inputs": [
        {
          "internalType": "address",
          "name": "account",
          "type": "address"
        },
        {
          "internalType": "bytes32",
          "name": "neededRole",
          "type": "bytes32"
        }
      ],
      "name": "AccessControlUnauthorizedAccount",
      "type": "error"
    },
    {
      "inputs": [
        {
          "internalType": "address",
          "name": "spender",
          "type": "address"
        },
        {
          "internalType": "uint256",
          "name": "allowance",
          "type": "uint256"
        },
        {
          "internalType": "uint256",
          "name": "needed",
          "type": "uint256"
        }
      ],
      "name": "ERC20InsufficientAllowance",
      "type": "error"
    },
    {
      "inputs": [
        {
          "internalType": "address",
          "name": "sender",
          "type": "address"
        },
        {
          "internalType": "uint256",
          "name": "balance",
          "type": "uint256"
        },
        {
          "internalType": "uint256",
          "name": "needed",
          "type": "uint256"
        }
      ],
      "name": "ERC20InsufficientBalance",
      "type": "error"
    },
    {
      "inputs": [
        {
          "internalType": "address",
          "name": "approver",
          "type": "address"
        }
      ],
      "name": "ERC20InvalidApprover",
      "type": "error"
    },
    {
      "inputs": [
        {
          "internalType": "address",
          "name": "receiver",
          "type": "address"
        }
      ],
      "name": "ERC20InvalidReceiver",
      "type": "error"
    },
    {
      "inputs": [
        {
          "internalType": "address",
          "name": "sender",
          "type": "address"
        }
      ],
      "name": "ERC20InvalidSender",
      "type": "error"
    },
    {
      "inputs": [
        {
          "internalType": "address",
          "name": "spender",
          "type": "address"
        }
      ],
      "name": "ERC20InvalidSpender",
      "type": "error"
    },
    {
      "anonymous": false,
      "inputs": [
        {
          "indexed": true,
          "internalType": "address",
          "name": "owner",
          "type": "address"
        },
        {
          "indexed": true,
          "internalType": "address",
          "name": "spender",
          "type": "address"
        },
        {
          "indexed": false,
          "internalType": "uint256",
          "name": "value",
          "type": "uint256"
        }
      ],
      "name": "Approval",
      "type": "event"
    },
    {
      "anonymous": false,
      "inputs": [
        {
          "indexed": false,
          "internalType": "string",
          "name": "newHash",
          "type": "string"
        }
      ],
      "name": "MetadataUpdated",
      "type": "event"
    },
    {
      "anonymous": false,
      "inputs": [
        {
          "indexed": true,
          "internalType": "bytes32",
          "name": "role",
          "type": "bytes32"
        },
        {
          "indexed": true,
          "internalType": "bytes32",
          "name": "previousAdminRole",
          "type": "bytes32"
        },
        {
          "indexed": true,
          "internalType": "bytes32",
          "name": "newAdminRole",
          "type": "bytes32"
        }
      ],
      "name": "RoleAdminChanged",
      "type": "event"
    },
    {
      "anonymous": false,
      "inputs": [
        {
          "indexed": true,
          "internalType": "bytes32",
          "name": "role",
          "type": "bytes32"
        },
        {
          "indexed": true,
          "internalType": "address",
          "name": "account",
          "type": "address"
        },
        {
          "indexed": true,
          "internalType": "address",
          "name": "sender",
          "type": "address"
        }
      ],
      "name": "RoleGranted",
      "type": "event"
    },
    {
      "anonymous": false,
      "inputs": [
        {
          "indexed": true,
          "internalType": "bytes32",
          "name": "role",
          "type": "bytes32"
        },
        {
          "indexed": true,
          "internalType": "address",
          "name": "account",
          "type": "address"
        },
        {
          "indexed": true,
          "internalType": "address",
          "name": "sender",
          "type": "address"
        }
      ],
      "name": "RoleRevoked",
      "type": "event"
    },
    {
      "anonymous": false,
      "inputs": [
        {
          "indexed": true,
          "internalType": "address",
          "name": "from",
          "type": "address"
        },
        {
          "indexed": true,
          "internalType": "address",
          "name": "to",
          "type": "address"
        },
        {
          "indexed": false,
          "internalType": "uint256",
          "name": "value",
          "type": "uint256"
        }
      ],
      "name": "Transfer",
      "type": "event"
    },
    {
      "inputs": [],
      "name": "COMPLIANCE_BYPASS_ROLE",
      "outputs": [
        {
          "internalType": "bytes32",
          "name": "",
          "type": "bytes32"
        }
      ],
      "stateMutability": "view",
      "type": "function"
    },
    {
      "inputs": [],
      "name": "DEFAULT_ADMIN_ROLE",
      "outputs": [
        {
          "internalType": "bytes32",
          "name": "",
          "type": "bytes32"
        }
      ],
      "stateMutability": "view",
      "type": "function"
    },
    {
      "inputs": [
        {
          "internalType": "address",
          "name": "owner",
          "type": "address"
        },
        {
          "internalType": "address",
          "name": "spender",
          "type": "address"
        }
      ],
      "name": "allowance",
      "outputs": [
        {
          "internalType": "uint256",
          "name": "",
          "type": "uint256"
        }
      ],
      "stateMutability": "view",
      "type": "function"
    },
    {
      "inputs": [
        {
          "internalType": "address",
          "name": "spender",
          "type": "address"
        },
        {
          "internalType": "uint256",
          "name": "value",
          "type": "uint256"
        }
      ],
      "name": "approve",
      "outputs": [
        {
          "internalType": "bool",
          "name": "",
          "type": "bool"
        }
      ],
      "stateMutability": "nonpayable",
      "type": "function"
    },
    {
      "inputs": [
        {
          "internalType": "address",
          "name": "account",
          "type": "address"
        }
      ],
      "name": "balanceOf",
      "outputs": [
        {
          "internalType": "uint256",
          "name": "",
          "type": "uint256"
        }
      ],
      "stateMutability": "view",
      "type": "function"
    },
    {
      "inputs": [],
      "name": "decimals",
      "outputs": [
        {
          "internalType": "uint8",
          "name": "",
          "type": "uint8"
        }
      ],
      "stateMutability": "view",
      "type": "function"
    },
    {
      "inputs": [
        {
          "internalType": "bytes32",
          "name": "role",
          "type": "bytes32"
        }
      ],
      "name": "getRoleAdmin",
      "outputs": [
        {
          "internalType": "bytes32",
          "name": "",
          "type": "bytes32"
        }
      ],
      "stateMutability": "view",
      "type": "function"
    },
    {
      "inputs": [
        {
          "internalType": "bytes32",
          "name": "role",
          "type": "bytes32"
        },
        {
          "internalType": "address",
          "name": "account",
          "type": "address"
        }
      ],
      "name": "grantRole",
      "outputs": [],
      "stateMutability": "nonpayable",
      "type": "function"
    },
    {
      "inputs": [
        {
          "internalType": "bytes32",
          "name": "role",
          "type": "bytes32"
        },
        {
          "internalType": "address",
          "name": "account",
          "type": "address"
        }
      ],
      "name": "hasRole",
      "outputs": [
        {
          "internalType": "bool",
          "name": "",
          "type": "bool"
        }
      ],
      "stateMutability": "view",
      "type": "function"
    },
    {
      "inputs": [],
      "name": "metadataHash",
      "outputs": [
        {
          "internalType": "string",
          "name": "",
          "type": "string"
        }
      ],
      "stateMutability": "view",
      "type": "function"
    },
    {
      "inputs": [],
      "name": "name",
      "outputs": [
        {
          "internalType": "string",
          "name": "",
          "type": "string"
        }
      ],
      "stateMutability": "view",
      "type": "function"
    },
    {
      "inputs": [],
      "name": "registry",
      "outputs": [
        {
          "internalType": "contract IIdentityRegistry",
          "name": "",
          "type": "address"
        }
      ],
      "stateMutability": "view",
      "type": "function"
    },
    {
      "inputs": [
        {
          "internalType": "bytes32",
          "name": "role",
          "type": "bytes32"
        },
        {
          "internalType": "address",
          "name": "callerConfirmation",
          "type": "address"
        }
      ],
      "name": "renounceRole",
      "outputs": [],
      "stateMutability": "nonpayable",
      "type": "function"
    },
    {
      "inputs": [
        {
          "internalType": "bytes32",
          "name": "role",
          "type": "bytes32"
        },
        {
          "internalType": "address",
          "name": "account",
          "type": "address"
        }
      ],
      "name": "revokeRole",
      "outputs": [],
      "stateMutability": "nonpayable",
      "type": "function"
    },
    {
      "inputs": [
        {
          "internalType": "string",
          "name": "newHash",
          "type": "string"
        }
      ],
      "name": "setMetadataHash",
      "outputs": [],
      "stateMutability": "nonpayable",
      "type": "function"
    },
    {
      "inputs": [
        {
          "internalType": "bytes4",
          "name": "interfaceId",
          "type": "bytes4"
        }
      ],
      "name": "supportsInterface",
      "outputs": [
        {
          "internalType": "bool",
          "name": "",
          "type": "bool"
        }
      ],
      "stateMutability": "view",
      "type": "function"
    },
    {
      "inputs": [],
      "name": "symbol",
      "outputs": [
        {
          "internalType": "string",
          "name": "",
          "type": "string"
        }
      ],
      "stateMutability": "view",
      "type": "function"
    },
    {
      "inputs": [],
      "name": "totalSupply",
      "outputs": [
        {
          "internalType": "uint256",
          "name": "",
          "type": "uint256"
        }
      ],
      "stateMutability": "view",
      "type": "function"
    },
    {
      "inputs": [
        {
          "internalType": "address",
          "name": "to",
          "type": "address"
        },
        {
          "internalType": "uint256",
          "name": "value",
          "type": "uint256"
        }
      ],
      "name": "transfer",
      "outputs": [
        {
          "internalType": "bool",
          "name": "",
          "type": "bool"
        }
      ],
      "stateMutability": "nonpayable",
      "type": "function"
    },
    {
      "inputs": [
        {
          "internalType": "address",
          "name": "from",
          "type": "address"
        },
        {
          "internalType": "address",
          "name": "to",
          "type": "address"
        },
        {
          "internalType": "uint256",
          "name": "value",
          "type": "uint256"
        }
      ],
      "name": "transferFrom",
      "outputs": [
        {
          "internalType": "bool",
          "name": "",
          "type": "bool"
        }
      ],
      "stateMutability": "nonpayable",
      "type": "function"
    }
  ],
  "bytecode": "0x60a060405234801561000f575f5ffd5b5060405161180438038061180483398101604081905261002e9161057b565b8585600361003c83826106b6565b50600461004982826106b6565b5050506001600160a01b038216608052600661006584826106b6565b506100705f336100b1565b5061009b7f218b5e66cced24f2a17771679618c7a56b8ed44bd3381ca61dd4e1b57743f5b8826100b1565b506100a6818561015e565b5050505050506107b5565b5f8281526005602090815260408083206001600160a01b038516845290915281205460ff16610155575f8381526005602090815260408083206001600160a01b03861684529091529020805460ff1916600117905561010d3390565b6001600160a01b0316826001600160a01b0316847f2f8788117e7eff1d82e926ec794901d17c78024a50270940304540a733656f0d60405160405180910390a4506001610158565b505f5b92915050565b6001600160a01b03821661018c5760405163ec442f0560e01b81525f60048201526024015b60405180910390fd5b6101975f838361019b565b5050565b6001600160a01b038316158015906101d757506001600160a01b0383165f9081525f5160206117e45f395f51905f52602052604090205460ff16155b1561029457608051604051639d2cc6f160e01b81526001600160a01b03858116600483015290911690639d2cc6f190602401602060405180830381865afa158015610224573d5f5f3e3d5ffd5b505050506040513d601f19601f820116820180604052508101906102489190610770565b6102945760405162461bcd60e51b815260206004820152601860248201527f436f6d706c69616e63654661696c65643a2053656e64657200000000000000006044820152606401610183565b6001600160a01b038216158015906102d057506001600160a01b0382165f9081525f5160206117e45f395f51905f52602052604090205460ff16155b1561038d57608051604051639d2cc6f160e01b81526001600160a01b03848116600483015290911690639d2cc6f190602401602060405180830381865afa15801561031d573d5f5f3e3d5ffd5b505050506040513d601f19601f820116820180604052508101906103419190610770565b61038d5760405162461bcd60e51b815260206004820152601a60248201527f436f6d706c69616e63654661696c65643a2052656365697665720000000000006044820152606401610183565b61039883838361039d565b505050565b6001600160a01b0383166103c7578060025f8282546103bc9190610796565b909155506104379050565b6001600160a01b0383165f90815260208190526040902054818110156104195760405163391434e360e21b81526001600160a01b03851660048201526024810182905260448101839052606401610183565b6001600160a01b0384165f9081526020819052604090209082900390555b6001600160a01b03821661045357600280548290039055610471565b6001600160a01b0382165f9081526020819052604090208054820190555b816001600160a01b0316836001600160a01b03167fddf252ad1be2c89b69c2b068fc378daa952ba7f163c4a11628f55a4df523b3ef836040516104b691815260200190565b60405180910390a3505050565b634e487b7160e01b5f52604160045260245ffd5b5f82601f8301126104e6575f5ffd5b81516001600160401b038111156104ff576104ff6104c3565b604051601f8201601f19908116603f011681016001600160401b038111828210171561052d5761052d6104c3565b604052818152838201602001851015610544575f5ffd5b8160208501602083015e5f918101602001919091529392505050565b80516001600160a01b0381168114610576575f5ffd5b919050565b5f5f5f5f5f5f60c08789031215610590575f5ffd5b86516001600160401b038111156105a5575f5ffd5b6105b189828a016104d7565b602089015190975090506001600160401b038111156105ce575f5ffd5b6105da89828a016104d7565b604089015160608a0151919750955090506001600160401b038111156105fe575f5ffd5b61060a89828a016104d7565b93505061061960808801610560565b915061062760a08801610560565b90509295509295509295565b600181811c9082168061064757607f821691505b60208210810361066557634e487b7160e01b5f52602260045260245ffd5b50919050565b601f82111561039857805f5260205f20601f840160051c810160208510156106905750805b601f840160051c820191505b818110156106af575f815560010161069c565b5050505050565b81516001600160401b038111156106cf576106cf6104c3565b6106e3816106dd8454610633565b8461066b565b6020601f821160018114610715575f83156106fe5750848201515b5f19600385901b1c1916600184901b1784556106af565b5f84815260208120601f198516915b828110156107445787850151825560209485019460019092019101610724565b508482101561076157868401515f19600387901b60f8161c191681555b50505050600190811b01905550565b5f60208284031215610780575f5ffd5b8151801515811461078f575f5ffd5b9392505050565b8082018082111561015857634e487b7160e01b5f52601160045260245ffd5b6080516110096107db5f395f8181610251015281816108f30152610a0b01526110095ff3fe608060405234801561000f575f5ffd5b5060043610610127575f3560e01c806370a08231116100a9578063a217fddf1161006e578063a217fddf146102b9578063a9059cbb146102c0578063c5a1d7f0146102d3578063d547741f146102db578063dd62ed3e146102ee575f5ffd5b806370a08231146102245780637b1039991461024c5780637f301b831461028b57806391d148541461029e57806395d89b41146102b1575f5ffd5b806323b872dd116100ef57806323b872dd146101b8578063248a9ca3146101cb5780632f2ff15d146101ed578063313ce5671461020257806336568abe14610211575f5ffd5b806301dd21d31461012b57806301ffc9a71461016557806306fdde0314610188578063095ea7b31461019d57806318160ddd146101b0575b5f5ffd5b6101527f218b5e66cced24f2a17771679618c7a56b8ed44bd3381ca61dd4e1b57743f5b881565b6040519081526020015b60405180910390f35b610178610173366004610c2e565b610326565b604051901515815260200161015c565b61019061035c565b60405161015c9190610c5c565b6101786101ab366004610cac565b6103ec565b600254610152565b6101786101c6366004610cd4565b610403565b6101526101d9366004610d0e565b5f9081526005602052604090206001015490565b6102006101fb366004610d25565b610426565b005b6040516012815260200161015c565b61020061021f366004610d25565b610450565b610152610232366004610d4f565b6001600160a01b03165f9081526020819052604090205490565b6102737f000000000000000000000000000000000000000000000000000000000000000081565b6040516001600160a01b03909116815260200161015c565b610200610299366004610d7c565b610488565b6101786102ac366004610d25565b6104da565b610190610504565b6101525f81565b6101786102ce366004610cac565b610513565b610190610520565b6102006102e9366004610d25565b6105ac565b6101526102fc366004610e2f565b6001600160a01b039182165f90815260016020908152604080832093909416825291909152205490565b5f6001600160e01b03198216637965db0b60e01b148061035657506301ffc9a760e01b6001600160e01b03198316145b92915050565b60606003805461036b90610e57565b80601f016020809104026020016040519081016040528092919081815260200182805461039790610e57565b80156103e25780601f106103b9576101008083540402835291602001916103e2565b820191905f5260205f20905b8154815290600101906020018083116103c557829003601f168201915b5050505050905090565b5f336103f98185856105d0565b5060019392505050565b5f336104108582856105dd565b61041b858585610658565b506001949350505050565b5f82815260056020526040902060010154610440816106b5565b61044a83836106c2565b50505050565b6001600160a01b03811633146104795760405163334bd91960e11b815260040160405180910390fd5b6104838282610753565b505050565b5f610492816106b5565b600661049e8382610eda565b507f1c306e70c05992619e2128ad1ef88df75f36c9476282e59f51401b2abaa42e4e826040516104ce9190610c5c565b60405180910390a15050565b5f9182526005602090815260408084206001600160a01b0393909316845291905290205460ff1690565b60606004805461036b90610e57565b5f336103f9818585610658565b6006805461052d90610e57565b80601f016020809104026020016040519081016040528092919081815260200182805461055990610e57565b80156105a45780601f1061057b576101008083540402835291602001916105a4565b820191905f5260205f20905b81548152906001019060200180831161058757829003601f168201915b505050505081565b5f828152600560205260409020600101546105c6816106b5565b61044a8383610753565b61048383838360016107be565b6001600160a01b038381165f908152600160209081526040808320938616835292905220545f1981101561044a578181101561064a57604051637dc7a0d960e11b81526001600160a01b038416600482015260248101829052604481018390526064015b60405180910390fd5b61044a84848484035f6107be565b6001600160a01b03831661068157604051634b637e8f60e11b81525f6004820152602401610641565b6001600160a01b0382166106aa5760405163ec442f0560e01b81525f6004820152602401610641565b610483838383610890565b6106bf8133610acb565b50565b5f6106cd83836104da565b61074c575f8381526005602090815260408083206001600160a01b03861684529091529020805460ff191660011790556107043390565b6001600160a01b0316826001600160a01b0316847f2f8788117e7eff1d82e926ec794901d17c78024a50270940304540a733656f0d60405160405180910390a4506001610356565b505f610356565b5f61075e83836104da565b1561074c575f8381526005602090815260408083206001600160a01b0386168085529252808320805460ff1916905551339286917ff6391f5c32d9c69d2a47ea670b442974b53935d1edc7fd64eb21e047a839171b9190a4506001610356565b6001600160a01b0384166107e75760405163e602df0560e01b81525f6004820152602401610641565b6001600160a01b03831661081057604051634a1406b160e11b81525f6004820152602401610641565b6001600160a01b038085165f908152600160209081526040808320938716835292905220829055801561044a57826001600160a01b0316846001600160a01b03167f8c5be1e5ebec7d5bd14f71427d1e84f3dd0314c0f7b2291e5b200ac8c7c3b9258460405161088291815260200190565b60405180910390a350505050565b6001600160a01b038316158015906108cf57506108cd7f218b5e66cced24f2a17771679618c7a56b8ed44bd3381ca61dd4e1b57743f5b8846104da565b155b156109a857604051639d2cc6f160e01b81526001600160a01b0384811660048301527f00000000000000000000000000000000000000000000000000000000000000001690639d2cc6f190602401602060405180830381865afa158015610938573d5f5f3e3d5ffd5b505050506040513d601f19601f8201168201806040525081019061095c9190610f95565b6109a85760405162461bcd60e51b815260206004820152601860248201527f436f6d706c69616e63654661696c65643a2053656e64657200000000000000006044820152606401610641565b6001600160a01b038216158015906109e757506109e57f218b5e66cced24f2a17771679618c7a56b8ed44bd3381ca61dd4e1b57743f5b8836104da565b155b15610ac057604051639d2cc6f160e01b81526001600160a01b0383811660048301527f00000000000000000000000000000000000000000000000000000000000000001690639d2cc6f190602401602060405180830381865afa158015610a50573d5f5f3e3d5ffd5b505050506040513d601f19601f82011682018060405250810190610a749190610f95565b610ac05760405162461bcd60e51b815260206004820152601a60248201527f436f6d706c69616e63654661696c65643a2052656365697665720000000000006044820152606401610641565b610483838383610b08565b610ad582826104da565b610b045760405163e2517d3f60e01b81526001600160a01b038216600482015260248101839052604401610641565b5050565b6001600160a01b038316610b32578060025f828254610b279190610fb4565b90915550610ba29050565b6001600160a01b0383165f9081526020819052604090205481811015610b845760405163391434e360e21b81526001600160a01b03851660048201526024810182905260448101839052606401610641565b6001600160a01b0384165f9081526020819052604090209082900390555b6001600160a01b038216610bbe57600280548290039055610bdc565b6001600160a01b0382165f9081526020819052604090208054820190555b816001600160a01b0316836001600160a01b03167fddf252ad1be2c89b69c2b068fc378daa952ba7f163c4a11628f55a4df523b3ef83604051610c2191815260200190565b60405180910390a3505050565b5f60208284031215610c3e575f5ffd5b81356001600160e01b031981168114610c55575f5ffd5b9392505050565b602081525f82518060208401528060208501604085015e5f604082850101526040601f19601f83011684010191505092915050565b80356001600160a01b0381168114610ca7575f5ffd5b919050565b5f5f60408385031215610cbd575f5ffd5b610cc683610c91565b946020939093013593505050565b5f5f5f60608486031215610ce6575f5ffd5b610cef84610c91565b9250610cfd60208501610c91565b929592945050506040919091013590565b5f60208284031215610d1e575f5ffd5b5035919050565b5f5f60408385031215610d36575f5ffd5b82359150610d4660208401610c91565b90509250929050565b5f60208284031215610d5f575f5ffd5b610c5582610c91565b634e487b7160e01b5f52604160045260245ffd5b5f60208284031215610d8c575f5ffd5b813567ffffffffffffffff811115610da2575f5ffd5b8201601f81018413610db2575f5ffd5b803567ffffffffffffffff811115610dcc57610dcc610d68565b604051601f8201601f19908116603f0116810167ffffffffffffffff81118282101715610dfb57610dfb610d68565b604052818152828201602001861015610e12575f5ffd5b816020840160208301375f91810160200191909152949350505050565b5f5f60408385031215610e40575f5ffd5b610e4983610c91565b9150610d4660208401610c91565b600181811c90821680610e6b57607f821691505b602082108103610e8957634e487b7160e01b5f52602260045260245ffd5b50919050565b601f82111561048357805f5260205f20601f840160051c81016020851015610eb45750805b601f840160051c820191505b81811015610ed3575f8155600101610ec0565b5050505050565b815167ffffffffffffffff811115610ef457610ef4610d68565b610f0881610f028454610e57565b84610e8f565b6020601f821160018114610f3a575f8315610f235750848201515b5f19600385901b1c1916600184901b178455610ed3565b5f84815260208120601f198516915b82811015610f695787850151825560209485019460019092019101610f49565b5084821015610f8657868401515f19600387901b60f8161c191681555b50505050600190811b01905550565b5f60208284031215610fa5575f5ffd5b81518015158114610c55575f5ffd5b8082018082111561035657634e487b7160e01b5f52601160045260245ffdfea26469706673582212203e68be60b383a192d4698b4eda0a1c844a527a1ddf72a8f8709c8996eb4cf02e64736f6c634300081c0033cc0274cdac0a656f1dc6d6ff44a7117f4e4cfa7075df612992df2ce43fb12a8d",
  "linkReferences": {},
  "deployedLinkReferences": {},
  "immutableReferences": {
    "1224": [
      {
        "length": 32,
        "start": 593
      },
      {
        "length": 32,
        "start": 2291
      },
      {
        "length": 32,
        "start": 2571
      }
    ]
  },
  "inputSourceName": "project/contracts/RemzikAssetToken.sol",
  "buildInfoId": "solc-0_8_28-630bc163097db24a14da8c063d3373a1a52a4d80"
}