{
  "_format": "hh3-artifact-1",
  "contractName": "RemzikIdentityRegistry",
  "sourceName": "contracts/RemzikIdentityRegistry.sol",
  "abi": [
    {
      "inputs": [],
      "stateMutability": "nonpayable",
      "type": "constructor"
    },
    {
      "inputs": [],
      "name": "InvalidAddress",
      "type": "error"
    },
    {
      "inputs": [
        {
          "internalType": "address",
          "name": "caller",
          "type": "address"
        }
      ],
      "name": "UnauthorizedCaller",
      "type": "error"
    },
    {
      "anonymous": false,
      "inputs": [
        {
          "indexed": true,
          "internalType": "address",
          "name": "investor",
          "type": "address"
        },
        {
          "indexed": false,
          "internalType": "bool",
          "name": "isFrozen",
          "type": "bool"
        },
        {
          "indexed": true,
          "internalType": "address",
          "name": "authorizedBy",
          "type": "address"
        }
      ],
      "name": "IdentityFreezeToggled",
      "type": "event"
    },
    {
      "anonymous": false,
      "inputs": [
        {
          "indexed": true,
          "internalType": "address",
          "name": "investor",
          "type": "address"
        },
        {
          "indexed": false,
          "internalType": "bool",
          "name": "isVerified",
          "type": "bool"
        },
        {
          "indexed": true,
          "internalType": "address",
          "name": "authorizedBy",
          "type": "address"
        }
      ],
      "name": "IdentityUpdated",
      "type": "event"
    },
    {
      "anonymous": false,
      "inputs": [
        {
          "indexed": true,
          "internalType": "address",
          "name": "previousOwner",
          "type": "address"
        },
        {
          "indexed": true,
          "internalType": "address",
          "name": "newOwner",
          "type": "address"
        }
      ],
      "name": "OwnershipTransferred",
      "type": "event"
    },
    {
      "inputs": [
        {
          "internalType": "address[]",
          "name": "investors",
          "type": "address[]"
        },
        {
          "internalType": "bool",
          "name": "status",
          "type": "bool"
        }
      ],
      "name": "batchRegisterIdentity",
      "outputs": [],
      "stateMutability": "nonpayable",
      "type": "function"
    },
    {
      "inputs": [
        {
          "internalType": "address",
          "name": "investor",
          "type": "address"
        }
      ],
      "name": "getIdentityState",
      "outputs": [
        {
          "internalType": "bool",
          "name": "verified",
          "type": "bool"
        },
        {
          "internalType": "bool",
          "name": "frozen",
          "type": "bool"
        }
      ],
      "stateMutability": "view",
      "type": "function"
    },
    {
      "inputs": [
        {
          "internalType": "address",
          "name": "investor",
          "type": "address"
        }
      ],
      "name": "isClearToTrade",
      "outputs": [
        {
          "internalType": "bool",
          "name": "",
          "type": "bool"
        }
      ],
      "stateMutability": "view",
      "type": "function"
    },
    {
      "inputs": [],
      "name": "owner",
      "outputs": [
        {
          "internalType": "address",
          "name": "",
          "type": "address"
        }
      ],
      "stateMutability": "view",
      "type": "function"
    },
    {
      "inputs": [
        {
          "internalType": "address",
          "name": "investor",
          "type": "address"
        },
        {
          "internalType": "bool",
          "name": "status",
          "type": "bool"
        }
      ],
      "name": "registerIdentity",
      "outputs": [],
      "stateMutability": "nonpayable",
      "type": "function"
    },
    {
      "inputs": [
        {
          "internalType": "address",
          "name": "investor",
          "type": "address"
        },
        {
          "internalType": "bool",
          "name": "freezeStatus",
          "type": "bool"
        }
      ],
      "name": "toggleFreeze",
      "outputs": [],
      "stateMutability": "nonpayable",
      "type": "function"
    },
    {
      "inputs": [
        {
          "internalType": "address",
          "name": "newOwner",
          "type": "address"
        }
      ],
      "name": "transferOwnership",
      "outputs": [],
      "stateMutability": "nonpayable",
      "type": "function"
    }
  ],
  "bytecode": "0x6080604052348015600e575f5ffd5b505f80546001600160a01b0319163390811782556040519091907f8be0079c531659141344cd1fd0a4f28419497f9722a3daafe3b4186f6b6457e0908290a36106868061005a5f395ff3fe608060405234801561000f575f5ffd5b5060043610610079575f3560e01c80638feaade4116100585780638feaade4146101265780639c091b43146101395780639d2cc6f11461014c578063f2fde38b1461016f575f5ffd5b8062438e591461007d57806336f7c81d146100925780638da5cb5b146100fc575b5f5ffd5b61009061008b366004610556565b610182565b005b6100e06100a03660046105eb565b6001600160a01b03165f9081526001602090815260409182902082518084019093525460ff80821615158085526101009092041615159290910182905291565b6040805192151583529015156020830152015b60405180910390f35b5f5461010e906001600160a01b031681565b6040516001600160a01b0390911681526020016100f3565b61009061013436600461060b565b6102d8565b61009061014736600461060b565b610398565b61015f61015a3660046105eb565b610445565b60405190151581526020016100f3565b61009061017d3660046105eb565b610496565b5f546001600160a01b031633146101b35760405163d86ad9cf60e01b81523360048201526024015b60405180910390fd5b5f5b828110156102d2575f8484838181106101d0576101d061063c565b90506020020160208101906101e591906105eb565b6001600160a01b03160361020c5760405163e6c4247b60e01b815260040160405180910390fd5b8160015f8686858181106102225761022261063c565b905060200201602081019061023791906105eb565b6001600160a01b0316815260208101919091526040015f20805460ff1916911515919091179055338484838181106102715761027161063c565b905060200201602081019061028691906105eb565b6001600160a01b03167f090a570f065f7190b8e3f67e64894fb769bb837d79cea112561cf182ee9b02a3846040516102c2911515815260200190565b60405180910390a36001016101b5565b50505050565b5f546001600160a01b031633146103045760405163d86ad9cf60e01b81523360048201526024016101aa565b6001600160a01b03821661032b5760405163e6c4247b60e01b815260040160405180910390fd5b6001600160a01b0382165f818152600160205260409081902080548415156101000261ff0019909116179055513391907fb97839daebcdc5b35650ab6356366e1d283861148edd2fe81428a599cdab88449061038c90851515815260200190565b60405180910390a35050565b5f546001600160a01b031633146103c45760405163d86ad9cf60e01b81523360048201526024016101aa565b6001600160a01b0382166103eb5760405163e6c4247b60e01b815260040160405180910390fd5b6001600160a01b0382165f81815260016020908152604091829020805460ff191685151590811790915591519182523392917f090a570f065f7190b8e3f67e64894fb769bb837d79cea112561cf182ee9b02a3910161038c565b6001600160a01b0381165f90815260016020908152604080832081518083019092525460ff8082161515835261010090910416158015928201929092529061048f57505f92915050565b5192915050565b5f546001600160a01b031633146104c25760405163d86ad9cf60e01b81523360048201526024016101aa565b6001600160a01b0381166104e95760405163e6c4247b60e01b815260040160405180910390fd5b5f80546040516001600160a01b03808516939216917f8be0079c531659141344cd1fd0a4f28419497f9722a3daafe3b4186f6b6457e091a35f80546001600160a01b0319166001600160a01b0392909216919091179055565b80358015158114610551575f5ffd5b919050565b5f5f5f60408486031215610568575f5ffd5b833567ffffffffffffffff81111561057e575f5ffd5b8401601f8101861361058e575f5ffd5b803567ffffffffffffffff8111156105a4575f5ffd5b8660208260051b84010111156105b8575f5ffd5b6020918201945092506105cc908501610542565b90509250925092565b80356001600160a01b0381168114610551575f5ffd5b5f602082840312156105fb575f5ffd5b610604826105d5565b9392505050565b5f5f6040838503121561061c575f5ffd5b610625836105d5565b915061063360208401610542565b90509250929050565b634e487b7160e01b5f52603260045260245ffdfea2646970667358221220ba17c1e64020cad7d5c35a7941564913e4a2fc5cb654397f6ca6e7cae111da2564736f6c634300081c0033",
  "linkReferences": {},
  "deployedLinkReferences": {},
  "immutableReferences": {},
  "inputSourceName": "project/contracts/RemzikIdentityRegistry.sol",
  "buildInfoId": "solc-0_8_28-3e43b8764569feae31549e53433aa4a06bf609dc"
}