{
  "_format": "hh3-artifact-1",
  "contractName": "YieldNotary",
  "sourceName": "contracts/YieldNotary.sol",
  "abi": [
    {
      "inputs": [],
      "stateMutability": "nonpayable",
      "type": "constructor"
    },
    {
      "anonymous": false,
      "inputs": [
        {
          "indexed": true,
          "internalType": "bytes32",
          "name": "batchId",
          "type": "bytes32"
        },
        {
          "indexed": true,
          "internalType": "address",
          "name": "property",
          "type": "address"
        },
        {
          "indexed": false,
          "internalType": "uint256",
          "name": "amount",
          "type": "uint256"
        },
        {
          "indexed": false,
          "internalType": "uint256",
          "name": "timestamp",
          "type": "uint256"
        }
      ],
      "name": "YieldRecorded",
      "type": "event"
    },
    {
      "inputs": [],
      "name": "owner",
      "outputs": [
        {
          "internalType": "address",
          "name": "",
          "type": "address"
        }
      ],
      "stateMutability": "view",
      "type": "function"
    },
    {
      "inputs": [
        {
          "internalType": "bytes32",
          "name": "_batchId",
          "type": "bytes32"
        },
        {
          "internalType": "address",
          "name": "_property",
          "type": "address"
        },
        {
          "internalType": "uint256",
          "name": "_amount",
          "type": "uint256"
        }
      ],
      "name": "recordYield",
      "outputs": [],
      "stateMutability": "nonpayable",
      "type": "function"
    }
  ],
  "bytecode": "0x6080604052348015600e575f5ffd5b505f80546001600160a01b031916331790556101858061002d5f395ff3fe608060405234801561000f575f5ffd5b5060043610610034575f3560e01c80638da5cb5b14610038578063d639ea5e14610066575b5f5ffd5b5f5461004a906001600160a01b031681565b6040516001600160a01b03909116815260200160405180910390f35b61007961007436600461010f565b61007b565b005b5f546001600160a01b031633146100c55760405162461bcd60e51b815260206004820152600a60248201526927b7363c9030b236b4b760b11b604482015260640160405180910390fd5b604080518281524260208201526001600160a01b0384169185917f9fbe588b6882fbfaecf1a7c1f417a58be5b741a41910860846b1e71bc813033b910160405180910390a3505050565b5f5f5f60608486031215610121575f5ffd5b8335925060208401356001600160a01b038116811461013e575f5ffd5b92959294505050604091909101359056fea2646970667358221220e62014c8f2b17bafd49460d19b2419bf5d749dd90d5563d4196ae0ac498bb3f264736f6c634300081c0033",
  "linkReferences": {},
  "deployedLinkReferences": {},
  "immutableReferences": {},
  "inputSourceName": "project/contracts/YieldNotary.sol",
  "buildInfoId": "solc-0_8_28-15ef629e766fb1e1fba6b60f2868d02157b40e36"
}